:100000000C9462000C948A000C948A000C948A0070
:100010000C948A000C948A000C948A000C948A0038
:100020000C948A000C948A000C948A000C948A0028
:100030000C948A000C948A000C948A000C948A0018
:100040000C9425020C948A000C94B3030C948A003F
:100050000C948A000C948A000C948A000C948A00F8
:100060000C948A000C948A000000000024002700F1
:100070002A0000000000250028002B0000000000DE
:1000800023002600290004040404040404040202DA
:100090000202020203030303030301020408102007
:1000A0004080010204081020010204081020000012
:1000B0000007000201000003040600000000000029
:1000C0000000FC0411241FBECFEFD8E0DEBFCDBF7F
:1000D00011E0A0E0B1E0EAE1F4E102C005900D9288
:1000E000A833B107D9F711E0A8E3B1E001C01D9230
:1000F000AA3EB107E1F710E0C4ECD0E004C02297BB
:10010000FE010E94D009C23CD107C9F70E941E021D
:100110000C940B0A0C940000A0E0B0E0E2E9F0E0DF
:100120000C94DC09EC01A880B980CA80DB80A114A2
:10013000B104C104D10441F484E2A82E89EDB82EA3
:100140008BE5C82E87E0D82EC601B5012DE133EF2F
:1001500041E050E00E949F0927EA31E440E050E08E
:100160000E944B097B018C01C601B5012DE133EFE3
:1001700041E050E00E949F09CA01B9012CEE34EF22
:100180004FEF5FEF0E944B096E0D7F1D801F911F87
:1001900097FF04C061507040804090486883798325
:1001A0008A839B839B01AC015F77B901CA01CDB7FC
:1001B000DEB7EAE00C94F8090E948C0008958AE208
:1001C00091E00E948C00089560932A0170932B01A6
:1001D00080932C0190932D0108958CE060E00E94A3
:1001E000C1028CE061E020E432E44FE050E00E9484
:1001F0002E030E9432082CE53FE842E250E40E94C0
:10020000E80820E030E043E153E40E9499070E94AF
:100210000108609338017093390180933A019093FB
:100220003B01089587ED91E060E071E00E948C054C
:1002300081E080933C0180933D0180914201909147
:100240004301A0914401B0914501809346019093F0
:100250004701A0934801B0934901089587ED91E0CB
:1002600060E171E00E948C0582E060E00E94E102A2
:1002700010923C0110923D01809142019091430106
:10028000A0914401B09145018093460190934701AC
:10029000A0934801B09349010895EF92FF920F9304
:1002A0001F9380913D01E0904201F0904301009145
:1002B000440110914501882309F444C0C801B701E5
:1002C00020914601309147014091480150914901E8
:1002D0000E94300720E030E040E85FE30E94E4083D
:1002E00018160CF05CC010923D01E0924601F092AD
:1002F0004701009348011093490187ED91E06FE1B8
:1003000071E00E948C0582E060E00E94E1026AE0F8
:1003100070E080E090E02FE030E040E050E00E94AC
:1003200012070E943408AB01BC0140933E01509378
:100330003F01609340017093410187ED91E00E947D
:10034000E5062DC0C801B701209146013091470153
:1003500040914801509149010E94300720913E018F
:1003600030913F0140914001509141010E94E408C9
:100370001816ACF481E080933D01E0924601F092C2
:100380004701009348011093490187ED91E063E232
:1003900071E00E948C0582E061E00E94E1020E940F
:1003A000790228EE33E040E050E00E947D09CA0166
:1003B000B9010E9432086093420170934301809317
:1003C0004401909345011F910F91FF90EF90089584
:1003D0000E94ED008091380190913901A0913A017D
:1003E000B0913B0120913C0181359105A105B105FA
:1003F0002CF4222339F40E94120104C0222311F0AC
:100400000E942E0180913C01882311F00E944D0131
:10041000089587ED91E040E855E260E070E00E94C9
:10042000F0038CE060E00E94C10282E061E00E9483
:10043000C10210923D0110923C0108950E94870272
:100440000E9409020E94E801FDCF1F920F920FB691
:100450000F9211242F933F934F935F936F937F934A
:100460008F939F93AF93BF9320914E0130914F0193
:10047000409150015091510170915201DA01C9012E
:100480000296A11DB11D672F6A5F6D3730F06D5761
:10049000DA01C9010396A11DB11D60935201809339
:1004A0004E0190934F01A0935001B0935101809160
:1004B0004A0190914B01A0914C01B0914D010196E0
:1004C000A11DB11D80934A0190934B01A0934C0153
:1004D000B0934D01BF91AF919F918F917F916F919B
:1004E0005F914F913F912F910F900FBE0F901F90F2
:1004F00018958FB7F89420914E0130914F0140919B
:100500005001509151018FBFB901CA0108957894EB
:1005100084B5826084BD84B5816084BD85B5826008
:1005200085BD85B5816085BDEEE6F0E080818160A6
:100530008083E1E8F0E08081826080838081816057
:100540008083E0E8F0E0808181608083E1EBF0E08F
:10055000808184608083E0EBF0E080818160808333
:10056000EAE7F0E08081846080838081826080831C
:100570008081816080838081806880831092C10047
:100580000895282F30E0C90186569F4FFC019491B1
:100590002A573F4FF9018491882391F0E82FF0E02A
:1005A000EE0FFF1FE859FF4FA591B491662329F480
:1005B0008C91909589238C9308958C91892B8C93A1
:1005C0000895482F50E0CA0182559F4FFC012491A5
:1005D000CA0186569F4FFC0194914A575F4FFA011A
:1005E00034913323D1F1222331F1233021F480914E
:1005F00080008F7705C0243031F4809180008F7D9A
:100600008093800018C0213019F484B58F7704C01E
:10061000223021F484B58F7D84BD0DC0263021F4B5
:100620008091B0008F7705C0273029F48091B00009
:100630008F7D8093B000E32FF0E0EE0FFF1FEE58A8
:10064000FF4FA591B491662329F48C91909589234D
:100650008C9308958C91892B8C930895DF92EF925F
:10066000FF920F931F93A82FB0E0CD0186569F4FA6
:10067000FC01D490AA57BF4FFD018491662311F469
:1006800090E001C09D2D79018A0143E0EE0CFF1C32
:10069000001F111F4A95D1F734E016950795F7947E
:1006A000E7943A95D1F7682F70E0660F771F64588A
:1006B0007F4F20E030E040E050E0FB01A591B49195
:1006C0000AC02E153F054007510709F440C02F5FAF
:1006D0003F4F4F4F5F4F8C918D21891791F30AC087
:1006E0002E153F054007510791F12F5F3F4F4F4FA8
:1006F0005F4F03C0FB01A591B4918C918D218917A7
:1007000079F720E030E040E050E0FB01A591B491A2
:1007100004C02F5F3F4F4F4F5F4F8C918D21891742
:10072000C1F3CA01B9012AE030E040E050E00E9484
:100730004B099B01AC01205F3F4F4F4F5F4F83E060
:1007400056954795379527958A95D1F704C020E0AF
:1007500030E040E050E0B901CA011F910F91FF90D5
:10076000EF90DF9008951F920F920FB60F92112411
:100770002F933F934F935F936F937F938F939F93A9
:10078000AF93BF93EF93FF934091C600E091D301E5
:10079000F091D401CF01019660E870E00E946A09EF
:1007A0009C018091D5019091D6012817390739F025
:1007B000ED5AFE4F40833093D4012093D301FF9133
:1007C000EF91BF91AF919F918F917F916F915F91C9
:1007D0004F913F912F910F900FBE0F901F90189542
:1007E0005F926F927F928F929F92AF92BF92CF92C1
:1007F000DF92EF92FF920F931F93CF93DF93EC0161
:100800003A014B01413281EA580787E0680780E0EE
:1008100078070CF07FC060E472E48FE090E0A40100
:1008200093010E949F092150304040405040CA012E
:10083000B90122E030E040E050E00E949F095901F8
:100840006A01A6019501209530954095509594E058
:10085000220F331F441F551F9A95D1F760E072E1B4
:100860008AE790E00E949F09CA01B9012FEF30E0AA
:1008700040E050E00E944B09A40193010E949F09AF
:10088000C90181509F4F181619061CF4522E5A9414
:1008900003C055245394521A60E874E88EE190E046
:1008A000A40193010E949F092150304040405040D4
:1008B000CA01B90122E030E040E050E00E949F0907
:1008C000209530954095509583E0220F331F441FAB
:1008D000551F8A95D1F760E072E18AE790E00E94A7
:1008E0009F09CA01B9012FEF30E040E050E00E94BB
:1008F0004B09A40193010E949F09C90181509F4F98
:10090000181619061CF4822F815002C081E0821B48
:10091000851500F5E885F98581E090E00A8802C038
:10092000880F991F0A94E2F7808360E874E88EE1EB
:1009300090E0A40193010E949F0921503040404063
:100940005040CA01B90122E030E040E050E00E948E
:100950009F0904C0E885F98510829501EC81FD812D
:100960003083EE81FF812083EA85FB85208141E091
:1009700050E0CA010E8402C0880F991F0A94E2F762
:10098000282B2083EA85FB852081CA010F8402C0C1
:10099000880F991F0A94E2F7282B2083EA85FB85AC
:1009A0008081088802C0440F551F0A94E2F7842B07
:1009B0008083DF91CF911F910F91FF90EF90DF9097
:1009C000CF90BF90AF909F908F907F906F905F90EF
:1009D0000895FC01A085B18521898C9190E0022EBB
:1009E00002C0959587950A94E2F780FFF6CF0484BC
:1009F000F585E02D6083089582E391E09093D8011E
:100A00008093D70183E591E09093DA018093D90137
:100A100085EC90E09093DC018093DB0184EC90E026
:100A20009093DE018093DD0180EC90E09093E001F3
:100A30008093DF0181EC90E09093E2018093E101EB
:100A400086EC90E09093E4018093E30184E080934E
:100A5000E50183E08093E60187E08093E70185E08C
:100A60008093E80181E08093E90108950F931F933B
:100A7000CF93DF938C01EB0109C02196D801ED9152
:100A8000FC910190F081E02DC801099568816623F1
:100A9000A1F7DF91CF911F910F910895EF92FF92EF
:100AA0000F931F93CF93DF938C017B01EA010CC05E
:100AB000D7016D917D01D801ED91FC910190F081FC
:100AC000E02DC80109952197209791F7DF91CF91EB
:100AD0001F910F91FF90EF900895DC01ED91FC9133
:100AE0000280F381E02D099508950F931F938C01E7
:100AF000DC01ED91FC910190F081E02D6DE0099514
:100B0000D801ED91FC910190F081E02DC8016AE0DF
:100B100009951F910F9108950F931F938C010E94C7
:100B20006D05C8010E9475051F910F9108952F92C0
:100B30003F924F925F926F927F928F929F92AF926D
:100B4000BF92CF92DF92EF92FF920F931F93DF93AA
:100B5000CF93CDB7DEB7A0970FB6F894DEBF0FBE28
:100B6000CDBF1C016A017B0141155105610571056D
:100B700049F4DC01ED91FC910190F081E02D60E3FE
:100B8000099554C0882499245401422E5524662482
:100B9000772401E010E00C0F1D1F080D191DC7017F
:100BA000B601A30192010E947D09F80160830894B7
:100BB000811C911CA11CB11CC701B601A3019201AB
:100BC0000E947D09C901DA016C017D01C114D104C3
:100BD000E104F104F1F681E0E82EF12CEC0EFD1EAB
:100BE000E80CF91C3E010894611C711CD501C4017C
:100BF0000197A109B1096C01C818D90814C0F60100
:100C0000EE0DFF1D60816A3010F4605D01C0695C0B
:100C1000D101ED91FC910190F081E02DC101099588
:100C20000894E108F1086E147F0449F7A0960FB606
:100C3000F894DEBF0FBECDBFCF91DF911F910F9112
:100C4000FF90EF90DF90CF90BF90AF909F908F90EC
:100C50007F906F905F904F903F902F9008952AE083
:100C60000E9497050895EF92FF920F931F93CF93E1
:100C7000DF93EC017A018B0177FF0FC0E881F981E6
:100C80000190F081E02D6DE2099510950095F094AA
:100C9000E094E11CF11C011D111DCE01B801A7015A
:100CA0002AE00E949705DF91CF911F910F91FF904D
:100CB000EF9008959F92AF92BF92CF92DF92EF9202
:100CC000FF920F931F93CF93DF93EC017A018B0177
:100CD000922ECB01BA0120E030E040E050E00E94CB
:100CE0009507882364F4E881F9810190F081E02D73
:100CF000CE016DE2099517FB109517F9109520E0CC
:100D000030E040E05FE3AA240BC0CA01B90120E053
:100D100030E040E251E40E9499079B01AC01A394AA
:100D2000A91498F3C801B7010E9431075B016C0157
:100D30000E9406087B018C01CE01B801A7010E9428
:100D40002F06992029F0CE0168E271E00E946D051E
:100D5000C801B7010E9432089B01AC01C601B50170
:100D60000E94300720C020E030E040E251E40E94C1
:100D7000E8087B018C010E9401085B016C01CC2416
:100D8000B7FCC094DC2CCE01B601A5010E9433064D
:100D9000C601B5010E9434089B01AC01C801B7012E
:100DA0000E9430079A949920F1F6DF91CF911F911C
:100DB0000F91FF90EF90DF90CF90BF90AF909F90FA
:100DC000089522E00E945A0608950F931F938C0104
:100DD0000E94E106C8010E9475051F910F910895B8
:100DE000EF92FF920F931F937B018C0161157105A8
:100DF0008105910529F420E030E040E050E00BC08F
:100E00000E94DF00A80197010E949F09AC01CB015D
:100E1000DA019C01AD01B901CA011F910F91FF9048
:100E2000EF900895EF92FF920F931F937B018C0137
:100E3000621773078407950764F4261B370B480B6A
:100E4000590BCA01B9010E94F006E60EF71E081FF1
:100E5000191FB701C8011F910F91FF90EF900895DE
:100E60005058BB27AA270ED075C166D130F06BD180
:100E700020F031F49F3F11F41EF45BC10EF4E095B5
:100E8000E7FB51C1E92F77D180F3BA1762077307E7
:100E90008407950718F071F49EF58FC10EF4E09564
:100EA0000B2EBA2FA02D0B01B90190010C01CA0124
:100EB000A0011124FF27591B99F0593F50F4503ECF
:100EC00068F11A16F040A22F232F342F4427585FC1
:100ED000F3CF469537952795A795F0405395C9F7D9
:100EE0007EF41F16BA0B620B730B840BBAF0915091
:100EF000A1F0FF0FBB1F661F771F881FC2F70EC030
:100F0000BA0F621F731F841F48F487957795679502
:100F1000B795F7959E3F08F0B3CF9395880F08F0EB
:100F20009927EE0F979587950895D9D008F481E019
:100F300008950CD00FC107D140F0FED030F021F45D
:100F40005F3F19F0F0C0511139C1F3C014D198F3CB
:100F50009923C9F35523B1F3951B550BBB27AA273A
:100F600062177307840738F09F5F5F4F220F331FAC
:100F7000441FAA1FA9F333D00E2E3AF0E0E830D078
:100F800091505040E695001CCAF729D0FE2F27D07B
:100F9000660F771F881FBB1F261737074807AB0749
:100FA000B0E809F0BB0B802DBF01FF2793585F4FBE
:100FB0002AF09E3F510568F0B6C000C15F3FECF3D8
:100FC000983EDCF3869577956795B795F7959F5F83
:100FD000C9F7880F911D9695879597F90895E1E0D7
:100FE000660F771F881FBB1F621773078407BA0736
:100FF00020F0621B730B840BBA0BEE1F88F7E09591
:10100000089504D06894B111D9C00895BCD088F077
:101010009F5790F0B92F9927B751A0F0D1F0660FE4
:10102000771F881F991F1AF0BA95C9F712C0B130FF
:1010300081F0C3D0B1E00895C0C0672F782F882712
:10104000B85F39F0B93FCCF3869577956795B3953E
:10105000D9F73EF490958095709561957F4F8F4FAD
:101060009F4F0895E89409C097FB3EF490958095B2
:10107000709561957F4F8F4F9F4F9923A9F0F92F5E
:1010800096E9BB279395F695879577956795B795DC
:10109000F111F8CFFAF4BB0F11F460FF1BC06F5FC2
:1010A0007F4F8F4F9F4F16C0882311F096E911C0D4
:1010B000772321F09EE8872F762F05C0662371F0F5
:1010C00096E8862F70E060E02AF09A95660F771F09
:1010D000881FDAF7880F9695879597F90895990FE5
:1010E0000008550FAA0BE0E8FEEF16161706E807F2
:1010F000F907C0F012161306E407F50798F0621B13
:10110000730B840B950B39F40A2661F0232B242BE7
:10111000252B21F408950A2609F4A140A6958FEF06
:10112000811D811D089597F99F6780E870E060E058
:1011300008959FEF80EC089500240A941616170670
:1011400018060906089500240A94121613061406B8
:1011500005060895092E0394000C11F4882352F01B
:10116000BB0F40F4BF2B11F460FF04C06F5F7F4FD3
:101170008F4F9F4F089557FD9058440F551F59F0BA
:101180005F3F71F04795880F97FB991F61F09F3F74
:1011900079F087950895121613061406551FF2CF9D
:1011A0004695F1DF08C0161617061806991FF1CFED
:1011B00086957105610508940895E894BB27662714
:1011C0007727CB0197F908958ADF08F48FEF089508
:1011D0000BD0C0CFB1DF28F0B6DF18F0952309F0AF
:1011E000A2CFA7CF1124EACFC6DFA0F3959FD1F3FA
:1011F000950F50E0551F629FF001729FBB27F00DC5
:10120000B11D639FAA27F00DB11DAA1F649F662719
:10121000B00DA11D661F829F2227B00DA11D621F68
:10122000739FB00DA11D621F839FA00D611D221F22
:10123000749F3327A00D611D231F849F600D211D06
:10124000822F762F6A2F11249F5750408AF0E1F0A9
:1012500088234AF0EE0FFF1FBB1F661F771F881FF2
:1012600091505040A9F79E3F510570F05CCFA6CF3A
:101270005F3FECF3983EDCF3869577956795B795DD
:10128000F795E7959F5FC1F7FE2B880F911D969507
:10129000879597F90895629FD001739FF001829F0F
:1012A000E00DF11D649FE00DF11D929FF00D839FF5
:1012B000F00D749FF00D659FF00D9927729FB00D92
:1012C000E11DF91F639FB00DE11DF91FBD01CF01A5
:1012D0001124089597FB092E07260AD077FD04D024
:1012E00049D006D000201AF4709561957F4F08957B
:1012F000F6F7909581959F4F0895A1E21A2EAA1BAB
:10130000BB1BFD010DC0AA1FBB1FEE1FFF1FA217B5
:10131000B307E407F50720F0A21BB30BE40BF50BB2
:10132000661F771F881F991F1A9469F7609570953B
:10133000809590959B01AC01BD01CF01089597FB6D
:10134000092E05260ED057FD04D0D7DF0AD0001C89
:1013500038F450954095309521953F4F4F4F5F4F52
:101360000895F6F790958095709561957F4F8F4F12
:101370009F4F0895AA1BBB1B51E107C0AA1FBB1FAB
:10138000A617B70710F0A61BB70B881F991F5A9511
:10139000A9F780959095BC01CD010895EE0FFF1F30
:1013A0000590F491E02D09942F923F924F925F9215
:1013B0006F927F928F929F92AF92BF92CF92DF9265
:1013C000EF92FF920F931F93CF93DF93CDB7DEB7CA
:1013D000CA1BDB0B0FB6F894DEBF0FBECDBF09945E
:1013E0002A88398848885F846E847D848C849B84B5
:1013F000AA84B984C884DF80EE80FD800C811B81C3
:10140000AA81B981CE0FD11D0FB6F894DEBF0FBEF1
:0A141000CDBFED010895F894FFCF61
:10141A00737461727420766962726174696F6E00A6
:10142A0073746F7020766962726174696F6E006C92
:10143A006F770068696768002E00010000000000ED
:08144A000000E90436054E051F
:00000001FF
