:100000000C9435000C945D000C945D000C945D0024
:100010000C945D000C945D000C945D000C945D00EC
:100020000C945D000C945D000C945D000C945D00DC
:100030000C945D000C945D000C945D000C945D00CC
:100040000C9408010C945D000C94B4010C945D00B8
:100050000C945D000C945D000C945D000C945D00AC
:100060000C945D000C945D00FD0211241FBECFEFC7
:10007000D8E0DEBFCDBF11E0A0E0B1E0E4E0FAE0FF
:1000800002C005900D92AE31B107D9F711E0AEE193
:10009000B1E001C01D92AE3BB107E1F710E0CAE646
:1000A000D0E004C02297FE010E94FC04C836D107AC
:1000B000C9F70E9401010C9400050C940000682F00
:1000C00084B1362F3095832384B985B1862B85B9C9
:1000D00020E0462F552747FD509583B190E08423BB
:1000E0009523892B19F42F5F2830B9F785B1382370
:1000F00035B984B1862B84B9822F08956F927F928F
:100100008F929F92AF92BF92CF92DF92EF92FF9227
:100110000F931F93DF93CF9300D000D000D0CDB7C3
:10012000DEB7DE011196EDE0F1E086E001900D9280
:100130008150E1F768EE73E080E090E00E945001AA
:100140004E010894811C911C98E0A92EB12CC12C61
:10015000D12C87E0682E712C6C0E7D1EF4018191EC
:100160004F010E945F00E82E8BEA91E060E071E0B1
:100170000E946E038BEA91E0B601A5012AE030E00F
:100180000E9457048BEA91E069E071E00E946E03DF
:10019000FF24E7FCF0940F2D1F2D8BEA91E0B801AE
:1001A000A7012AE030E00E946C040894A11CB11C55
:1001B000C11CD11C8614970489F68BEA91E06CE08F
:1001C00071E00E948D0326960FB6F894DEBF0FBE35
:1001D000CDBFCF91DF911F910F91FF90EF90DF90F6
:1001E000CF90BF90AF909F908F907F906F90089529
:1001F0008BEA91E040E855E260E070E00E94F10196
:1002000008950E947A010E94F8000E947E00FDCFAE
:100210001F920F920FB60F9211242F933F938F933B
:100220009F93AF93BF938091220190912301A0915E
:100230002401B0912501309126010196A11DB11D27
:10024000232F2D5F2D3720F02D570196A11DB11DB5
:10025000209326018093220190932301A0932401EF
:10026000B093250180911E0190911F01A091200162
:10027000B09121010196A11DB11D80931E019093A3
:100280001F01A0932001B0932101BF91AF919F91D5
:100290008F913F912F910F900FBE0F901F90189547
:1002A000EF92FF920F931F937B018C018FB7F8940D
:1002B0004091220150912301609124017091250108
:1002C0008FBF2FB7F8948091220190912301A091C4
:1002D0002401B09125012FBF841B950BA60BB70BF2
:1002E000E816F9060A071B0760F71F910F91FF90A8
:1002F000EF900895789484B5826084BD84B5816060
:1003000084BD85B5826085BD85B5816085BDEEE61D
:10031000F0E0808181608083E1E8F0E080818260AC
:100320008083808181608083E0E8F0E0808181606B
:100330008083E1EBF0E0808184608083E0EBF0E09B
:10034000808181608083EAE7F0E08081846080833F
:1003500080818260808380818160808380818068E9
:1003600080831092C10008951F920F920FB60F92D2
:1003700011242F933F934F935F936F937F938F93AA
:100380009F93AF93BF93EF93FF934091C600E0918B
:10039000A701F091A801CF01019660E870E00E94EA
:1003A00096049C018091A9019091AA012817390710
:1003B00039F0E95DFE4F40833093A8012093A701F7
:1003C000FF91EF91BF91AF919F918F917F916F912D
:1003D0005F914F913F912F910F900FBE0F901F9003
:1003E00018955F926F927F928F929F92AF92BF9279
:1003F000CF92DF92EF92FF920F931F93CF93DF93F1
:10040000EC013A014B01413482E458078FE0680760
:1004100080E078070CF07FC060E874E88EE190E03F
:10042000A40193010E94CB04215030404040504031
:10043000CA01B90122E030E040E050E00E94CB0464
:1004400059016A01A6019501209530954095509576
:1004500094E0220F331F441F551F9A95D1F760E097
:1004600074E284EF90E00E94CB04CA01B9012FEF3F
:1004700030E040E050E00E947704A40193010E9424
:10048000CB04C90181509F4F181619061CF4522E37
:100490005A9403C055245394521A60E079E08DE3D6
:1004A00090E0A40193010E94CB04215030404040D1
:1004B0005040CA01B90122E030E040E050E00E9423
:1004C000CB04209530954095509583E0220F331F43
:1004D000441F551F8A95D1F760E074E284EF90E0E5
:1004E0000E94CB04CA01B9012FEF30E040E050E098
:1004F0000E947704A40193010E94CB04C90181509A
:100500009F4F181619061CF4822F815002C081E0FB
:10051000821B851500F5E885F98581E090E00A8861
:1005200002C0880F991F0A94E2F7808360E079E0A7
:100530008DE390E0A40193010E94CB042150304050
:1005400040405040CA01B90122E030E040E050E0B4
:100550000E94CB0404C0E885F98510829501EC81E6
:10056000FD813083EE81FF812083EA85FB85208138
:1005700041E050E0CA010E8402C0880F991F0A941E
:10058000E2F7282B2083EA85FB852081CA010F84AE
:1005900002C0880F991F0A94E2F7282B2083EA856E
:1005A000FB858081088802C0440F551F0A94E2F73A
:1005B000842B8083DF91CF911F910F91FF90EF905B
:1005C000DF90CF90BF90AF909F908F907F906F9073
:1005D0005F900895FC01A085B18521898C9190E000
:1005E000022E02C0959587950A94E2F780FFF6CF18
:1005F0000484F585E02D6083089587E191E0909370
:10060000AC018093AB0187E291E09093AE018093BF
:10061000AD0185EC90E09093B0018093AF0184EC44
:1006200090E09093B2018093B10180EC90E09093C0
:10063000B4018093B30181EC90E09093B601809374
:10064000B50186EC90E09093B8018093B70184E007
:100650008093B90183E08093BA0187E08093BB0166
:1006600085E08093BC0181E08093BD0108950F93E4
:100670001F93CF93DF938C01EB0109C02196D80122
:10068000ED91FC910190F081E02DC8010995688100
:100690006623A1F7DF91CF911F910F910895EF92FB
:1006A000FF920F931F93CF93DF938C017B01EA019D
:1006B0000CC0D7016D917D01D801ED91FC910190A5
:1006C000F081E02DC80109952197209791F7DF91DE
:1006D000CF911F910F91FF90EF900895DC01ED9164
:1006E000FC910280F381E02D099508950F931F93EB
:1006F0008C01DC01ED91FC910190F081E02D6DE029
:100700000995D801ED91FC910190F081E02DC8018F
:100710006AE009951F910F9108950F931F938C0123
:100720000E946E03C8010E9476031F910F910895E5
:100730002F923F924F925F926F927F928F929F92F1
:10074000AF92BF92CF92DF92EF92FF920F931F93DF
:10075000DF93CF93CDB7DEB7A0970FB6F894DEBF87
:100760000FBECDBF1C016A017B014115510561051A
:10077000710549F4DC01ED91FC910190F081E02DCF
:1007800060E3099554C0882499245401422E5524CD
:100790006624772401E010E00C0F1D1F080D191DC1
:1007A000C701B601A30192010E94A904F801608368
:1007B0000894811C911CA11CB11CC701B601A301A6
:1007C00092010E94A904C901DA016C017D01C114E2
:1007D000D104E104F104F1F681E0E82EF12CEC0EF5
:1007E000FD1EE80CF91C3E010894611C711CD5012A
:1007F000C4010197A109B1096C01C818D90814C036
:10080000F601EE0DFF1D60816A3010F4605D01C0DD
:10081000695CD101ED91FC910190F081E02DC10165
:1008200009950894E108F1086E147F0449F7A09631
:100830000FB6F894DEBF0FBECDBFCF91DF911F91F1
:100840000F91FF90EF90DF90CF90BF90AF909F906F
:100850008F907F906F905F904F903F902F90089572
:10086000EF92FF920F931F93CF93DF93EC017A01E6
:100870008B0177FF0FC0E881F9810190F081E02DB5
:100880006DE2099510950095F094E094E11CF11C3F
:10089000011D111DCE01B801A7012AE00E94980395
:1008A000DF91CF911F910F91FF90EF900895DC01A0
:1008B0002115310541F4ED91FC910190F081E02D7D
:1008C000642F099508952A30310519F40E943004E7
:1008D00008950E94980308950F931F938C010E941E
:1008E0005704C8010E9476031F910F910895629FDB
:1008F000D001739FF001829FE00DF11D649FE00D18
:10090000F11D929FF00D839FF00D749FF00D659F78
:10091000F00D9927729FB00DE11DF91F639FB00D77
:10092000E11DF91FBD01CF011124089597FB092E88
:1009300007260AD077FD04D049D006D000201AF44B
:10094000709561957F4F0895F6F7909581959F4F2B
:100950000895A1E21A2EAA1BBB1BFD010DC0AA1F00
:10096000BB1FEE1FFF1FA217B307E407F50720F018
:10097000A21BB30BE40BF50B661F771F881F991F93
:100980001A9469F760957095809590959B01AC01DC
:10099000BD01CF01089597FB092E05260ED057FD06
:1009A00004D0D7DF0AD0001C38F45095409530951C
:1009B00021953F4F4F4F5F4F0895F6F790958095E3
:1009C000709561957F4F8F4F9F4F0895AA1BBB1B5A
:1009D00051E107C0AA1FBB1FA617B70710F0A61B3F
:1009E000B70B881F991F5A95A9F780959095BC0160
:1009F000CD010895EE0FFF1F0590F491E02D0994AD
:040A0000F894FFCF98
:100A04006469676974616C20003A20000001020483
:0E0A140008102000000000EA0237034F030024
:00000001FF
