:100000000C94ED000C9415010C9415010C94150141
:100010000C9415010C9415010C9415010C94150108
:100020000C9415010C9415010C9415010C94DF0C23
:100030000C94DC100C9415010C9415010C94150112
:100040000C941C130C9415010C94BE130C94150104
:100050000C9415010C9415010C9415010C941501C8
:100060000C9415010C941501746F6F206D616E79FD
:10007000206F70656E2066696C6573006261642034
:10008000696E707574005941414B00594545454BA7
:100090000053616D706C65207261746520746F6FC0
:1000A0002068696768210000436F6D707265737323
:1000B000696F6E206E6F7420737570706F727465E7
:1000C00064006661696C656420746F2067657420E4
:1000D0006E657720636C7573746572002021212131
:1000E0002000203F3F3F2000204E6F74206120768B
:1000F000616C6964205741560020436F756C646ED3
:100100002774206F70656E2066696C650046696CA7
:10011000657320666F756E643A0046696C6573207E
:10012000666F756E643A00436F756C646E27742059
:100130006F70656E2064697200436F756C646E2722
:1001400074206F70656E2066696C65737973004EFC
:100150006F20706172746974696F6E2100436172FF
:100160006420696E69742E206661696C6564210083
:100170000A0D506C6179696E672000000000002450
:100180000027002A0000000000250028002B0000A6
:1001900000000023002600290004040404040404D1
:1001A0000402020202020203030303030301020426
:1001B00008102040800102040810200102040810E9
:1001C00020000000070002010000030406000000F8
:1001D0000000000000005511071511241FBECFEFCD
:1001E000D8E0DEBFCDBF11E0A0E0B1E0E2E6F3E38E
:1001F00002C005900D92A433B107D9F714E0A4E32F
:10020000B1E001C01D92A73AB107E1F711E0CAEDD4
:10021000D1E004C02297FE010E94AB19C63DD10770
:10022000C9F70E9415130C94AF190C940000FB0140
:10023000DC018D91019080190110D9F3990B08957B
:10024000FB01DC014150504030F08D91019080194C
:1002500019F40020B9F7881B990B0895FB01DC0104
:100260004150504048F001900D920020C9F701C064
:100270001D9241505040E0F708950895CB010E942F
:1002800054030895FC01848195810E949D04089582
:10029000EF92FF920F931F93CF93DF93EB018A01AD
:1002A00079010BC0C701B8010E941701009729F41A
:1002B000CE010E949D0481E006C0CE01B7010E94DC
:1002C000A604882379F7DF91CF911F910F91FF90BA
:1002D000EF900895EF92FF920F931F93DF93CF93C8
:1002E000CDB7DEB768970FB6F894DEBF0FBECDBFAF
:1002F0008C017E010894E11CF11C97010E944801C9
:10030000882319F420E030E005C0C801B7010E943D
:100310007C089C01C90168960FB6F894DEBF0FBE39
:10032000CDBFCF91DF911F910F91FF90EF90089576
:10033000FC01AB0164817581828193810E946A0115
:100340000895EF92FF920F931F93DF93CF93CDB752
:10035000DEB768970FB6F894DEBF0FBECDBF8B0136
:10036000FC01848195817E010894E11CF11CB70198
:100370000E94A604882349F0C801B7014CE050E070
:100380000E942E01F801148681E068960FB6F89459
:10039000DEBF0FBECDBFCF91DF911F910F91FF90B8
:1003A000EF900895EF92FF920F931F93DF93CF93F7
:1003B000CDB7DEB768970FB6F894DEBF0FBECDBFDE
:1003C0008C01FC01828193817E010894E11CF11C67
:1003D000B7010E944605F80182819381B7010E940E
:1003E0002D07F8019583848320E0892B09F021E013
:1003F000822F68960FB6F894DEBF0FBECDBFCF91A7
:10040000DF911F910F91FF90EF9008950F931F932D
:100410008C01FC01808191810E945705F801938332
:10042000828320E0892B09F021E0822F1F910F9118
:1004300008950F93CF93DF93EC0184E49AE06EEF7D
:100440007AE040E050E020E030E000E00E94BA08AE
:1004500099838883892B69F484E49AE06EEF7AE0CB
:1004600040E050E020E030E00FEF0E94BA089983AE
:10047000888320E088819981892B09F021E0822FEF
:10048000DF91CF910F9108950E94EC090895DC014E
:100490008C91853E39F1882329F1F9012081318140
:1004A000828193812817390799F4448355836683A1
:1004B00077831B968C911B978F3011F080E205C0DB
:1004C0008C918295880F807E805E808780E0089581
:1004D0001B968C918F3031F02F5F3F4F31832083FB
:1004E00081E0089581E008950F931F93CF93DF93E8
:1004F0008C01FC018081853E09F48CC0882309F4BD
:1005000089C0E9018C899D89AE89BF890097A105C1
:10051000B10521F44C8B5D8B6E8B7F8B209709F49A
:1005200079C00115110509F475C0F801808188238F
:1005300009F470C083858F3011F481E06CC0A8018C
:10054000D80180E090E0282F3C91303251F0FE013C
:10055000E80FF91F30832F5F0196119688309105BF
:1005600091F78881853011F485EE8883F8018085C4
:100570008032B1F0FE01E20FF11D8EE28083822F06
:100580008F5F2C5FFA019085903249F0FE01E80FF1
:10059000F11D90838F5F4F5F5F4F821799F7282F70
:1005A000FE01E20FF11D1082F80183858D87938D86
:1005B00080E0228D30E0822B932B9F878E87258DC4
:1005C00030E040E050E0542F432F322F2227868D19
:1005D00090E0A0E0B0E0DC0199278827282B392B98
:1005E0004A2B5B2B848D90E0A0E0B0E0282B392BC8
:1005F0004A2B5B2B878D90E0A0E0B0E0B82FAA27B4
:1006000099278827282B392B4A2B5B2B288B398B52
:100610004A8B5B8B80E0DF91CF911F910F91089502
:10062000DF93CF9300D0CDB7DEB7DC010097A1F107
:100630006230710588F1ED91FC911197660F771F7B
:1006400080E090E016962D913D914D915C91199727
:10065000620F731F841F951F0190F081E02DAE0182
:100660004F5F5F4F22E030E009958823A9F09A811F
:1006700080E0298130E0282B392B2115310571F0DC
:100680008FEF273F380741F0C9014096079720F0C8
:100690008FEF283F380710F020E030E0C9010F90BD
:1006A0000F90CF91DF910895FC01009711F0118216
:1006B000108208952F923F924F925F926F927F9295
:1006C0008F929F92AF92BF92CF92DF92EF92FF9262
:1006D0000F931F93DF93CF93CDB7DEB72C970FB651
:1006E000F894DEBF0FBECDBF3C0178876F835A8779
:1006F0004987009709F402C1672B09F4FFC0452B15
:1007000009F4FCC0DC015A96AD90BD90CD90DC9010
:100710005D9752962D913D914D915C915597E9854C
:10072000FA85CF01A0E0B0E08A0D9B1DAC1DBD1D78
:10073000281739074A075B0740F4B9016A197B0992
:100740007A876987672B09F4DCC0D301ED91FC91AE
:100750001197208931893A8329835E966D917C9126
:100760005F977C876B87C901A0E0B0E08B839C8397
:10077000AD83BE83672BE1F5F3010088F189E02D9D
:10078000FC87EB87EF2B39F4A114B104C104D10429
:1007900009F4B7C0B3C0A114B104C104D10441F13C
:1007A000860175012B803C804D805E805094409482
:1007B00030942094211C311C411C511C10C0D301C9
:1007C0008D919C916B857C850E9410039C878B8703
:1007D000892B09F493C0E20CF31C041D151D6B81D9
:1007E0007C818D819E81E616F7060807190738F788
:1007F000C601B5012B813C814D815E810E946C193F
:100800002B0189849A84D301ED91FC91A980BA804F
:10081000A418B5088A149B0408F45401C080D18040
:10082000720100E010E086899789A08DB18DE80EF5
:10083000F91E0A1F1B1FEB85FC853297BF0180E064
:1008400090E03296FC87EB872B813C814D815E8165
:100850000E942619E60EF71E081F191FD601ED91FA
:10086000FC91C801B7014F815885950109958823EE
:1008700061F18A189B08C501A0E0B0E0F301228D68
:10088000338D448D558D280F391F4A1F5B1FD301AF
:100890005A962D933D934D935C935D97C501840DBE
:1008A000951DE981FA818E179F07B0F08D919C917B
:1008B0006B857C850E9410039C878B87892B51F464
:1008C000D3015F961C921E925E9749855A854819FE
:1008D000590919C0442455242B853C85F301378FD1
:1008E000268F8114910439F06F8178856A0D7B1D04
:1008F00078876F8388CF49855A8505C04FEF5FEFB2
:1009000002C040E050E0CA012C960FB6F894DEBF5A
:100910000FBECDBFCF91DF911F910F91FF90EF9050
:10092000DF90CF90BF90AF909F908F907F906F900F
:100930005F904F903F902F900895FC01009711F425
:1009400080E00895138E128E81E008954F925F9299
:100950006F927F928F929F92AF92BF92CF92DF92CF
:10096000EF92FF920F931F93DF93CF93CDB7DEB734
:10097000A9970FB6F894DEBF0FBECDBF5C014B0147
:10098000009709F44DC06115710509F449C0FC01D7
:1009900080899189892B09F043C0A081B181228D82
:1009A000338D1097D1F1ED91FC9111976280738096
:1009B0006E010894C11CD11C89E0F60111928A9540
:1009C000E9F73C832B8352966D917D918D919C919B
:1009D00055971AE0412E512C4C0E5D1E56960D91E6
:1009E0001C915797061B170BA20120E230E0F7E499
:1009F000EF2EF2E0FF2EF3010995882371F02D818F
:100A00003E814F815885211531054105510529F059
:100A10001FC0F4018081882389F5F501138E128EA1
:100A200080E0A9960FB6F894DEBF0FBECDBFCF9180
:100A3000DF911F910F91FF90EF90DF90CF90BF90CB
:100A4000AF909F908F907F906F905F904F900895A0
:100A500088E1F40111928A95E9F70985CA01B90183
:100A6000A20120E230E010E0E4E7EE2EE2E0FE2E0C
:100A70006401F3010995882381F2CBCFF501828DC2
:100A8000938D0196938F828F81E0CBCFFB01892BD1
:100A900061F06115710549F088E1DB011D928A95CD
:100AA000E9F780E1858781E0089580E008952F923D
:100AB0003F924F925F926F927F928F929F92AF92EE
:100AC000BF92CF92DF92EF92FF920F931F93DF932B
:100AD000CF93CDB7DEB7E0970FB6F894DEBF0FBE69
:100AE000CDBF6C01009709F490C1ABC1ECE8F1E017
:100AF0008AE1DF011D928A95E9F7D0928D01C092BB
:100B00008C01D60119962D913D914D915C911C97C8
:100B100019E0220F331F441F551F1A95D1F72AA33E
:100B20003BA34CA35DA3CA01B901655F7F4F8F4F03
:100B30009F4FED91FC91AE014F5F5F4F29E130E097
:100B40000995882309F484C1A9804A80BB81BEA38A
:100B50000C81FD801E813F81588469847A849D8543
:100B600080E02C85E22FF0E0E82BF92B8E883F887F
:100B7000288DE98C309709F46BC1432D50E060E07B
:100B800070E0962F852F742F662769A77AA78BA709
:100B90009CA7822F90E0A0E0B0E0BC01552744273D
:100BA00089A59AA5ABA5BCA5842B952BA62BB72B05
:100BB000482D50E060E070E0842B952BA62BB72BDE
:100BC00089A79AA7ABA7BCA78E2D90E0A0E0B0E0C4
:100BD000782F66275527442789A59AA5ABA5BCA5DC
:100BE000842B952BA62BB72B89A79AA7ABA7BCA7BD
:100BF0000097A105B10589F4972D80E0662D70E07E
:100C0000682B792B6115710509F422C1CB01A0E095
:100C1000B0E089A79AA7ABA7BCA7942D80E02A2CA7
:100C20003324282A392A952D80E0A32FB0E0A82B61
:100C3000B92BB8A7AFA39F2D80E0202F30E0822BE7
:100C4000932B9C0140E050E02A8F3B8F4C8F5D8FAF
:100C5000BF0180E090E0212F30E040E050E00E94B2
:100C600026196E8F7F8F88A399A3E9A4FAA40BA5F8
:100C70001CA54A8D5B8D6C8D7D8DE41AF50A060BE3
:100C8000170B6E8D7F8D88A199A1E61AF70A080BC4
:100C9000190BC10101972FA138A545E0220F331F81
:100CA0004A95E1F7820F931FB1010E94451980E038
:100CB00090E0E61AF70A080B190B7EA1272F30E007
:100CC00040E050E0C801B7010E946C1929013A01C7
:100CD000D301C201855F9F40A040B0408050904F3B
:100CE000A040B04008F0B4C086E0D60118968C93BE
:100CF0009EE8892E91E0992E88E1F40111928A955F
:100D0000E9F75101CC24DD2469A57AA58BA59CA522
:100D1000A60195010E94261960938E0170938F01A0
:100D20008093900190939101C601B5012A8D3B8D6E
:100D30004C8D5D8D0E9426197B018C012AA13BA15F
:100D40004CA15DA1E20EF31E041F151FE09292015B
:100D5000F0929301009394011093950142E050E0CA
:100D600060E070E0440E551E661E771E440C551C54
:100D7000661C771C409296015092970160929801F0
:100D80007092990130929B0120929A015EA1852F69
:100D900090E0BC01269EC001279E900D369E900DCE
:100DA000112490939D0180939C016E8D7F8D88A16D
:100DB00099A1A60195010E9426196E0D7F1D801F25
:100DC000911F60939E0170939F018093A001909367
:100DD000A101AFA1B8A59D0140E050E005E0220FC0
:100DE000331F441F551F0A95D1F7620F731F841FCD
:100DF000951F6093A2017093A3018093A401909327
:100E0000A50194012250304002C020E030E0C90129
:100E1000E0960FB6F894DEBF0FBECDBFCF91DF9145
:100E20001F910F91FF90EF90DF90CF90BF90AF9008
:100E30009F908F907F906F905F904F903F902F90FA
:100E4000089580918C0190918D01892BF1F64ECE01
:100E500010928D0110928C01D8CFCF93DF939C011B
:100E6000DB01009729F16115710511F11D968C9137
:100E70001D9784FF1DC08091340190913501892B0D
:100E800019F4E4E3F1E008C0809150019091510120
:100E9000892B71F4E0E5F1E0EF01229688E10D90F5
:100EA00009928150E1F731832083138E128E02C0A4
:100EB000E0E0F0E0CF01DF91CF9108952F923F92D3
:100EC0004F925F926F927F928F929F92AF92BF925A
:100ED000CF92DF92EF92FF920F931F93DF93CF9306
:100EE000CDB7DEB72A970FB6F894DEBF0FBECDBFE1
:100EF0004C017C836B831A01009709F4DEC0672BD9
:100F000009F4DBC04115510509F4D7C0DC015A963C
:100F1000ED90FD900D911C915D9780E09EEFAFEFFD
:100F2000BFEFE822F9220A231B23D4015A96ED923F
:100F3000FD920D931C935D9752962D913D914D918D
:100F40005C9155972E153F054007510708F4B8C02E
:100F5000C101A0E0B0E08E0D9F1DA01FB11F28179A
:100F600039074A075B0728F419012E183F0809F4CE
:100F7000A7C0D401ED91FC911197208931893A8362
:100F800029835E968D919C915F979A878987290125
:100F900066247724892BD9F550960D90BC91A02D0D
:100FA000BA87A987AB2B39F4E114F10401051105C7
:100FB00009F486C082C0E114F1040105110539F17C
:100FC0005701680188279927DC0184199509A6092A
:100FD000B7098D839E83AF83B88714C0D4018D91E8
:100FE0009C9169857A850E9410039A878987892B4D
:100FF00009F463C08D819E81AF81B885A80EB91EAA
:10100000CA1EDB1EA414B504C604D70438F7510168
:1010100091E0291692E0390618F0A12C82E0B82E52
:10102000C801B701A30192010E946C197B012981BB
:101030003A81261B370B65012A153B0508F4690127
:1010400000E010E0D401ED91FC9186899789A08D94
:10105000B18DE80EF91E0A1F1B1FE985FA8532972C
:10106000BF0180E090E03296FA87E987A301920100
:101070000E942619E60EF71E081F191FC801B701A6
:101080004B815C8196010E94520C892BC9F096011C
:1010900040E050E0F401828D938DA48DB58D820FD8
:1010A000931FA41FB51F828F938FA48FB58F29859F
:1010B0003A85378F268FA50105C04FEF5FEF02C03D
:1010C00040E050E0CA012A960FB6F894DEBF0FBE8A
:1010D000CDBFCF91DF911F910F91FF90EF90DF90E7
:1010E000CF90BF90AF909F908F907F906F905F90C8
:1010F0004F903F902F900895CF93DF939C01FB0179
:10110000009731F06115710519F0858584FF2BC0BA
:101110008CE790E002C088E690E060E00E94BB0CA3
:1011200020E030E0C901DF91CF910895CEE6D1E013
:10113000DF0188E10D9009928150E1F730936D0154
:1011400020936C0110928601109287011092880101
:10115000109289018685978590938B0180938A01EF
:101160002CE631E0DFCF80916C0190916D01892BED
:1011700091F6DCCF8F929F92AF92BF92CF92DF9287
:10118000EF92FF920F93DF93CF93CDB7DEB76097C7
:101190000FB6F894DEBF0FBECDBF7C016B015A01C4
:1011A0004901009709F493C06115710509F48FC0D6
:1011B00004300CF08CC007FD1DC0602F772767FD41
:1011C0007095E4E0660F771FEA95E1F762547E4F71
:1011D000882777FD8095982FAE014F5F5F4F20E104
:1011E00030E0F7010995882309F471C08D818823C7
:1011F00009F46DC08091AE01882309F068C07CC0FD
:101200008D818093AE012A8530E040E050E0542F7C
:10121000432F322F22278B8590E0A0E0B0E0DC0145
:1012200099278827282B392B4A2B5B2B898590E01F
:10123000A0E0B0E0282B392B4A2B5B2B8C8590E06B
:10124000A0E0B0E0B82FAA2799278827282B392BB0
:101250004A2B5B2B2093AF013093B0014093B10137
:101260005093B2012E8530E040E050E0542F432FE0
:10127000322F22278F8590E0A0E0B0E0DC01992793
:101280008827282B392B4A2B5B2B8D8590E0A0E0FB
:10129000B0E0282B392B4A2B5B2B888990E0A0E00B
:1012A000B0E0B82FAA2799278827282B392B4A2B5B
:1012B0005B2B2093B3013093B4014093B50150935D
:1012C000B60103C08FEF8093AE019F0102C020E002
:1012D00030E0C90160960FB6F894DEBF0FBECDBFF7
:1012E000CF91DF910F91FF90EF90DF90CF90BF9063
:1012F000AF909F908F900895E6EAF1E081E1DF01E1
:101300001D928A95E9F7F092A701E092A601D0928A
:10131000A901C092A801B092AB01A092AA0190923B
:10132000AD018092AC0107FF6BCFCCCF282F8FEFA0
:101330008EBD0DB407FEFDCF8DB58F778DBD8EB5FB
:10134000822F80648EBD0DB407FEFDCF8DB58F77E3
:101350008DBD872F9927AA27BB278EBD0DB407FE09
:10136000FDCF8DB58F778DBDCB01AA27BB278EBD55
:101370000DB407FEFDCF8DB58F778DBDBB27A72F91
:10138000962F852F8EBD0DB407FEFDCF8DB58F77BF
:101390008DBD4EBD0DB407FEFDCF8DB58F778DBDD4
:1013A000222311F08FEF01C085E98EBD0DB407FE39
:1013B000FDCF8DB58F778DBD90E02FEF2EBD0DB495
:1013C00007FEFDCF8DB58F778DBD8EB58F3F19F49C
:1013D0009F5F9A3099F70895CF93DF930000000044
:1013E000239A259A229A24982A9A83E58CBD8DB552
:1013F0008E7F8DBD20E030E09FEF9EBD0DB407FED7
:10140000FDCF8DB58F778DBD8EB52F5F3F4F2A30C5
:10141000310599F72A98C0E0D0E080E040E050E044
:1014200060E070E00E949609813031F081E0CF3FAA
:10143000D807E1F02196F1CFC0E0D0E081E040E0B4
:1014400050E060E070E00E94960980FF06C08FE7E0
:10145000CF3FD80759F02196F1CF80E140E052E02C
:1014600060E070E00E949609882319F02A9A80E0D3
:1014700008C02A9A8CB58C7F8CBD8DB581608DBDDE
:1014800081E0DF91CF9108958F929F92AF92BF92AA
:10149000DF92EF92FF920F931F93CF93DF937B0125
:1014A0008C015A01E901DD24DA94812C42E0942E6A
:1014B0005EC02A98B801A70140705E7F81E10E945A
:1014C0009609882319F02A9A80E055C0DEBC0DB435
:1014D00007FEFDCF8DB58F778DBD8EB58E3FB1F7F1
:1014E000A7015170B401641B750BC617D70708F428
:1014F000BE01FB01E40FF51F20E030E0DEBC0DB4BF
:1015000007FEFDCF8DB58F778DBD8EB524173507BE
:1015100030F02E173F0718F4D5018D935D012F5F32
:101520003F4FB2E020303B0749F7DEBC0DB407FE69
:10153000FDCF8DB58F778DBD8EB5DEBC0DB407FEAA
:10154000FDCF8DB58F778DBD8EB52A9ADEBC0DB4DB
:1015500007FEFDCF8DB58F778DBD8EB5C61BD70B22
:10156000CB01A0E0B0E0E80EF91E0A1F1B1F209778
:1015700009F09FCF81E0DF91CF911F910F91FF90F4
:10158000EF90DF90BF90AF909F908F900895209143
:101590002601309127019FEF0AC09EBD0DB407FEC2
:1015A000FDCF8DB58F778DBD8EB52F5F3F4F82E01C
:1015B0002030380790F38FEF8EBD0DB407FEFDCFBE
:1015C0008DB58F778DBD8EB58FEF8EBD0DB407FEB7
:1015D000FDCF8DB58F778DBD8EB52A9A8FEF8EBDDD
:1015E0000DB407FEFDCF8DB58F778DBD8EB58FEF16
:1015F0009FEF909327018093260108952F923F92A9
:101600004F925F926F927F928F929F92AF92BF9212
:10161000CF92DF92EF92FF920F931F93DF93CF93BE
:10162000CDB7DEB72C970FB6F894DEBF0FBECDBF97
:101630004B015C011A013C872B872801FE82ED8259
:10164000D886CF824115510509F4DCC0211531053A
:1016500009F4D8C00217130708F4D4C0EF2809F41E
:10166000D1C02A98309521953F4F3A872987840128
:101670001170D501C40180709E7F89839A83AB83EA
:10168000BC8381E149815A816B817C810E949609EA
:10169000882311F02A9AB6C09FEF9EBD0DB407FEB5
:1016A000FDCF8DB58F778DBD8EB58E3FA9F720E02C
:1016B00030E00BC0AFEFAEBD0DB407FEFDCF8DB572
:1016C0008F778DBD8EB52F5F3F4F2017310790F379
:1016D000E12C52E0F52EE01AF10A3701EB85FC858A
:1016E0006E1A7F0A6201CE1ADF0A00E012E00E19BC
:1016F0001F092B853C85E216F30648F14216530676
:1017000030F1F10120E030E00CC08FEF8EBD0DB460
:1017100007FEFDCF8DB58F778DBD8EB581932F5F81
:101720003F4FAB85BC852A173B0778F3A80160E0E3
:1017300070E0480D591D6A1D7B1DC1012F81388540
:10174000ED81FE810995882321F491E026C090E087
:1017500024C02B853C85E21AF30A421A530A61140D
:101760007104A9F389859A85680E791EC80ED91E61
:10177000020F131FC9018C0D9D1D892B09F0B9CFD4
:10178000E6CFAFEFAEBD0DB407FEFDCF8DB58F77C1
:101790008DBD8EB50894E108F108E114F10489F7D4
:1017A000BFEFBEBD0DB407FEFDCF8DB58F778DBDEC
:1017B0008EB5EFEFEEBD0DB407FEFDCF8DB58F7783
:1017C0008DBD8EB52B853C854216530678F0992346
:1017D00069F489809A80AB80BC8080E092E0A0E0D0
:1017E000B0E0880E991EAA1EBB1E41CF2A9A8FEF29
:1017F0008EBD0DB407FEFDCF8DB58F778DBD8EB537
:1018000081E001C080E02C960FB6F894DEBF0FBED9
:10181000CDBFCF91DF911F910F91FF90EF90DF909F
:10182000CF90BF90AF909F908F907F906F905F9080
:101830004F903F902F900895FC0120912601309108
:1018400027014FEF2F3F340731F486E890E060E046
:101850000E94BB0CFFCFCB01820F931F815092409F
:1018600020F060E072E0621B730B20E030E04FEF8D
:1018700014C04EBD0DB407FEFDCF8DB58F778DBD65
:101880008EB58193809126019091270101969093C6
:101890002701809326012F5F3F4F2617370748F314
:1018A000CB010895CF92DF92EF92FF920F931F9397
:1018B000CF93DF937B018C016A0180912601909187
:1018C00027018F5F9F4F31F08BE890E060E00E942E
:1018D000BB0CFFCFE90182E02130380710F0C0E0F7
:1018E000D2E02A9880E09EEFAFEFBFEFE822F92226
:1018F0000A231B2381E1B801A7010E9496098823CE
:1019000021F02A9AC0E0D0E02CC09FEF9EBD0DB41C
:1019100007FEFDCF8DB58F778DBD8EB58E3FB1F7AC
:1019200010922701109226012FEF14C02EBD0DB486
:1019300007FEFDCF8DB58F778DBD8EB5D6018D930A
:101940006D018091260190912701019690932701C6
:101950008093260180912601909127018C179D0785
:1019600028F3CE01DF91CF911F910F91FF90EF905F
:10197000DF90CF9008950F931F93CF93DF93EC01E7
:10198000062F10E005C084E994E00E9478151F5FDF
:10199000FE01E10FF11D64916623A9F7002351F0C8
:1019A00084E994E06AE00E94801584E994E06DE0A7
:1019B0000E948015DF91CF911F910F9108951F9282
:1019C0000F920FB60F9211242F933F934F938F9343
:1019D0009F93AF93BF93CF93DF93EF93FF932F9397
:1019E0003F934F935F936F937F93AF93BF93C09158
:1019F000B701D091B801209709F4C3C02091BD036D
:101A00003091BE038091BF039091C003281739071E
:101A100009F047C08091C2038823B9F18091B903CE
:101A20009091BA0329EB32E041E0893B940749F4F5
:101A30003093BA032093B9039093BC038093BB0304
:101A40000AC089EB91E09093BA038093B903309375
:101A5000BC032093BB038091B9039091BA03909388
:101A6000BE038093BD0380509F4F9093C00380932B
:101A7000BF031092C2038091C103882391F4809127
:101A80006F00846080936F000CC089899A89AB894C
:101A9000BC890196A11DB11D898B9A8BAB8BBC8B28
:101AA00070C05A985C985B9A5B985C9A5B9A5B985A
:101AB0005B9A5B985B9A5B988F818031B1F5E0917E
:101AC000BD03F091BE03918180E09093C4038093A5
:101AD000C303208130E0282B392B205030480E885A
:101AE00002C0369527950A94E2F73093C4032093F9
:101AF000C303932F97FF02C05C9A01C05C985B9A66
:101B00005B988F5F883011F0990FF4CF30E027FF9A
:101B100002C05C9A01C05C985B9A5B983F5F34306E
:101B200011F0220FF4CF32961DC08830F9F4E09105
:101B3000BD03F091BE03908180E097FF02C05C9AE4
:101B400001C05C985B9A5B988F5F883011F0990FA9
:101B5000F4CF5B9A5B985B9A5B985B9A5B985B9A15
:101B60005B983196F093BE03E093BD035A9A5D985B
:101B70005D9ABF91AF917F916F915F914F913F912E
:101B80002F91FF91EF91DF91CF91BF91AF919F91F5
:101B90008F914F913F912F910F900FBE0F901F90FB
:101BA00018950895CF93DF93EC0180916F008D7F9E
:101BB00080936F008D89882319F00E94C70A1D8ABF
:101BC000E091B701F091B801108A1092B80110921B
:101BD000B701DF91CF910895CF92DF92EF92FF92FC
:101BE0000F931F93DF93CF93CDB7DEB728970FB630
:101BF000F894DEBF0FBECDBF8C016B01CB017E011F
:101C00000894E11CF11CB70144E050E00E945A0323
:101C1000049709F0F0C0C70160E071E044E050E0D3
:101C20000E942001009709F0E6C0F5C0CE0105969C
:101C300065E071E044E050E00E942001009709F067
:101C4000DAC0F2C0C7016AE071E044E050E00E94EF
:101C50002001009709F0CFC0F0C0542F432F322F3E
:101C600022278081280F311D411D511D3197EC170E
:101C7000FD0799F7F8012487358746875787203174
:101C800031054105510509F0B6C0C601BE016F5FBF
:101C90007F4F48E050E00E945A03089709F0ABC01C
:101CA0008A8190E0A0E0B0E0BA2FA92F982F882772
:101CB0002981820F911DA11DB11D0197A105B105BB
:101CC00019F088EA90E083C08C8190E0A0E0B0E059
:101CD0002227382F492F5A2F8B81280F311D411D64
:101CE000511D233031054105510508F084C0F8012C
:101CF0002083FE013896BE016C5F7F4F542F432F27
:101D0000322F22278081280F311D411D511D31970F
:101D1000E617F70799F7F801218332834383548349
:101D2000C601BE016F5F7F4F48E050E00E945A033A
:101D3000089709F060C08E8190E0A0E0B0E0BA2F73
:101D4000A92F982F88272D81820F911DA11DB11DCC
:101D5000F80196838583888590E0A0E0B0E0222793
:101D6000382F492F5A2F8F81280F311D411D511DAA
:101D7000213131054105510508F03DC0278381819E
:101D80009281A381B4818332F6E59F07F0E0AF072B
:101D9000F0E0BF0718F0293040F00CC081589E4396
:101DA000A040B04050F0293040F0FF24F80180817D
:101DB000823020F0FF24F39401C0FF2487EA90E0F2
:101DC00061E00E94BB0CFF2031F081E990E061E00E
:101DD0000E94BB0C10C0F801108611861286138673
:101DE000D08EC78A118A128A138A148A108A158A99
:101DF000168A81E001C080E028960FB6F894DEBF15
:101E00000FBECDBFCF91DF911F910F91FF90EF904B
:101E1000DF90CF900895C601B70148E050E00E94DE
:101E20005A03089741F702CFC601B70144E050E0DA
:101E30000E945A030497F9F605CFF8011486158617
:101E400016861786C601B70144E050E00E945A0387
:101E5000049789F6F8012485358546855785FE0166
:101E60003496FBCEAF92BF92CF92DF92EF92FF9269
:101E70000F931F93DF93CF9300D000D00F92CDB775
:101E8000DEB76C015B01F42EE52EFC0180859185A7
:101E9000A285B3850097A105B105D1F58789908DFD
:101EA0008E010F5F1F4FB80144E050E00E945A03BB
:101EB000049709F0F5C01D82D60157968D919C912B
:101EC0005897B80144E050E00E945A03049709F083
:101ED000E7C0F6011086118612861386FE0134963D
:101EE00020E030E040E050E0542F432F322F2227F3
:101EF0008081280F311D411D511D3197EC17FD07C1
:101F000099F7D60118962D933D934D935C931B97AB
:101F10008F2D9E2D9C017901B2E021303B0718F0F6
:101F2000E12C72E0F72EF60120853185428553853C
:101F3000C701A0E0B0E0281739074A075B0708F49B
:101F40007901D6015796ED91FC915897828D938D2A
:101F5000A48DB58D9170A070B0700097A105B105EA
:101F6000D1F4D60155968C918823A9F4CF01B501FF
:101F7000A7010E945E078C018E159F0541F082EE3D
:101F800090E060E00E94BB0C0E94C70A8BC081E019
:101F9000F601858B73C0D60155968C91882309F480
:101FA00063C0C501B7010E941C0C5C018E159F0522
:101FB00039F08CED90E060E00E94BB0C0E94C70AF3
:101FC000D6015796ED91FC915897C501A0E0B0E07D
:101FD000228D338D448D558D820F931FA41FB51F05
:101FE000828F938FA48FB58F9170A070B07000977F
:101FF000A105B10509F041C00E94C70AF601158A82
:102000000789108DD801ED90FC901197F701208978
:10201000318940E050E05A966D917D918D919C916F
:102020005D970E946C19611571058105910529F56F
:10203000D8015E966D917C915F97C7010E94100355
:10204000F801978F868F892BC1F4D6015796ED91B1
:10205000FC915897178E168E82EC90E061E00E94FA
:10206000BB0C0FEF1FEF1EC0CF01B501A7010E94EF
:102070005A038E159F05A1F401C07501970140E038
:1020800050E0F60180859185A285B385821B930B74
:10209000A40BB50B80879187A287B387870102C005
:1020A00000E010E0C8010F900F900F900F900F907C
:1020B000CF91DF911F910F91FF90EF90DF90CF9024
:1020C000BF90AF900895CF92DF92EF92FF920F935F
:1020D0001F93CF93DF93EC01C980DA80EB80FC8003
:1020E0009093B8018093B70109EB11E01093BE0300
:1020F0000093BD03B80142E050E00E94320F892BEB
:1021000009F451C08091BD039091BE030296909353
:10211000C0038093BF03EF89F88D828D40E051E0CA
:10212000481B51098091B7019091B801B8016E5FC9
:102130007F4F0E94320F9C010097A9F18091BF034D
:102140009091C003820F931F9093C0038093BF03AD
:102150008091B7019091B80169EB72E040E051E0E5
:102160000E94320F81E08093C203888B109280001E
:1021700089E08093810060E074E284EF90E0A70141
:1021800096010E946C19309389002093880081E0A9
:1021900090E090938B0080938A0080916F00826022
:1021A00080936F007894DF91CF911F910F91FF90F2
:1021B000EF90DF90CF9008951F920F920FB60F927D
:1021C00011242F933F934F935F936F937F938F933C
:1021D0009F93AF93BF93EF93FF932F933F934F93AF
:1021E0005F936F937F93AF93BF9380916F008B7FCB
:1021F00080936F008091C203882339F581E080933A
:10220000C10378946091BB037091BC038091B701C6
:102210009091B80140E051E00E94320F892B31F4D7
:102220008091B7019091B8010E94D20DF89410925C
:10223000C10381E08093C2037894BF91AF917F91F5
:102240006F915F914F913F912F91FF91EF91BF91CE
:10225000AF919F918F917F916F915F914F913F913E
:102260002F910F900FBE0F901F901895682F84B17B
:10227000362F3095832384B985B1862B85B920E02C
:10228000462F552747FD509583B190E08423952331
:10229000892B19F42F5F2031B9F785B1382335B96F
:1022A00084B1862B84B9822F089585EC93E00E9437
:1022B0003D018DEC93E00E94D10D0895AF92BF9245
:1022C000CF92DF92EF92FF920F931F9381E00E94D3
:1022D0003611992787FD9095A92FB92FBC01CD0103
:1022E0000E940F182091FC033091FD034091FE03E2
:1022F0005091FF030E940C177B018C016093FC033B
:102300007093FD038093FE039093FF0320910404D8
:102310003091050487E22F3038074CF48091DD03BB
:102320002F5F3F4F309305042093040471C0B9011F
:10233000882777FD8095982F0E940F189B01AC018C
:10234000C801B7010E9474176093FC037093FD03EA
:102350008093FE039093FF0384E994E06FE071E0C3
:102360000E9488154091FC035091FD036091FE038B
:102370007091FF0384E994E00E940017E090FC0351
:10238000F090FD030091FE031091FF03A090000464
:10239000B0900104C0900204D0900304C801B701BA
:1023A000A60195010E940B172AE939E949E15EE38C
:1023B0000E94BF1818161CF41092060411C0C60122
:1023C000B501A80197010E940B172AE939E949E1F3
:1023D0005EE30E94BF1818161CF481E08093060487
:1023E000E0920004F09201040093020410930304AD
:1023F00080E090E0A0E0B0E08093FC039093FD03C8
:10240000A093FE03B093FF031092050410920404FE
:102410001F910F91FF90EF90DF90CF90BF90AF9002
:102420000895BC0185EC93E00E949801BC01909353
:10243000CC038093CB03009719F489EF90E008C098
:102440008DEC93E00E94EC0D882331F488EE90E04F
:1024500061E00E94BB0C08958DEC93E00E94631034
:1024600008950F931F930E9411128091CE039091B3
:10247000CF039093E7038093E60301E015E00BC0E0
:102480000E945E1180910604882319F41093E303DF
:1024900002C00093E3038091DD03882389F76091F4
:1024A000CB037091CC0385EC93E00E943E011F9119
:1024B0000F9108950E945E11809106048823F1F126
:1024C0001092FB031092FA0385EC93E00E94420104
:1024D0001092E80312C085EC93E06AEE73E00E946C
:1024E000A1018093E903882319F41092F903089558
:1024F0008091E8038F5F8093E8032091F90330E037
:102500008091E80390E0281739072CF780E791E0E5
:1025100060E00E94BB0C84E994E06AEE73E00E94E4
:10252000881585EC93E00E9442018AEE93E00E94B8
:1025300031128091F9038F5F8093F903089585EC40
:1025400093E00E9442018DE091E061E00E94BB0CAB
:1025500085EC93E06AEE73E00E94A101882329F4E0
:1025600085EC93E00E944201089584E994E06AEECC
:1025700073E00E94A715ECCF84E994E069E171E073
:102580000E94A71582E061E00E949E1383E061E053
:102590000E949E1384E061E00E949E1385E061E04A
:1025A0000E949E1385EC93E00E944402882319F454
:1025B0008DE591E01AC085EC93E00E941902882312
:1025C00019F48FE491E011C085EC93E00E940602BB
:1025D000882319F489E391E008C085EC93E00E9418
:1025E000D201882331F487E291E061E00E94BB0CC4
:1025F00008958AE191E061E00E94BB0C0E949F1265
:10260000089584E994E040E855E260E070E00E94BB
:10261000FB138091280161E00E949E131092050433
:10262000109204040E94BC1208950E9464130E9438
:1026300001130E945A12FDCF1F920F920FB60F92F4
:1026400011242F933F938F939F93AF93BF938091C8
:102650000B0490910C04A0910D04B0910E043091E4
:102660000F040196A11DB11D232F2D5F2D3720F0E2
:102670002D570196A11DB11D20930F0480930B04CB
:1026800090930C04A0930D04B0930E048091070462
:1026900090910804A0910904B0910A040196A11D2B
:1026A000B11D8093070490930804A0930904B0938C
:1026B0000A04BF91AF919F918F913F912F910F90FD
:1026C0000FBE0F901F901895789484B5826084BDDA
:1026D00084B5816084BD85B5826085BD85B5816026
:1026E00085BDEEE6F0E0808181608083E1E8F0E086
:1026F000808182608083808181608083E0E8F0E077
:10270000808181608083E1EBF0E080818460808360
:10271000E0EBF0E0808181608083EAE7F0E0808197
:1027200084608083808182608083808181608083F7
:102730008081806880831092C1000895282F30E046
:10274000C90183559E4FFC01949127563E4FF901D4
:102750008491882391F0E82FF0E0EE0FFF1FE558F9
:10276000FE4FA591B491662329F48C91909589230D
:102770008C9308958C91892B8C9308951F920F92BE
:102780000FB60F9211242F933F934F935F936F9344
:102790007F938F939F93AF93BF93EF93FF9340915A
:1027A000C600E0919004F0919104CF01019660E899
:1027B00070E00E9459199C018091920490919304B9
:1027C0002817390739F0E05FFB4F408330939104BD
:1027D00020939004FF91EF91BF91AF919F918F91C2
:1027E0007F916F915F914F913F912F910F900FBE0D
:1027F0000F901F9018955F926F927F928F929F9289
:10280000AF92BF92CF92DF92EF92FF920F931F93FE
:10281000CF93DF93EC013A014B01413482E4580736
:102820008FE0680780E078070CF07FC060E874E80C
:102830008EE190E0A40193010E948E192150304056
:1028400040405040CA01B90122E030E040E050E091
:102850000E948E1959016A01A601950120953095B3
:102860004095509594E0220F331F441F551F9A95B1
:10287000D1F760E074E284EF90E00E948E19CA0103
:10288000B9012FEF30E040E050E00E942619A4018A
:1028900093010E948E19C90181509F4F1816190685
:1028A0001CF4522E5A9403C055245394521A60E0DB
:1028B00079E08DE390E0A40193010E948E192150EC
:1028C000304040405040CA01B90122E030E040E0D1
:1028D00050E00E948E19209530954095509583E0E8
:1028E000220F331F441F551F8A95D1F760E074E211
:1028F00084EF90E00E948E19CA01B9012FEF30E0F9
:1029000040E050E00E942619A40193010E948E1914
:10291000C90181509F4F181619061CF4822F81504F
:1029200002C081E0821B851500F5E885F98581E00C
:1029300090E00A8802C0880F991F0A94E2F780830A
:1029400060E079E08DE390E0A40193010E948E198C
:102950002150304040405040CA01B90122E030E0EF
:1029600040E050E00E948E1904C0E885F98510828D
:102970009501EC81FD813083EE81FF812083EA8522
:10298000FB85208141E050E0CA010E8402C0880F1F
:10299000991F0A94E2F7282B2083EA85FB85208182
:1029A000CA010F8402C0880F991F0A94E2F7282BEE
:1029B0002083EA85FB858081088802C0440F551F6B
:1029C0000A94E2F7842B8083DF91CF911F910F91BE
:1029D000FF90EF90DF90CF90BF90AF909F908F903F
:1029E0007F906F905F900895FC01A085B18521894B
:1029F0008C9190E0022E02C0959587950A94E2F79B
:102A000080FFF6CF0484F585E02D608308958EE283
:102A100091E0909395048093940480E194E09093E6
:102A200097048093960485EC90E0909399048093AA
:102A3000980484EC90E090939B0480939A0480EC3B
:102A400090E090939D0480939C0481EC90E090939F
:102A50009F0480939E0486EC90E09093A104809361
:102A6000A00484E08093A20483E08093A30487E021
:102A70008093A40485E08093A50481E08093A6045C
:102A800008950F931F93CF93DF938C01EB0109C03F
:102A90002196D801ED91FC910190F081E02DC801C3
:102AA000099568816623A1F7DF91CF911F910F915E
:102AB0000895EF92FF920F931F93CF93DF938C01B2
:102AC0007B01EA010CC0D7016D917D01D801ED9128
:102AD000FC910190F081E02DC80109952197209784
:102AE00091F7DF91CF911F910F91FF90EF90089593
:102AF000DC01ED91FC910190F081E02D09950895A4
:102B0000DC01ED91FC910190F081E02D0995089593
:102B1000DC01ED91FC910280F381E02D099508958F
:102B20000F931F938C01DC01ED91FC910190F081DA
:102B3000E02D6DE00995D801ED91FC910190F081B7
:102B4000E02DC8016AE009951F910F9108950F9338
:102B50001F938C010E948815C8010E9490151F9137
:102B60000F9108952F923F924F925F926F927F92B2
:102B70008F929F92AF92BF92CF92DF92EF92FF928D
:102B80000F931F93DF93CF93CDB7DEB7A0970FB608
:102B9000F894DEBF0FBECDBF1C016A017B01411559
:102BA00051056105710549F4DC01ED91FC9101903D
:102BB000F081E02D60E3099554C0882499245401E4
:102BC000422E55246624772401E010E00C0F1D1FCF
:102BD000080D191DC701B601A30192010E946C19CD
:102BE000F80160830894811C911CA11CB11CC701D1
:102BF000B601A30192010E946C19C901DA016C01AE
:102C00007D01C114D104E104F104F1F681E0E82E64
:102C1000F12CEC0EFD1EE80CF91C3E010894611C21
:102C2000711CD501C4010197A109B1096C01C81833
:102C3000D90814C0F601EE0DFF1D60816A3010F452
:102C4000605D01C0695CD101ED91FC910190F08162
:102C5000E02DC10109950894E108F1086E147F0484
:102C600049F7A0960FB6F894DEBF0FBECDBFCF9147
:102C7000DF911F910F91FF90EF90DF90CF90BF9069
:102C8000AF909F908F907F906F905F904F903F900C
:102C90002F9008952AE00E94B2150895EF92FF92B6
:102CA0000F931F93CF93DF93EC017A018B0177FF92
:102CB0000FC0E881F9810190F081E02D6DE2099566
:102CC00010950095F094E094E11CF11C011D111D7C
:102CD000CE01B801A7012AE00E94B215DF91CF9181
:102CE0001F910F91FF90EF9008959F92AF92BF9226
:102CF000CF92DF92EF92FF920F931F93CF93DF93C8
:102D0000EC017A018B01922ECB01BA0120E030E078
:102D100040E050E00E947017882364F4E881F98154
:102D20000190F081E02DCE016DE2099517FB109521
:102D300017F9109520E030E040E05FE3AA240BC0D3
:102D4000CA01B90120E030E040E251E40E9474176A
:102D50009B01AC01A394A91498F3C801B7010E9488
:102D60000C175B016C010E94E1177B018C01CE0105
:102D7000B801A7010E944A16992029F0CE0164E209
:102D800071E00E948815C801B7010E940D189B01CF
:102D9000AC01C601B5010E940B1720C020E030E055
:102DA00040E251E40E94C3187B018C010E94DC17B1
:102DB0005B016C01CC24B7FCC094DC2CCE01B601C5
:102DC000A5010E944E16C601B5010E940F189B0175
:102DD000AC01C801B7010E940B179A949920F1F633
:102DE000DF91CF911F910F91FF90EF90DF90CF90E7
:102DF000BF90AF909F90089522E00E9475160895AD
:102E00000F931F938C010E94FC16C8010E9490151D
:102E10001F910F9108955058BB27AA270ED075C156
:102E200066D130F06BD120F031F49F3F11F41EF4E5
:102E30005BC10EF4E095E7FB51C1E92F77D180F338
:102E4000BA17620773078407950718F071F49EF5A7
:102E50008FC10EF4E0950B2EBA2FA02D0B01B901F6
:102E600090010C01CA01A0011124FF27591B99F000
:102E7000593F50F4503E68F11A16F040A22F232F0C
:102E8000342F4427585FF3CF469537952795A7955C
:102E9000F0405395C9F77EF41F16BA0B620B730B03
:102EA000840BBAF09150A1F0FF0FBB1F661F771F74
:102EB000881FC2F70EC0BA0F621F731F841F48F429
:102EC000879577956795B795F7959E3F08F0B3CFAF
:102ED0009395880F08F09927EE0F97958795089599
:102EE000D9D008F481E008950CD00FC107D140F08B
:102EF000FED030F021F45F3F19F0F0C0511139C11C
:102F0000F3C014D198F39923C9F35523B1F3951B5A
:102F1000550BBB27AA2762177307840738F09F5FFA
:102F20005F4F220F331F441FAA1FA9F333D00E2E69
:102F30003AF0E0E830D091505040E695001CCAF7D6
:102F400029D0FE2F27D0660F771F881FBB1F26179B
:102F500037074807AB07B0E809F0BB0B802DBF016E
:102F6000FF2793585F4F2AF09E3F510568F0B6C087
:102F700000C15F3FECF3983EDCF38695779567954B
:102F8000B795F7959F5FC9F7880F911D969587951F
:102F900097F90895E1E0660F771F881FBB1F62173E
:102FA00073078407BA0720F0621B730B840BBA0BFC
:102FB000EE1F88F7E095089504D06894B111D9C048
:102FC0000895BCD088F09F5790F0B92F9927B7513A
:102FD000A0F0D1F0660F771F881F991F1AF0BA95DD
:102FE000C9F712C0B13081F0C3D0B1E00895C0C0BC
:102FF000672F782F8827B85F39F0B93FCCF38695D3
:1030000077956795B395D9F73EF49095809570952F
:1030100061957F4F8F4F9F4F0895E89409C097FBAC
:103020003EF490958095709561957F4F8F4F9F4F9F
:103030009923A9F0F92F96E9BB279395F6958795E3
:1030400077956795B795F111F8CFFAF4BB0F11F4A6
:1030500060FF1BC06F5F7F4F8F4F9F4F16C088234D
:1030600011F096E911C0772321F09EE8872F762F83
:1030700005C0662371F096E8862F70E060E02AF0C4
:103080009A95660F771F881FDAF7880F96958795B0
:1030900097F90895990F0008550FAA0BE0E8FEEF85
:1030A00016161706E807F907C0F012161306E4070C
:1030B000F50798F0621B730B840B950B39F40A2605
:1030C00061F0232B242B252B21F408950A2609F4E3
:1030D000A140A6958FEF811D811D089597F99F67E7
:1030E00080E870E060E008959FEF80EC0895002490
:1030F0000A941616170618060906089500240A945D
:1031000012161306140605060895092E0394000CE2
:1031100011F4882352F0BB0F40F4BF2B11F460FF71
:1031200004C06F5F7F4F8F4F9F4F089557FD90589A
:10313000440F551F59F05F3F71F04795880F97FB7B
:10314000991F61F09F3F79F0879508951216130635
:103150001406551FF2CF4695F1DF08C01616170664
:103160001806991FF1CF8695710561050894089599
:10317000E894BB2766277727CB0197F908958ADF64
:1031800008F48FEF08950BD0C0CFB1DF28F0B6DF81
:1031900018F0952309F0A2CFA7CF1124EACFC6DFFC
:1031A000A0F3959FD1F3950F50E0551F629FF0015A
:1031B000729FBB27F00DB11D639FAA27F00DB11DB3
:1031C000AA1F649F6627B00DA11D661F829F22273C
:1031D000B00DA11D621F739FB00DA11D621F839FC3
:1031E000A00D611D221F749F3327A00D611D231F99
:1031F000849F600D211D822F762F6A2F11249F57E7
:1032000050408AF0E1F088234AF0EE0FFF1FBB1F09
:10321000661F771F881F91505040A9F79E3F5105A8
:1032200070F05CCFA6CF5F3FECF3983EDCF3869561
:1032300077956795B795F795E7959F5FC1F7FE2B53
:10324000880F911D9695879597F90895629FD001F3
:10325000739FF001829FE00DF11D649FE00DF11D51
:10326000929FF00D839FF00D749FF00D659FF00D00
:103270009927729FB00DE11DF91F639FB00DE11DED
:10328000F91FBD01CF0111240895AA1BBB1B51E1F9
:1032900007C0AA1FBB1FA617B70710F0A61BB70BC6
:1032A000881F991F5A95A9F780959095BC01CD016B
:1032B000089597FB092E07260AD077FD04D0E5DF95
:1032C00006D000201AF4709561957F4F0895F6F7A7
:1032D000909581959F4F0895A1E21A2EAA1BBB1BC2
:1032E000FD010DC0AA1FBB1FEE1FFF1FA217B307D2
:1032F000E407F50720F0A21BB30BE40BF50B661FE8
:10330000771F881F991F1A9469F7609570958095AB
:1033100090959B01AC01BD01CF01089597FB092E4B
:1033200005260ED057FD04D0D7DF0AD0001C38F494
:1033300050954095309521953F4F4F4F5F4F0895E1
:10334000F6F790958095709561957F4F8F4F9F4FC1
:103350000895EE0FFF1F0590F491E02D0994F89465
:02336000FFCF9D
:1033620052494646005741564500666D7420006139
:103372007665726167653A200057617665207465EB
:10338200737421002E00FFFF0D0000000000F414F2
:043392004115591573
:00000001FF
