:100000000C9462000C948A000C948A000C948A0070
:100010000C948A000C948A000C948A000C948A0038
:100020000C948A000C948A000C948A000C948A0028
:100030000C948A000C948A000C948A000C948A0018
:100040000C9494010C948A000C9491020C948A00F4
:100050000C948A000C948A000C948A000C948A00F8
:100060000C948A000C948A000000000024002700F1
:100070002A0000000000250028002B0000000000DE
:1000800023002600290004040404040404040202DA
:100090000202020203030303030301020408102007
:1000A0004080010204081020010204081020000012
:1000B0000007000201000003040600000000000029
:1000C0000000DA0311241FBECFEFD8E0DEBFCDBFA2
:1000D00011E0A0E0B1E0EEE8FBE002C005900D9277
:1000E000AC34B107D9F711E0ACE4B1E001C01D9226
:1000F000A43FB107E1F710E0C4ECD0E004C02297C0
:10010000FE010E94C105C23CD107C9F70E948D01C2
:100110000C94C5050C940000EF92FF920F931F936F
:10012000CF93DF9380914C0190914D0118161906E1
:100130001CF0C0E0D0E045C0EE24FF2487012CC0B5
:100140008091040161E00E94440280914C019091F1
:100150004D0162E070E00E945B05CB010E94DC0172
:100160008091040160E00E94440280914C019091D2
:100170004D0162E070E00E945B05CB010E94DC0152
:1001800080914C0190914D01AA2797FDA095BA2F1F
:10019000E80EF91E0A1F1B1F80915001909151011A
:1001A000A0915201B0915301E816F9060A071B0706
:1001B0003CF20EC080915001909151010E94DC01EF
:1001C00021968091400190914101C817D90794F37D
:1001D000DF91CF911F910F91FF90EF900895EF92D3
:1001E000FF920F931F93CF93DF9388E0E82E81E077
:1001F000F82E00E211E0C0E0D0E06CC0F701808191
:10020000918190934D0180934C01F801608171813F
:1002100070934F0160934E01882777FD8095982F4A
:1002200020913A0130913B0140913C0150913D01B8
:100230000E943C05609350017093510180935201DC
:10024000909353010E948C0080913E0190913F0158
:100250000E94DC018091060190910701892B99F1A0
:1002600081EE91E0BE010E94340581EE91E060E0F4
:1002700071E00E944B0460914E0170914F0181EE3C
:1002800091E00E94340581EE91E062E071E00E940D
:100290004B0460914C0170914D0181EE91E00E9400
:1002A000340581EE91E062E071E00E944B044091E0
:1002B000500150915101609152017091530181EEB2
:1002C00091E00E942905219682E090E0E80EF91E57
:1002D0000E5F1F4F8091380190913901C817D907DF
:1002E0000CF48CCFDF91CF911F910F91FF90EF9085
:1002F00008958091040161E00E942402809106012A
:1003000090910701892B41F081EE91E040E855E2A0
:1003100060E070E00E94CE0208950E94EA010E940F
:1003200079010E94EF00FDCF1F920F920FB60F923E
:1003300011242F933F938F939F93AF93BF938091FB
:10034000580190915901A0915A01B0915B013091EF
:100350005C010196A11DB11D232F2D5F2D3720F0CB
:100360002D570196A11DB11D20935C01809358016A
:1003700090935901A0935A01B0935B01809154016D
:1003800090915501A0915601B09157010196A11D80
:10039000B11D8093540190935501A0935601B093E1
:1003A0005701BF91AF919F918F913F912F910F90E6
:1003B0000FBE0F901F901895019759F0FC01EE0F9A
:1003C000FF1FEE0FFF1F32978FB7F8943197F1F7A9
:1003D0008FBF0895789484B5826084BD84B58160B0
:1003E00084BD85B5826085BD85B5816085BDEEE63D
:1003F000F0E0808181608083E1E8F0E080818260CC
:100400008083808181608083E0E8F0E0808181608A
:100410008083E1EBF0E0808184608083E0EBF0E0BA
:10042000808181608083EAE7F0E08081846080835E
:100430008081826080838081816080838081806808
:1004400080831092C1000895282F30E0C90186569C
:100450009F4FFC0194912A573F4FF90184918823C3
:1004600091F0E82FF0E0EE0FFF1FE859FF4FA59144
:10047000B491662329F48C91909589238C930895E7
:100480008C91892B8C930895482F50E0CA01825596
:100490009F4FFC012491CA0186569F4FFC01949105
:1004A0004A575F4FFA0134913323D1F1222331F1BE
:1004B000233021F4809180008F7705C0243031F4FF
:1004C000809180008F7D8093800018C0213019F4C6
:1004D00084B58F7704C0223021F484B58F7D84BD2C
:1004E0000DC0263021F48091B0008F7705C02730F1
:1004F00029F48091B0008F7D8093B000E32FF0E06D
:10050000EE0FFF1FEE58FF4FA591B491662329F41B
:100510008C91909589238C9308958C91892B8C9341
:1005200008951F920F920FB60F9211242F933F93AD
:100530004F935F936F937F938F939F93AF93BF93EB
:10054000EF93FF934091C600E091DD01F091DE0151
:10055000CF01019660E870E00E945B059C018091EC
:10056000DF019091E0012817390739F0E35AFE4F77
:1005700040833093DE012093DD01FF91EF91BF9125
:10058000AF919F918F917F916F915F914F913F912B
:100590002F910F900FBE0F901F9018955F926F9242
:1005A0007F928F929F92AF92BF92CF92DF92EF9203
:1005B000FF920F931F93CF93DF93EC013A014B010E
:1005C000413482E458078FE0680780E078070CF038
:1005D0007FC060E874E88EE190E0A40193010E947E
:1005E00090052150304040405040CA01B90122E0FE
:1005F00030E040E050E00E94900559016A01A601F8
:100600009501209530954095509594E0220F331F29
:10061000441F551F9A95D1F760E074E284EF90E093
:100620000E949005CA01B9012FEF30E040E050E090
:100630000E943C05A40193010E949005C9018150CC
:100640009F4F181619061CF4522E5A9403C05524B5
:100650005394521A60E079E08DE390E0A401930195
:100660000E9490052150304040405040CA01B901DD
:1006700022E030E040E050E00E9490052095309567
:100680004095509583E0220F331F441F551F8A95D4
:10069000D1F760E074E284EF90E00E949005CA0117
:1006A000B9012FEF30E040E050E00E943C05A4018A
:1006B00093010E949005C90181509F4F1816190699
:1006C0001CF4822F815002C081E0821B851500F549
:1006D000E885F98581E090E00A8802C0880F991FBB
:1006E0000A94E2F7808360E079E08DE390E0A40172
:1006F00093010E9490052150304040405040CA0173
:10070000B90122E030E040E050E00E94900504C0D2
:10071000E885F98510829501EC81FD813083EE81B9
:10072000FF812083EA85FB85208141E050E0CA01FA
:100730000E8402C0880F991F0A94E2F7282B2083A9
:10074000EA85FB852081CA010F8402C0880F991FAA
:100750000A94E2F7282B2083EA85FB8580810888AC
:1007600002C0440F551F0A94E2F7842B8083DF9167
:10077000CF911F910F91FF90EF90DF90CF90BF909E
:10078000AF909F908F907F906F905F900895FC0145
:10079000A085B18521898C9190E0022E02C09595AB
:1007A00087950A94E2F780FFF6CF0484F585E02D63
:1007B0006083089586E491E09093E2018093E101E3
:1007C0008DE591E09093E4018093E30185EC90E066
:1007D0009093E6018093E50184EC90E09093E8012A
:1007E0008093E70180EC90E09093EA018093E90127
:1007F00081EC90E09093EC018093EB0186EC90E02B
:100800009093EE018093ED0184E08093EF0183E00B
:100810008093F00187E08093F10185E08093F201FD
:1008200081E08093F30108950F931F93CF93DF939B
:100830008C01EB0109C02196D801ED91FC9101904A
:10084000F081E02DC801099568816623A1F7DF9149
:10085000CF911F910F910895EF92FF920F931F93E5
:10086000CF93DF938C017B01EA010CC0D7016D911E
:100870007D01D801ED91FC910190F081E02DC8013E
:1008800009952197209791F7DF91CF911F910F91B3
:10089000FF90EF900895DC01ED91FC910280F381CF
:1008A000E02D099508950F931F938C01DC01ED91C4
:1008B000FC910190F081E02D6DE00995D801ED915A
:1008C000FC910190F081E02DC8016AE009951F912B
:1008D0000F9108952F923F924F925F926F927F9265
:1008E0008F929F92AF92BF92CF92DF92EF92FF9240
:1008F0000F931F93DF93CF93CDB7DEB7A0970FB6BB
:10090000F894DEBF0FBECDBF1C016A017B0141150B
:1009100051056105710549F4DC01ED91FC910190EF
:10092000F081E02D60E3099554C088249924540196
:10093000422E55246624772401E010E00C0F1D1F81
:10094000080D191DC701B601A30192010E946E0591
:10095000F80160830894811C911CA11CB11CC70183
:10096000B601A30192010E946E05C901DA016C0172
:100970007D01C114D104E104F104F1F681E0E82E17
:10098000F12CEC0EFD1EE80CF91C3E010894611CD4
:10099000711CD501C4010197A109B1096C01C818E6
:1009A000D90814C0F601EE0DFF1D60816A3010F405
:1009B000605D01C0695CD101ED91FC910190F08115
:1009C000E02DC10109950894E108F1086E147F0437
:1009D00049F7A0960FB6F894DEBF0FBECDBFCF91FA
:1009E000DF911F910F91FF90EF90DF90CF90BF901C
:1009F000AF909F908F907F906F905F904F903F90BF
:100A00002F900895EF92FF920F931F93CF93DF9350
:100A1000EC017A018B0177FF0FC0E881F981019029
:100A2000F081E02D6DE2099510950095F094E09429
:100A3000E11CF11C011D111DCE01B801A7012AE026
:100A40000E946A04DF91CF911F910F91FF90EF9068
:100A500008950F931F938C010E940205C8010E9404
:100A600053041F910F910895AB01662757FD6095C0
:100A7000762F0E9402050895629FD001739FF001B6
:100A8000829FE00DF11D649FE00DF11D929FF00D1E
:100A9000839FF00D749FF00D659FF00D9927729F55
:100AA000B00DE11DF91F639FB00DE11DF91FBD01E0
:100AB000CF011124089597FB092E07260AD077FD50
:100AC00004D049D006D000201AF4709561957F4F6C
:100AD0000895F6F7909581959F4F0895A1E21A2EFB
:100AE000AA1BBB1BFD010DC0AA1FBB1FEE1FFF1FD2
:100AF000A217B307E407F50720F0A21BB30BE40B22
:100B0000F50B661F771F881F991F1A9469F7609568
:100B10007095809590959B01AC01BD01CF01089522
:100B200097FB092E05260ED057FD04D0D7DF0AD03B
:100B3000001C38F450954095309521953F4F4F4F0C
:100B40005F4F0895F6F790958095709561957F4F6A
:100B50008F4F9F4F0895AA1BBB1B51E107C0AA1FCF
:100B6000BB1FA617B70710F0A61BB70B881F991F4E
:100B70005A95A9F780959095BC01CD010895EE0F87
:0E0B8000FF1F0590F491E02D0994F894FFCF2B
:100B8E003A002000090001007807EC07F609780703
:100B9E00EC07DE0B00007807F60EF609E008780782
:100BAE0010001000100008000800100020001000B7
:100BBE0010001000080008000C0010270000E803C9
:0C0BCE00640000000000C70314042C04A5
:00000001FF
