:100000000C9462000C948A000C948A000C948A0070
:100010000C948A000C948A000C948A000C948A0038
:100020000C948A000C948A000C948A000C948A0028
:100030000C948A000C948A000C948A000C948A0018
:100040000C9457010C948A000C9470020C948A0052
:100050000C948A000C948A000C948A000C948A00F8
:100060000C948A000C948A000000000024002700F1
:100070002A0000000000250028002B0000000000DE
:1000800023002600290004040404040404040202DA
:100090000202020203030303030301020408102007
:1000A0004080010204081020010204081020000012
:1000B0000007000201000003040600000000000029
:1000C0000000F50311241FBECFEFD8E0DEBFCDBF87
:1000D00011E0A0E0B1E0E2EFF9E002C005900D927E
:1000E000AE33B107D9F711E0AEE3B1E001C01D9224
:1000F000A83EB107E1F710E0C4ECD0E004C02297BD
:10010000FE010E94F304C23CD107C9F70E945001CE
:100110000C94F7040C94000085ED91E00E94BA0362
:100120009C019093330180933201C0970A9768F441
:100130008091440190914501FC01E25CFE4F2083D7
:100140000196909345018093440108958091460162
:10015000909147010196909347018093460185ED68
:1001600091E00E94A603882339F084E061E00E94B8
:1001700023020E948C0004C084E060E00E942302FD
:10018000809146019091470168EC72E30E948D04D2
:10019000892BA1F485E061E00E94230285ED91E0C6
:1001A00060E071E00E94660485ED91E062E071E03C
:1001B0000E94660485E060E00E942302089585EDB8
:1001C00091E064E071E00E94660485ED91E00E9498
:1001D000A6038823D1F385ED91E00E94BA038D3008
:1001E000A1F785ED91E068E071E00E94660485ED7D
:1001F00091E069E171E00E94660485ED91E063E2BF
:1002000071E00E94660485ED91E06CE271E00E946D
:10021000660408950F931F93CF93DF938C01C0E082
:10022000D0E015C085E061E00E94230268EC70E038
:1002300080E090E00E949F0185E060E00E94230240
:1002400068EC70E080E090E00E949F012196C0176A
:10025000D10744F3DF91CF911F910F91089585ED60
:1002600091E040E855E260E070E00E94AD0285E078
:1002700061E00E94030284E061E00E9403028DE0DD
:1002800061E00E94030268EE73E080E090E00E946B
:100290009F010E94DF0083E090E00E940A01089520
:1002A0000E94C9010E942F010E94A600FDCF1F924B
:1002B0000F920FB60F9211242F933F938F939F931A
:1002C000AF93BF9380914C0190914D01A0914E014D
:1002D000B0914F01309150010196A11DB11D232F06
:1002E0002D5F2D3720F02D570196A11DB11D2093B4
:1002F000500180934C0190934D01A0934E01B09317
:100300004F018091480190914901A0914A01B0911B
:100310004B010196A11DB11D8093480190934901A5
:10032000A0934A01B0934B01BF91AF919F918F91E0
:100330003F912F910F900FBE0F901F901895EF9245
:10034000FF920F931F937B018C018FB7F89440911C
:100350004C0150914D0160914E0170914F018FBF42
:100360002FB7F89480914C0190914D01A0914E01CE
:10037000B0914F012FBF841B950BA60BB70BE8164E
:10038000F9060A071B0760F71F910F91FF90EF9086
:100390000895789484B5826084BD84B5816084BDFD
:1003A00085B5826085BD85B5816085BDEEE6F0E0EE
:1003B000808181608083E1E8F0E0808182608083D9
:1003C000808181608083E0E8F0E0808181608083CB
:1003D000E1EBF0E0808184608083E0EBF0E08081FD
:1003E00081608083EAE7F0E080818460808380819F
:1003F0008260808380818160808380818068808347
:100400001092C1000895282F30E0C90186569F4FF1
:10041000FC0194912A573F4FF9018491882391F070
:10042000E82FF0E0EE0FFF1FE859FF4FA591B491C0
:10043000662329F48C91909589238C9308958C914F
:10044000892B8C930895482F50E0CA0182559F4F05
:10045000FC012491CA0186569F4FFC0194914A5792
:100460005F4FFA0134913323D1F1222331F123304C
:1004700021F4809180008F7705C0243031F4809181
:1004800080008F7D8093800018C0213019F484B5DE
:100490008F7704C0223021F484B58F7D84BD0DC0D8
:1004A000263021F48091B0008F7705C0273029F4E1
:1004B0008091B0008F7D8093B000E32FF0E0EE0FCD
:1004C000FF1FEE58FF4FA591B491662329F48C913C
:1004D000909589238C9308958C91892B8C93089502
:1004E0001F920F920FB60F9211242F933F934F93A9
:1004F0005F936F937F938F939F93AF93BF93EF938C
:10050000FF934091C600E091D101F091D201CF015B
:10051000019660E870E00E948D049C018091D301F7
:100520009091D4012817390739F0EF5AFE4F4083D4
:100530003093D2012093D101FF91EF91BF91AF9100
:100540009F918F917F916F915F914F913F912F91EB
:100550000F900FBE0F901F9018955F926F927F9231
:100560008F929F92AF92BF92CF92DF92EF92FF92C3
:100570000F931F93CF93DF93EC013A014B0141346A
:1005800082E458078FE0680780E078070CF07FC0AE
:1005900060E874E88EE190E0A40193010E94C20437
:1005A0002150304040405040CA01B90122E030E0C3
:1005B00040E050E00E94C20459016A01A601950181
:1005C000209530954095509594E0220F331F441F9D
:1005D000551F9A95D1F760E074E284EF90E00E9495
:1005E000C204CA01B9012FEF30E040E050E00E94A0
:1005F0006E04A40193010E94C204C90181509F4F5F
:10060000181619061CF4522E5A9403C055245394FC
:10061000521A60E079E08DE390E0A40193010E941A
:10062000C2042150304040405040CA01B90122E08C
:1006300030E040E050E00E94C204209530954095A3
:10064000509583E0220F331F441F551F8A95D1F721
:1006500060E074E284EF90E00E94C204CA01B90134
:100660002FEF30E040E050E00E946E04A4019301BF
:100670000E94C204C90181509F4F181619061CF42C
:10068000822F815002C081E0821B851500F5E8852C
:10069000F98581E090E00A8802C0880F991F0A94CA
:1006A000E2F7808360E079E08DE390E0A4019301BC
:1006B0000E94C2042150304040405040CA01B9015C
:1006C00022E030E040E050E00E94C20404C0E8852F
:1006D000F98510829501EC81FD813083EE81FF81E7
:1006E0002083EA85FB85208141E050E0CA010E8429
:1006F00002C0880F991F0A94E2F7282B2083EA850D
:10070000FB852081CA010F8402C0880F991F0A94BB
:10071000E2F7282B2083EA85FB858081088802C0C8
:10072000440F551F0A94E2F7842B8083DF91CF9109
:100730001F910F91FF90EF90DF90CF90BF90AF90FF
:100740009F908F907F906F905F900895DC0112963C
:10075000ED91FC911397E058FF4F81919191805852
:100760009F4F20813181821B930B60E870E00E94D3
:100770008D040895CF93DF93DC011296ED91FC91E7
:100780001397EF01CE57DF4F48815981E058FF4F53
:1007900080819181E058F0408417950719F42FEF7C
:1007A0003FEF0CC0E40FF51F2081CA01019660E8FD
:1007B00070E00E948D049983888330E0C901DF9145
:1007C000CF910895FC01A085B18521898C9190E09D
:1007D000022E02C0959587950A94E2F780FFF6CF26
:1007E0000484F585E02D6083089588E391E090937B
:1007F000D6018093D50181E591E09093D801809353
:10080000D70185EC90E09093DA018093D90184ECD4
:1008100090E09093DC018093DB0180EC90E090937A
:10082000DE018093DD0181EC90E09093E001809304
:10083000DF0186EC90E09093E2018093E10184E097
:100840008093E30183E08093E40187E08093E501F6
:1008500085E08093E60181E08093E70108950F939E
:100860001F93CF93DF938C01EB0109C02196D80130
:10087000ED91FC910190F081E02DC801099568810E
:100880006623A1F7DF91CF911F910F910895EF9209
:10089000FF920F931F93CF93DF938C017B01EA01AB
:1008A0000CC0D7016D917D01D801ED91FC910190B3
:1008B000F081E02DC80109952197209791F7DF91EC
:1008C000CF911F910F91FF90EF900895DC01ED9172
:1008D000FC910280F381E02D09950895629FD0017B
:1008E000739FF001829FE00DF11D649FE00DF11DEB
:1008F000929FF00D839FF00D749FF00D659FF00D9A
:100900009927729FB00DE11DF91F639FB00DE11D86
:10091000F91FBD01CF011124089597FB092E072669
:100920000AD077FD04D049D006D000201AF4709583
:1009300061957F4F0895F6F7909581959F4F0895A3
:10094000A1E21A2EAA1BBB1BFD010DC0AA1FBB1FD3
:10095000EE1FFF1FA217B307E407F50720F0A21B45
:10096000B30BE40BF50B661F771F881F991F1A94B2
:1009700069F760957095809590959B01AC01BD01DC
:10098000CF01089597FB092E05260ED057FD04D000
:10099000D7DF0AD0001C38F450954095309521954A
:1009A0003F4F4F4F5F4F0895F6F7909580957095A4
:1009B00061957F4F8F4F9F4F0895AA1BBB1B51E13D
:1009C00007C0AA1FBB1FA617B70710F0A61BB70BBF
:1009D000881F991F5A95A9F780959095BC01CD0164
:1009E0000895EE0FFF1F0590F491E02D0994F894FF
:0209F000FFCF37
:1009F20036000D002B2B2B0041544448302C204153
:100A020054444C313233340D0041544D5931323358
:100A1200340D00415449443131310D004154434EAB
:0E0A22000D00FFFF00000000E2032F04470458
:00000001FF
