:100000000C9403010C942E010C942E010C942E01DF
:100010000C942E010C942E010C942E010C942E01A4
:100020000C942E010C942E010C942E010C942E0194
:100030000C942E010C942E010C942E010C942E0184
:100040000C942E010C942E010C942E010C942E0174
:100050000C942E010C942E010C942E010C94D601BC
:100060000C942E010C94F9020C942E010C942E0188
:100070000C942E010C942E010C942E010C942E0144
:100080000C942E010C942E010C942E010C942E0134
:100090000C943A030C942E010C942E010C942E0116
:1000A0000C942E010C942E010C942E010C942E0114
:1000B0000C942E010C942E010C942E010C942E0104
:1000C0000C942E010C942E010C942E010C947B03A5
:1000D0000C942E010C942E010C94BC030C942E0154
:1000E0000C942E0100002100240027002A002D007E
:1000F0003000330001010000040107010A01000083
:100100002200250028002B002E00310034000201BF
:100110000000050108010B0100002000230026005B
:1001200029002C002F00320000010000030106010D
:10013000090105050505070508080808020202026D
:100140000A0A080804040404010101010101010173
:100150000303030303030303040707070C0C0C0C3E
:100160000C0C0C0C02020202060606060606060627
:100170000B0B0B0B0B0B0B0B0102102020080810B4
:100180002040102040800201020108040201010207
:1001900004081020408080402010080402018004E0
:1001A000020180402010080402010804020101023B
:1001B0000408102040800102040810204080000044
:1001C000090A02080B0C0D070603040100000000D9
:1001D000000000000000000000000000000000001F
:1001E00000000000000000000000100F0E000000E2
:1001F00000000000000000000000000000000000FF
:1002000000000000090511241FBECFEFD1E2DEBFC0
:10021000CDBF12E0A0E0B2E0EEEDFEE000E00BBFEB
:1002200002C007900D92AC31B107D9F71BBE14E0A4
:10023000ACE1B2E001C01D92AB38B107E1F712E0CA
:10024000C6E0D2E004C02297FE010E946907C430D4
:10025000D107C9F70E94CF010C946D070C940000E0
:10026000809100020E94A90290931D0280931C02BB
:10027000809102020E94A90290931F0280931E02A5
:10028000809104020E94A90290932102809320028F
:10029000809106020E94A902909323028093220279
:1002A00080910C020E94A90290932502809324025F
:1002B00068EE73E080E090E00E941E0208950F93C4
:1002C0001F9381E061E00E94D90282E161E00E9417
:1002D000D90280E161E00E94D9028EE061E00E94D3
:1002E000D9028091000260E00E94D902809102024E
:1002F00060E00E94D9028091040260E00E94D9026D
:100300008091060260E00E94D9028091080260E0BC
:100310000E94D90280910A0260E00E94D902809175
:100320000C0260E00E94D90280910E0260E00E94FF
:10033000D9020FE314E0C80140E052EC61E070E044
:100340000E94FD0382E594E040E052EC61E070E041
:100350000E94FD0385E694E040E052EC61E070E02D
:100360000E94FD0388E794E040E052EC61E070E019
:100370000E94FD03C8014CE750E060E070E020E01F
:1003800030E00E94CF06C80144E050E060E070E039
:1003900020E030E00E94CF061F910F9108950E9447
:1003A00048020E945F010E943001FDCF1F920F9210
:1003B0000FB60F9211242F933F938F939F93AF9378
:1003C000BF9380912A0290912B02A0912C02B091B0
:1003D0002D0230912E020196A11DB11D232F2D5FFC
:1003E0002D3720F02D570196A11DB11D20932E020F
:1003F00080932A0290932B02A0932C02B0932D029B
:100400008091260290912702A0912802B0912902A2
:100410000196A11DB11D8093260290932702A093FF
:100420002802B0932902BF91AF919F918F913F9184
:100430002F910F900FBE0F901F901895EF92FF9283
:100440000F931F937B018C018FB7F89440912A0280
:1004500050912B0260912C0270912D028FBF2FB70B
:10046000F89480912A0290912B02A0912C02B091D5
:100470002D022FBF841B950BA60BB70BE816F906B0
:100480000A071B0760F71F910F91FF90EF900895E7
:10049000789484B5826084BD84B5816084BD85B55F
:1004A000826085BD85B5816085BDEEE6F0E0808126
:1004B00081608083E1E8F0E08081826080838081D8
:1004C00081608083E0E8F0E0808181608083E1EBFF
:1004D000F0E0808184608083E0EBF0E080818160E7
:1004E0008083E1E9F0E080818260808380818160A7
:1004F0008083E1EAF0E08081826080838081816096
:100500008083E1E2F1E0808182608083808181608C
:100510008083E0E9F0E0808181608083E0EAF0E0C0
:10052000808181608083E0E2F1E08081816080836E
:10053000EAE7F0E08081846080838081826080834C
:100540008081816080838081806880831092C10077
:100550000895382F3F70209110022295220F220F0C
:10056000207C232B20937C0020917B008695869510
:10057000869590E08170907033E0880F991F3A95CE
:10058000E1F7277F282B20937B0080917A008064FD
:1005900080937A0080917A0086FDFCCF20917800CC
:1005A00040917900942F80E030E0282B392BC9014D
:1005B0000895282F30E0C90188589E4FFC0194917E
:1005C0002E5C3E4FF9018491882391F0E82FF0E0F2
:1005D000EE0FFF1FEC51FF4FA591B491662329F454
:1005E0008C91909589238C9308958C91892B8C9371
:1005F00008951F920F920FB60F920BB60F9211240F
:100600002F933F934F935F936F937F938F939F931A
:10061000AF93BF93EF93FF934091C600E091AF0279
:10062000F091B002CF01019660E870E00E940307EC
:100630009C018091B1029091B2022817390739F0DC
:10064000E15DFD4F40833093B0022093AF02FF91F4
:10065000EF91BF91AF919F918F917F916F915F913A
:100660004F913F912F910F900BBE0F900FBE0F90A7
:100670001F9018951F920F920FB60F920BB60F9204
:1006800011242F933F934F935F936F937F938F9397
:100690009F93AF93BF93EF93FF934091CE00E09170
:1006A0003303F0913403CF01019660E870E00E94BB
:1006B00003079C0180913503909136032817390771
:1006C00039F0ED54FD4F40833093340320933303CE
:1006D000FF91EF91BF91AF919F918F917F916F911A
:1006E0005F914F913F912F910F900BBE0F900FBED6
:1006F0000F901F9018951F920F920FB60F920BB686
:100700000F9211242F933F934F935F936F937F9397
:100710008F939F93AF93BF93EF93FF934091D60036
:10072000E091B703F091B803CF01019660E870E063
:100730000E9403079C018091B9039091BA03281786
:10074000390739F0E95CFC4F40833093B8032093BC
:10075000B703FF91EF91BF91AF919F918F917F91DF
:100760006F915F914F913F912F910F900BBE0F9022
:100770000FBE0F901F9018951F920F920FB60F92F9
:100780000BB60F9211242F933F934F935F936F9368
:100790007F938F939F93AF93BF93EF93FF9340917A
:1007A0003601E0913B04F0913C04CF01019660E8F2
:1007B00070E00E9403079C0180913D0490913E04EB
:1007C0002817390739F0E554FC4F408330933C0437
:1007D00020933B04FF91EF91BF91AF919F918F9137
:1007E0007F916F915F914F913F912F910F900BBE31
:1007F0000F900FBE0F901F9018955F926F927F928F
:100800008F929F92AF92BF92CF92DF92EF92FF9220
:100810000F931F93CF93DF93EC013A014B014134C7
:1008200082E458078FE0680780E078070CF07FC00B
:1008300060E874E88EE190E0A40193010E9438071B
:100840002150304040405040CA01B90122E030E020
:1008500040E050E00E94380759016A01A601950165
:10086000209530954095509594E0220F331F441FFA
:10087000551F9A95D1F760E074E284EF90E00E94F2
:100880003807CA01B9012FEF30E040E050E00E9484
:10089000E406A40193010E943807C90181509F4FCB
:1008A000181619061CF4522E5A9403C0552453945A
:1008B000521A60E079E08DE390E0A40193010E9478
:1008C00038072150304040405040CA01B90122E071
:1008D00030E040E050E00E94380720953095409588
:1008E000509583E0220F331F441F551F8A95D1F77F
:1008F00060E074E284EF90E00E943807CA01B90119
:100900002FEF30E040E050E00E94E406A4019301A4
:100910000E943807C90181509F4F181619061CF410
:10092000822F815002C081E0821B851500F5E88589
:10093000F98581E090E00A8802C0880F991F0A9427
:10094000E2F7808360E079E08DE390E0A401930119
:100950000E9438072150304040405040CA01B90140
:1009600022E030E040E050E00E94380704C0E88513
:10097000F98510829501EC81FD813083EE81FF8144
:100980002083EA85FB85208141E050E0CA010E8486
:1009900002C0880F991F0A94E2F7282B2083EA856A
:1009A000FB852081CA010F8402C0880F991F0A9419
:1009B000E2F7282B2083EA85FB858081088802C026
:1009C000440F551F0A94E2F7842B8083DF91CF9167
:1009D0001F910F91FF90EF90DF90CF90BF90AF905D
:1009E0009F908F907F906F905F900895FC01A085FD
:1009F000B18521898C9190E0022E02C09595879552
:100A00000A94E2F780FFF6CF0484F585E02D608339
:100A1000089525E132E03093400420933F048FE2B3
:100A200092E0909342048093410485EC90E090938F
:100A300044048093430484EC90E0909346048093B4
:100A4000450480EC90E0909348048093470481EC47
:100A500090E090934A048093490486EC90E0909350
:100A60004C0480934B04E4E0E0934D0473E07093F6
:100A70004E0467E060934F0455E05093500441E00A
:100A800040935104309353042093520483EB92E03B
:100A900090935504809354048DEC90E09093570408
:100AA000809356048CEC90E0909359048093580402
:100AB00088EC90E090935B0480935A0489EC90E07A
:100AC00090935D0480935C048EEC90E090935F04BF
:100AD00080935E04E0936004709361046093620409
:100AE0005093630440936404309366042093650438
:100AF00087E393E0909368048093670485ED90E02A
:100B000090936A048093690484ED90E090936C0460
:100B100080936B0480ED90E090936E0480936D045D
:100B200081ED90E09093700480936F0486ED90E0E7
:100B30009093720480937104E0937304709374042F
:100B4000609375045093760440937704309379044E
:100B5000209378048BEB93E090937B0480937A044A
:100B600085E391E090937D0480937C0484E391E09D
:100B700090937F0480937E0480E391E090938104BE
:100B80008093800481E391E09093830480938204B6
:100B900086E391E09093850480938404E093860437
:100BA00070938704609388045093890440938A0467
:100BB00008950F931F93CF93DF938C01EB0109C02E
:100BC0002196D801ED91FC910190F081E02DC801B2
:100BD000099568816623A1F7DF91CF911F910F914D
:100BE0000895EF92FF920F931F93CF93DF938C01A1
:100BF0007B01EA010CC0D7016D917D01D801ED9117
:100C0000FC910190F081E02DC80109952197209772
:100C100091F7DF91CF911F910F91FF90EF90089581
:100C20002F923F924F925F926F927F928F929F92FC
:100C3000AF92BF92CF92DF92EF92FF920F931F93EA
:100C4000DF93CF93CDB7DEB7A0970FB6F894DEBF92
:100C50000FBECDBF1C016A017B0141155105610525
:100C6000710549F4DC01ED91FC910190F081E02DDA
:100C700060E3099554C0882499245401422E5524D8
:100C80006624772401E010E00C0F1D1F080D191DCC
:100C9000C701B601A30192010E941607F801608303
:100CA0000894811C911CA11CB11CC701B601A301B1
:100CB00092010E941607C901DA016C017D01C1147D
:100CC000D104E104F104F1F681E0E82EF12CEC0E00
:100CD000FD1EE80CF91C3E010894611C711CD50135
:100CE000C4010197A109B1096C01C818D90814C041
:100CF000F601EE0DFF1D60816A3010F4605D01C0E9
:100D0000695CD101ED91FC910190F081E02DC10170
:100D100009950894E108F1086E147F0449F7A0963C
:100D20000FB6F894DEBF0FBECDBFCF91DF911F91FC
:100D30000F91FF90EF90DF90CF90BF90AF909F907A
:100D40008F907F906F905F904F903F902F9008957D
:100D5000EF92FF920F931F93CF93DF93EC017A01F1
:100D60008B0177FF0FC0E881F9810190F081E02DC0
:100D70006DE2099510950095F094E094E11CF11C4A
:100D8000011D111DCE01B801A7012AE00E94100625
:100D9000DF91CF911F910F91FF90EF900895DC01AB
:100DA0002115310541F4ED91FC910190F081E02D88
:100DB000642F099508952A30310519F40E94A80678
:100DC00008950E9410060895629FD001739FF0015C
:100DD000829FE00DF11D649FE00DF11D929FF00DCB
:100DE000839FF00D749FF00D659FF00D9927729F02
:100DF000B00DE11DF91F639FB00DE11DF91FBD018D
:100E0000CF011124089597FB092E07260AD077FDFC
:100E100004D049D006D000201AF4709561957F4F18
:100E20000895F6F7909581959F4F0895A1E21A2EA7
:100E3000AA1BBB1BFD010DC0AA1FBB1FEE1FFF1F7E
:100E4000A217B307E407F50720F0A21BB30BE40BCE
:100E5000F50B661F771F881F991F1A9469F7609515
:100E60007095809590959B01AC01BD01CF010895CF
:100E700097FB092E05260ED057FD04D0D7DF0AD0E8
:100E8000001C38F450954095309521953F4F4F4FB9
:100E90005F4F0895F6F790958095709561957F4F17
:100EA0008F4F9F4F0895AA1BBB1B51E107C0AA1F7C
:100EB000BB1FA617B70710F0A61BB70B881F991FFB
:100EC0005A95A9F780959095BC01CD010895EE0F34
:0E0ED000FF1F0590F491E02D0994F894FFCFD8
:100EDE000B000A00090008000700060005000400C8
:0C0EEE000100000000F604D905F1050029
:00000001FF
