:100000000C94AB000C94D3000C94D3000C942C01F2
:100010000C9456010C9480010C94D3000C94D300E2
:100020000C94D3000C94D3000C94D3000C94D30004
:100030000C94D3000C94D3000C94D3000C94D300F4
:100040000C9406040C94D3000C941F050C94D3005C
:100050000C94D3000C94D3000C94D3000C94D300D4
:100060000C94D3000C94D30000C2010001001100D5
:1000700011000D0000E100000A002500250022000B
:10008000009600001900390039003600127A00008D
:100090001F004600460044008070000022004D0012
:1000A0004D004A00004B00003600750075007200DC
:1000B000403800004A009C009C0099008025000008
:1000C0007200EC00EC00E900C0120000E900DA0167
:1000D000DA01D70160090000D701B603B603B30304
:1000E000B0040000B3036E076E076B072C0100001D
:1000F000DC0EC11DC11DBE1D000000002400270034
:100100002A0000000000250028002B00000000004D
:100110002300260029000404040404040404020249
:100120000202020203030303030301020408102076
:100130004080010204081020010204081020000081
:100140000007000201000003040600000000000098
:100150000000B203A40611241FBECFEFD8E0DEBF1B
:10016000CDBF11E0A0E0B1E0E4EAFFE002C00590FD
:100170000D92A233B107D9F712E0A2E3B1E001C0BA
:100180001D92A832B107E1F711E0C6E5D1E004C045
:100190002297FE010E94CC07C235D107C9F70E9401
:1001A000FF030C94D0070C9400001F93CF93DF93B0
:1001B000FC01A481B5812C917381272309F048C0EB
:1001C0008185928501972FEF8F3F9207D9F7C385DD
:1001D000D48560E031E040E050E010E0CE01212F16
:1001E00001972FEF8F3F9207D9F78C91872311F05A
:1001F000632B03C0832F80956823330F4F5F5F4FBE
:100200004830510559F78585968520E001972FEFF5
:100210008F3F9207D9F7809174012091750190E08A
:1002200001968F73907030E08217930779F0E09118
:100230007401F0E0EC5CFE4F60838091740190E00B
:1002400001968F7390708093740102C081E0818B5E
:10025000DF91CF911F9108951F920F920FB60F92C9
:1002600011242F933F934F935F936F937F938F93BB
:100270009F93AF93BF93EF93FF938091320190913F
:100280003301009711F00E94D500FF91EF91BF91CB
:10029000AF919F918F917F916F915F914F913F911E
:1002A0002F910F900FBE0F901F9018951F920F92D5
:1002B0000FB60F9211242F933F934F935F936F9339
:1002C0007F938F939F93AF93BF93EF93FF9380910F
:1002D000320190913301009711F00E94D500FF91F7
:1002E000EF91BF91AF919F918F917F916F915F91AE
:1002F0004F913F912F910F900FBE0F901F90189527
:100300001F920F920FB60F9211242F933F934F938A
:100310005F936F937F938F939F93AF93BF93EF936D
:10032000FF938091320190913301009711F00E9468
:10033000D500FF91EF91BF91AF919F918F917F91E8
:100340006F915F914F913F912F910F900FBE0F9042
:100350001F901895CF92DF92EF92FF920F931F9309
:10036000CF93DF93EC017A018B01188A1F861E86DA
:100370001D861C861B861A86198620E030E06901DE
:10038000CC0CDD1CC20ED31EB601660F771F660FA4
:10039000771FAB0148595F4FFA0185919591A5915F
:1003A000B4918E159F05A007B107E9F4FB01E4594C
:1003B000FF4F859194919A878987FB01E259FF4FFE
:1003C000859194919C878B87FB01E059FF4F859124
:1003D00094919E878D87FB01EE58FF4F85919491F4
:1003E000988B8F8706C02F5F3F4F2C30310509F067
:1003F000C6CF8D859E85892B09F44CC03A81383053
:1004000090F48091680084608093680020916D0072
:1004100081E090E002C0880F991F3A95E2F7282BFF
:1004200020936D002FC03E30B0F480916800816051
:100430008093680040916B00232F30E028503040BB
:1004400081E090E002C0880F991F2A95E2F7482BBF
:1004500040936B0017C03631A8F480916800826029
:100460008093680040916C00232F30E02E50304084
:1004700081E090E002C0880F991F2A95E2F7482B8F
:1004800040936C008F85988920E001972FEF8F3F74
:100490009207D9F780913201909133018C179D0713
:1004A00071F0198A9FB7F8941092740180917401C9
:1004B00080937501D0933301C09332019FBFDF91C8
:1004C000CF911F910F91FF90EF90DF90CF90089503
:1004D000FC0180913201909133018E179F0779F0D2
:1004E000118A9FB7F89410927401809174018093DF
:1004F0007501F0933301E09332019FBF06C09091E4
:10050000750180917401981719F42FEF3FEF0FC018
:10051000E0917501F0E0EC5CFE4F20818091750167
:1005200090E001968F7390708093750130E0C9015F
:100530000895FC0180913201909133018E179F073D
:1005400081F0118A9FB7F894109274018091740120
:1005500080937501F0933301E09332019FBF80E0F7
:100560000895809174012091750190E0805C9F4F07
:10057000821B910960E470E00E94660708950F9362
:100580001F93DC011F968D919C915097892B09F444
:100590006EC080913201909133018A179B0781F0E0
:1005A00051961C9251979FB7F894109274018091C4
:1005B000740180937501B0933301A09332019FBF02
:1005C0001FB7F8941796ED91FC91189790811696A5
:1005D0008C9116978095892380831F968D919C918D
:1005E0005097059620E001972FEF8F3F9207D9F79C
:1005F00031E040E050E070E000E0832F90E086239F
:1006000097231796ED91FC91189716962C911697B3
:10061000892B21F08081822B808304C080812095EA
:10062000282320831F968D919C915097202F01970E
:100630002FEF8F3F9207D9F7330F4F5F5F4F48304F
:100640005105D9F61796ED91FC9118978081169671
:100650009C911697892B80831FBF1F968D919C912B
:10066000509720E001972FEF8F3F9207D9F71F9106
:100670000F910895FF920F931F938C01F62E862FF2
:1006800060E00E94B2048F2D61E00E94D204D80184
:100690001296FC9212978F2D90E0FC01E65DFE4FC2
:1006A000E4911396EC9313978A5E9E4FFC0164913C
:1006B000E62FF0E0EE0FFF1FE45FFE4F859194916F
:1006C00015969C938E9314971F910F91FF90089508
:1006D000FF920F931F938C01F62E862F61E00E94EC
:1006E000B2048F2D61E00E94D2048F2D90E0FC01B6
:1006F000E65DFE4FE491D8011696EC9316978A5E5C
:100700009E4FFC016491E62FF0E0EE0FFF1FEE5FBD
:10071000FE4F8591949118969C938E9317971F91F5
:100720000F91FF900895FF920F931F938C01F62E67
:1007300082E291E0F801918380831286118614860B
:10074000138616861586108A1786118AC801642FAB
:100750000E946803C8016F2D0E943A031F910F91F8
:10076000FF90089586E791E062E043E00E949303E2
:10077000089586E791E00E949902882349F086E770
:1007800091E00E946802682F85E192E00E941507BF
:1007900085E192E00E945506882349F085E192E0C8
:1007A0000E946906682F86E791E00E94150764E6BB
:1007B00070E080E090E00E944E0408950F931F9334
:1007C00005E112E0C80140E855E260E070E00E94F7
:1007D0005C05C80160E071E00E943C0706E711E09B
:1007E000C80140E855E260E070E00E94AA01C8013B
:1007F00060E171E00E943C071F910F9108950E94F3
:1008000078040E94DE030E94B903FDCF1F920F926D
:100810000FB60F9211242F933F938F939F93AF9313
:10082000BF9380918C0190918D01A0918E01B09128
:100830008F01309190010196A11DB11D232F2D5FD5
:100840002D3720F02D570196A11DB11D2093900149
:1008500080938C0190938D01A0938E01B0938F01B2
:100860008091880190918901A0918A01B0918B01BA
:100870000196A11DB11D8093880190938901A093D9
:100880008A01B0938B01BF91AF919F918F913F915E
:100890002F910F900FBE0F901F901895EF92FF921F
:1008A0000F931F937B018C018FB7F89440918C01BB
:1008B00050918D0160918E0170918F018FBF2FB784
:1008C000F89480918C0190918D01A0918E01B0914E
:1008D0008F012FBF841B950BA60BB70BE816F906EB
:1008E0000A071B0760F71F910F91FF90EF90089583
:1008F000789484B5826084BD84B5816084BD85B5FB
:10090000826085BD85B5816085BDEEE6F0E08081C1
:1009100081608083E1E8F0E0808182608083808173
:1009200081608083E0E8F0E0808181608083E1EB9A
:10093000F0E0808184608083E0EBF0E08081816082
:100940008083EAE7F0E08081846080838081826038
:100950008083808181608083808180688083109221
:10096000C1000895282F30E0C901865D9E4FFC012B
:1009700094912A5E3E4FF9018491882391F0E82FEB
:10098000F0E0EE0FFF1FE850FF4FA591B4916623F2
:1009900029F48C91909589238C9308958C91892BBF
:1009A0008C930895482F50E0CA01825C9E4FFC0151
:1009B0002491CA01865D9E4FFC0194914A5E5E4F70
:1009C000FA0134913323D1F1222331F1233021F480
:1009D000809180008F7705C0243031F480918000B1
:1009E0008F7D8093800018C0213019F484B58F77F3
:1009F00004C0223021F484B58F7D84BD0DC0263023
:100A000021F48091B0008F7705C0273029F48091C0
:100A1000B0008F7D8093B000E32FF0E0EE0FFF1F5A
:100A2000EE5FFE4FA591B491662329F48C919095C9
:100A300089238C9308958C91892B8C9308951F9210
:100A40000F920FB60F9211242F933F934F935F9302
:100A50006F937F938F939F93AF93BF93EF93FF9386
:100A60004091C600E0911102F0911202CF0101966F
:100A700060E870E00E9466079C01809113029091EB
:100A800014022817390739F0EF56FE4F4083309390
:100A9000120220931102FF91EF91BF91AF919F91AC
:100AA0008F917F916F915F914F913F912F910F9017
:100AB0000FBE0F901F9018955F926F927F928F924A
:100AC0009F92AF92BF92CF92DF92EF92FF920F93DD
:100AD0001F93CF93DF93EC013A014B01413482E441
:100AE00058078FE0680780E078070CF07FC060E867
:100AF00074E88EE190E0A40193010E949B072150CD
:100B0000304040405040CA01B90122E030E040E0AE
:100B100050E00E949B0759016A01A60195012095AA
:100B200030954095509594E0220F331F441F551F78
:100B30009A95D1F760E074E284EF90E00E949B0701
:100B4000CA01B9012FEF30E040E050E00E944707B2
:100B5000A40193010E949B07C90181509F4F181661
:100B600019061CF4522E5A9403C055245394521A59
:100B700060E079E08DE390E0A40193010E949B077F
:100B80002150304040405040CA01B90122E030E0DD
:100B900040E050E00E949B0720953095409550958D
:100BA00083E0220F331F441F551F8A95D1F760E061
:100BB00074E284EF90E00E949B07CA01B9012FEF15
:100BC00030E040E050E00E944707A40193010E94FA
:100BD0009B07C90181509F4F181619061CF4822FDC
:100BE000815002C081E0821B851500F5E885F985FA
:100BF00081E090E00A8802C0880F991F0A94E2F70A
:100C0000808360E079E08DE390E0A40193010E948D
:100C10009B072150304040405040CA01B90122E0BA
:100C200030E040E050E00E949B0704C0E885F98571
:100C300010829501EC81FD813083EE81FF8120835C
:100C4000EA85FB85208141E050E0CA010E8402C0A4
:100C5000880F991F0A94E2F7282B2083EA85FB85E9
:100C60002081CA010F8402C0880F991F0A94E2F7FD
:100C7000282B2083EA85FB858081088802C0440FE9
:100C8000551F0A94E2F7842B8083DF91CF911F9147
:100C90000F91FF90EF90DF90CF90BF90AF909F901B
:100CA0008F907F906F905F900895DC011296ED9188
:100CB000FC911397E058FF4F8191919180589F4F7D
:100CC00020813181821B930B60E870E00E946607EF
:100CD0000895CF93DF93DC011296ED91FC91139769
:100CE000EF01CE57DF4F48815981E058FF4F808197
:100CF0009181E058F0408417950719F42FEF3FEFEA
:100D00000CC0E40FF51F2081CA01019660E870E075
:100D10000E9466079983888330E0C901DF91CF91F3
:100D20000895FC01A085B18521898C9190E0022E67
:100D300002C0959587950A94E2F780FFF6CF048468
:100D4000F585E02D608308958CE291E09093160282
:100D50008093150281E991E0909318028093170225
:100D600085EC90E090931A028093190284EC90E055
:100D700090931C0280931B0280EC90E090931E02E3
:100D800080931D0281EC90E09093200280931F02DB
:100D900086EC90E0909322028093210284E080937D
:100DA000230283E08093240287E08093250285E07C
:100DB0008093260281E08093270208950F931F936A
:100DC000CF93DF938C01EB0109C02196D801ED91FF
:100DD000FC910190F081E02DC8010995688166239E
:100DE000A1F7DF91CF911F910F910895EF92FF929C
:100DF0000F931F93CF93DF938C017B01EA010CC00B
:100E0000D7016D917D01D801ED91FC910190F081A8
:100E1000E02DC80109952197209791F7DF91CF9197
:100E20001F910F91FF90EF900895DC01ED91FC91DF
:100E30000190F081E02D09950895DC01ED91FC9180
:100E40000280F381E02D099508950F931F938C0183
:100E5000DC01ED91FC910190F081E02D6DE00995B0
:100E6000D801ED91FC910190F081E02DC8016AE07C
:100E700009951F910F9108950F931F938C010E9464
:100E80001D07C8010E9425071F910F910895629FB9
:100E9000D001739FF001829FE00DF11D649FE00D72
:100EA000F11D929FF00D839FF00D749FF00D659FD3
:100EB000F00D9927729FB00DE11DF91F639FB00DD2
:100EC000E11DF91FBD01CF011124089597FB092EE3
:100ED00007260AD077FD04D049D006D000201AF4A6
:100EE000709561957F4F0895F6F7909581959F4F86
:100EF0000895A1E21A2EAA1BBB1BFD010DC0AA1F5B
:100F0000BB1FEE1FFF1FA217B307E407F50720F072
:100F1000A21BB30BE40BF50B661F771F881F991FED
:100F20001A9469F760957095809590959B01AC0136
:100F3000BD01CF01089597FB092E05260ED057FD60
:100F400004D0D7DF0AD0001C38F450954095309576
:100F500021953F4F4F4F5F4F0895F6F7909580953D
:100F6000709561957F4F8F4F9F4F0895AA1BBB1BB4
:100F700051E107C0AA1FBB1FA617B70710F0A61B99
:100F8000B70B881F991F5A95A9F780959095BC01BA
:100F9000CD010895EE0FFF1F0590F491E02D099407
:040FA000F894FFCFF3
:100FA400476F6F646E69676874206D6F6F6E2100A0
:100FB40048656C6C6F2C20776F726C643F00000086
:100FC4000000BF02DE06F606000000009106DE0601
:020FD400F6061F
:00000001FF
