:100000000C9462000C948A000C948A000C948A0070
:100010000C948A000C948A000C948A000C948A0038
:100020000C948A000C948A000C948A000C948A0028
:100030000C948A000C948A000C948A000C948A0018
:100040000C944C070C948A000C942B090C948A0095
:100050000C948A000C948A000C948A000C948A00F8
:100060000C948A000C948A000000000024002700F1
:100070002A0000000000250028002B0000000000DE
:1000800023002600290004040404040404040202DA
:100090000202020203030303030301020408102007
:1000A0004080010204081020010204081020000012
:1000B0000007000201000003040600000000000029
:1000C0000000740A11241FBECFEFD8E0DEBFCDBF01
:1000D00011E0A0E0B1E0E4E7F9E102C005900D9283
:1000E000A83AB107D9F712E0A8EAB1E001C01D9221
:1000F000A536B107E1F710E0C4ECD0E004C02297C8
:10010000FE010E94B40CC23CD107C9F70E9445070A
:100110000C94B80C0C9400008091980160E070E0A1
:100120000E9416081092AA011092AF011092B40119
:100130001092B9011092C1011092C0011092BF013A
:100140001092BE011092C3011092C2011092C4011C
:1001500082E592E060E071E00E94040B08958091D6
:10016000AA01882341F52091AB013091AC01809127
:10017000AD019091AE01281B390B37FF03C03095BC
:1001800021953F4F80919601909197018217930797
:1001900094F481E08093AA018091C2019091C301FF
:1001A00001969093C3018093C20182E592E066E0DC
:1001B00071E00E94040B8091AF01882341F52091EA
:1001C000B0013091B1018091B2019091B301281B2F
:1001D000390B37FF03C0309521953F4F8091960131
:1001E000909197018217930794F481E08093AF0177
:1001F0008091C2019091C30101969093C3018093B5
:10020000C20182E592E060E171E00E94040B8091FE
:10021000B401882341F52091B5013091B601809158
:10022000B7019091B801281B390B37FF03C03095F7
:1002300021953F4F809196019091970182179307E6
:1002400094F481E08093B4018091C2019091C30144
:1002500001969093C3018093C20182E592E06AE126
:1002600071E00E94040B8091B901882341F520912F
:10027000BA013091BB018091BC019091BD01281B56
:10028000390B37FF03C0309521953F4F8091960180
:10029000909197018217930794F481E08093B901BC
:1002A0008091C2019091C30101969093C301809304
:1002B000C20182E592E064E271E00E94040B0895BD
:1002C0008091C2019091C3011816190674F56091CE
:1002D000C0017091C1016E3171055CF0809198018F
:1002E0000E94160864E170E080E090E00E949407AC
:1002F00008958091C401882349F0809198016FEF9F
:1003000070E00E9416081092C40109C08091980103
:1003100060E070E00E94160881E08093C40168EC00
:1003200070E080E090E00E94940708956F927F92C1
:100330008F929F92AF92BF92CF92DF92EF92FF92F5
:100340000F931F931092BF011092BE018091AD01D7
:100350009091AE019093AC018093AB018091A80184
:100360000E94F80700D000D064E070E00E944E0CBC
:10037000882777FD8095982FBFEF6B2E712C812CED
:10038000912CEDB7FEB7618272828382948226E45B
:1003900030E040E050E0A4EBEA2EF12C012D112DCD
:1003A000AA24BB2465010E94E60B0F900F900F90CA
:1003B0000F9097FF03C060E070E055C08091A801E6
:1003C0000E94F80700D000D064E070E00E944E0C5C
:1003D000882777FD8095982FEDB7FEB761827282EE
:1003E0008382948226E430E040E050E0F4EBEF2E8C
:1003F000F12C012D112DAA24BB2465010E94E60BCE
:100400000F900F900F900F906F3F71058105910530
:1004100021F01CF06FEF70E026C08091A8010E94CF
:10042000F80700D000D064E070E00E944E0C8827EE
:1004300077FD8095982FEDB7FEB761827282838237
:10044000948226E430E040E050E0E4EBEE2EF12C24
:10045000012D112DAA24BB2465010E94E60B0F90EB
:100460000F900F900F907093AE016093AD0180914B
:10047000B2019091B3019093B1018093B00180914A
:1004800090010E94F80700D000D064E070E00E9464
:100490004E0C882777FD8095982F0FEF602E712CDA
:1004A000812C912CEDB7FEB7618272828382948297
:1004B00026E430E040E050E014EBE12EF12C012D79
:1004C000112DAA24BB2465010E94E60B0F900F900A
:1004D0000F900F9097FF03C060E070E055C08091CF
:1004E00090010E94F80700D000D064E070E00E9404
:1004F0004E0C882777FD8095982FEDB7FEB7618267
:1005000072828382948226E430E040E050E0B4EBD3
:10051000EB2EF12C012D112DAA24BB2465010E9484
:10052000E60B0F900F900F900F906F3F71058105B4
:10053000910521F01CF06FEF70E026C080919001D2
:100540000E94F80700D000D064E070E00E944E0CDA
:10055000882777FD8095982FEDB7FEB7618272826C
:100560008382948226E430E040E050E0A4EBEA2E5F
:10057000F12C012D112DAA24BB2465010E94E60B4C
:100580000F900F900F900F907093B3016093B20192
:100590008091B7019091B8019093B6018093B50115
:1005A000809192010E94F80700D000D064E070E0D2
:1005B0000E944E0C882777FD8095982FFFEF6F2EB5
:1005C000712C812C912CEDB7FEB7618272828382EF
:1005D000948226E430E040E050E0E4EBEE2EF12C93
:1005E000012D112DAA24BB2465010E94E60B0F905A
:1005F0000F900F900F9097FF03C060E070E055C020
:10060000809192010E94F80700D000D064E070E071
:100610000E944E0C882777FD8095982FEDB7FEB786
:10062000618272828382948226E430E040E050E06E
:1006300004EBE02EF12C012D112DAA24BB24650121
:100640000E94E60B0F900F900F900F906F3F710577
:100650008105910521F01CF06FEF70E026C08091BC
:1006600092010E94F80700D000D064E070E00E9480
:100670004E0C882777FD8095982FEDB7FEB76182E5
:1006800072828382948226E430E040E050E014EBF2
:10069000E12EF12C012D112DAA24BB2465010E940D
:1006A000E60B0F900F900F900F907093B80160932E
:1006B000B7018091BC019091BD019093BB018093E3
:1006C000BA01809194010E94F80700D000D064E044
:1006D00070E00E944E0C882777FD8095982FBFEF21
:1006E0006B2E712C812C912CEDB7FEB7618272823A
:1006F0008382948226E430E040E050E0A4EBEA2ECE
:10070000F12C012D112DAA24BB2465010E94E60BBA
:100710000F900F900F900F9097FF03C060E070E074
:1007200055C0809194010E94F80700D000D064E089
:1007300070E00E944E0C882777FD8095982FEDB7CA
:10074000FEB7618272828382948226E430E040E0C8
:1007500050E0F4EBEF2EF12C012D112DAA24BB2437
:1007600065010E94E60B0F900F900F900F906F3F66
:1007700071058105910521F01CF06FEF70E026C036
:10078000809194010E94F80700D000D064E070E0EE
:100790000E944E0C882777FD8095982FEDB7FEB705
:1007A000618272828382948226E430E040E050E0ED
:1007B000E4EBEE2EF12C012D112DAA24BB246501B2
:1007C0000E94E60B0F900F900F900F907093BD0159
:1007D0006093BC018091AA018823E1F08091BE0161
:1007E0009091BF012091AD013091AE01820F931F16
:1007F0009093BF018093BE0182E592E06EE271E0CA
:100800000E94E50A6091AD017091AE0182E592E02F
:100810000E94CE0B8091AF018823E1F08091BE0150
:100820009091BF012091B2013091B301820F931FCB
:100830009093BF018093BE0182E592E066E371E090
:100840000E94E50A6091B2017091B30182E592E0E5
:100850000E94CE0B8091B4018823E1F08091BE010B
:100860009091BF012091B7013091B801820F931F81
:100870009093BF018093BE0182E592E06FE371E047
:100880000E94E50A6091B7017091B80182E592E09B
:100890000E94CE0B8091B9018823E1F08091BE01C6
:1008A0009091BF012091BC013091BD01820F931F37
:1008B0009093BF018093BE0182E592E068E471E00D
:1008C0000E94E50A6091BC017091BD0182E592E051
:1008D0000E94CE0B6091C2017091C30116161706DB
:1008E000C4F48091BE019091BF010E944E0C7093A0
:1008F000C1016093C00182E592E061E571E00E9470
:10090000E50A6091C0017091C10182E592E00E9408
:10091000D60B1F910F91FF90EF90DF90CF90BF907B
:10092000AF909F908F907F906F90089580919A01E3
:100930000E94DC08892B19F40E948C0006C00E94DA
:10094000AF000E9496010E94600164E670E080E0C2
:1009500090E00E94940708956F927F928F929F92E9
:10096000AF92BF92CF92DF92EF92FF920F931F93BD
:1009700082E592E040E855E260E070E00E9468099C
:100980008091980161E00E946F0880919A0160E077
:100990000E946F080E948C008091A8010E94F807B5
:1009A00000D000D064E070E00E944E0C882777FDF4
:1009B0008095982FFFEF6F2E712C812C912CEDB725
:1009C000FEB7618272828382948226E430E040E046
:1009D00050E0E4EBEE2EF12C012D112DAA24BB24C6
:1009E00065010E94E60B0F900F900F900F9097FFFC
:1009F00003C060E070E055C08091A8010E94F80734
:100A000000D000D064E070E00E944E0C882777FD93
:100A10008095982FEDB7FEB76182728283829482AF
:100A200026E430E040E050E004EBE02EF12C012D14
:100A3000112DAA24BB2465010E94E60B0F900F9094
:100A40000F900F906F3F71058105910521F01CF00B
:100A50006FEF70E026C08091A8010E94F80700D0D7
:100A600000D064E070E00E944E0C882777FD8095EE
:100A7000982FEDB7FEB7618272828382948226E45A
:100A800030E040E050E014EBE12EF12C012D112D6F
:100A9000AA24BB2465010E94E60B0F900F900F90D3
:100AA0000F907093AE016093AD017093AC016093B1
:100AB000AB0182E592E069E571E00E94E50A609190
:100AC000AD017091AE0182E592E00E94CE0B809163
:100AD00090010E94F80700D000D064E070E00E940E
:100AE0004E0C882777FD8095982FBFEF6B2E712CC9
:100AF000812C912CEDB7FEB7618272828382948241
:100B000026E430E040E050E0A4EBEA2EF12C012D89
:100B1000112DAA24BB2465010E94E60B0F900F90B3
:100B20000F900F9097FF03C060E070E055C0809178
:100B300090010E94F80700D000D064E070E00E94AD
:100B40004E0C882777FD8095982FEDB7FEB7618210
:100B500072828382948226E430E040E050E0F4EB3D
:100B6000EF2EF12C012D112DAA24BB2465010E942A
:100B7000E60B0F900F900F900F906F3F710581055E
:100B8000910521F01CF06FEF70E026C0809190017C
:100B90000E94F80700D000D064E070E00E944E0C84
:100BA000882777FD8095982FEDB7FEB76182728216
:100BB0008382948226E430E040E050E0E4EBEE2EC5
:100BC000F12C012D112DAA24BB2465010E94E60BF6
:100BD0000F900F900F900F907093B3016093B2013C
:100BE0007093B1016093B00182E592E066E671E036
:100BF0000E94E50A6091B2017091B30182E592E032
:100C00000E94CE0B809192010E94F80700D000D084
:100C100064E070E00E944E0C882777FD8095982F45
:100C20000FEF602E712C812C912CEDB7FEB76182F5
:100C300072828382948226E430E040E050E014EB3C
:100C4000E12EF12C012D112DAA24BB2465010E9457
:100C5000E60B0F900F900F900F9097FF03C060E08E
:100C600070E055C0809192010E94F80700D000D03A
:100C700064E070E00E944E0C882777FD8095982FE5
:100C8000EDB7FEB7618272828382948226E430E0FF
:100C900040E050E0B4EBEB2EF12C012D112DAA24F5
:100CA000BB2465010E94E60B0F900F900F900F90F0
:100CB0006F3F71058105910521F01CF06FEF70E029
:100CC00026C0809192010E94F80700D000D064E015
:100CD00070E00E944E0C882777FD8095982FEDB725
:100CE000FEB7618272828382948226E430E040E023
:100CF00050E0A4EBEA2EF12C012D112DAA24BB24E7
:100D000065010E94E60B0F900F900F900F9070936B
:100D1000B8016093B7017093B6016093B50182E5A5
:100D200092E064E771E00E94E50A6091B70170917A
:100D3000B80182E592E00E94CE0B809194010E945E
:100D4000F80700D000D064E070E00E944E0C8827C5
:100D500077FD8095982FFFEF6F2E712C812C912CB1
:100D6000EDB7FEB7618272828382948226E430E01E
:100D700040E050E0E4EBEE2EF12C012D112DAA24E1
:100D8000BB2465010E94E60B0F900F900F900F900F
:100D900097FF03C060E070E055C0809194010E940D
:100DA000F80700D000D064E070E00E944E0C882765
:100DB00077FD8095982FEDB7FEB7618272828382AE
:100DC000948226E430E040E050E004EBE02EF12C89
:100DD000012D112DAA24BB2465010E94E60B0F9062
:100DE0000F900F900F906F3F71058105910521F0D5
:100DF0001CF06FEF70E026C0809194010E94F8070C
:100E000000D000D064E070E00E944E0C882777FD8F
:100E10008095982FEDB7FEB76182728283829482AB
:100E200026E430E040E050E014EBE12EF12C012DFF
:100E3000112DAA24BB2465010E94E60B0F900F9090
:100E40000F900F907093BD016093BC017093BB0134
:100E50006093BA0182E592E062E871E00E94E50ADF
:100E60006091BC017091BD0182E592E00E94D60BB9
:100E70001F910F91FF90EF90DF90CF90BF90AF90B8
:100E80009F908F907F906F9008950E94BE070E9460
:100E9000AC040E949604FDCF1F920F920FB60F92E2
:100EA00011242F933F938F939F93AF93BF93809180
:100EB000C9019091CA01A091CB01B091CC013091B0
:100EC000CD010196A11DB11D232F2D5F2D3720F0DF
:100ED0002D570196A11DB11D2093CD018093C9010D
:100EE0009093CA01A093CB01B093CC018091C5012E
:100EF0009091C601A091C701B091C8010196A11DB2
:100F0000B11D8093C5019093C601A093C701B09312
:100F1000C801BF91AF919F918F913F912F910F90F9
:100F20000FBE0F901F901895EF92FF920F931F9393
:100F30007B018C018FB7F8944091C9015091CA018F
:100F40006091CB017091CC018FBF2FB7F894809145
:100F5000C9019091CA01A091CB01B091CC012FBFE2
:100F6000841B950BA60BB70BE816F9060A071B079F
:100F700060F71F910F91FF90EF900895789484B5DA
:100F8000826084BD84B5816084BD85B5826085BD85
:100F900085B5816085BDEEE6F0E08081816080836B
:100FA000E1E8F0E0808182608083808181608083DD
:100FB000E0E8F0E0808181608083E1EBF0E0808117
:100FC00084608083E0EBF0E0808181608083EAE7E9
:100FD000F0E0808184608083808182608083808172
:100FE000816080838081806880831092C100089531
:100FF0008F7090919C019295990F990F907C982BEE
:1010000090937C0080917A00806480937A00809134
:101010007A0086FDFCCF2091780040917900942FD2
:1010200080E030E0282B392BC90108951F93CF931E
:10103000DF93182FEB0161E00E946F08E12FF0E0D1
:10104000E255FF4F8491833051F480918000806895
:1010500080938000D0938900C09388003CC0843086
:1010600051F480918000806280938000D0938B0047
:10107000C0938A0030C0813039F4209729F184B5BB
:10108000806884BDC7BD27C0823039F42097E1F065
:1010900084B5806284BDC8BD1EC0863041F4809195
:1010A000B00080688093B000C093B30014C0873054
:1010B00041F48091B00080628093B000C093B4008E
:1010C0000AC0C038D1051CF4812F60E002C0812F16
:1010D00061E00E948F08DF91CF911F910895282F22
:1010E00030E0C90186569F4FFC0194912A573F4F2B
:1010F000F9018491882391F0E82FF0E0EE0FFF1FB3
:10110000E859FF4FA591B491662329F48C919095ED
:1011100089238C9308958C91892B8C930895482F63
:1011200050E0CA0182559F4FFC012491CA018656A6
:101130009F4FFC0194914A575F4FFA01349133233A
:10114000D1F1222331F1233021F4809180008F7777
:1011500005C0243031F4809180008F7D8093800021
:1011600018C0213019F484B58F7704C0223021F4DF
:1011700084B58F7D84BD0DC0263021F48091B000F0
:101180008F7705C0273029F48091B0008F7D809340
:10119000B000E32FF0E0EE0FFF1FEE58FF4FA591D8
:1011A000B491662329F48C91909589238C930895AA
:1011B0008C91892B8C930895682F70E0CB01825518
:1011C0009F4FFC012491CB0186569F4FFC01449117
:1011D0006A577F4FFB019491992319F420E030E086
:1011E00038C0222331F1233021F4809180008F77A1
:1011F00005C0243031F4809180008F7D8093800081
:1012000018C0213019F484B58F7704C0223021F43E
:1012100084B58F7D84BD0DC0263021F48091B0004F
:101220008F7705C0273029F48091B0008F7D80939F
:10123000B000892F90E0880F991F84589F4FFC01C0
:10124000A591B4918C9120E030E0842311F021E04D
:1012500030E0C90108951F920F920FB60F9211242A
:101260002F933F934F935F936F937F938F939F93AE
:10127000AF93BF93EF93FF934091C600E0914E026E
:10128000F0914F02CF01019660E870E00E944E0C91
:101290009C0180915002909151022817390739F032
:1012A000E253FE4F408330934F0220934E02FF9152
:1012B000EF91BF91AF919F918F917F916F915F91CE
:1012C0004F913F912F910F900FBE0F901F90189547
:1012D0005F926F927F928F929F92AF92BF92CF92C6
:1012E000DF92EF92FF920F931F93CF93DF93EC0166
:1012F0003A014B01413482E458078FE0680780E0EF
:1013000078070CF07FC060E874E88EE190E0A401FB
:1013100093010E94830C2150304040405040CA014C
:10132000B90122E030E040E050E00E94830C590116
:101330006A01A6019501209530954095509594E05D
:10134000220F331F441F551F9A95D1F760E074E2B6
:1013500084EF90E00E94830CCA01B9012FEF30E0C6
:1013600040E050E00E942F0CA40193010E94830CE6
:10137000C90181509F4F181619061CF4522E5A9419
:1013800003C055245394521A60E079E08DE390E055
:10139000A40193010E94830C2150304040405040F2
:1013A000CA01B90122E030E040E050E00E94830C25
:1013B000209530954095509583E0220F331F441FB0
:1013C000551F8A95D1F760E074E284EF90E00E94A7
:1013D000830CCA01B9012FEF30E040E050E00E94D9
:1013E0002F0CA40193010E94830CC90181509F4FCF
:1013F000181619061CF4822F815002C081E0821B4E
:10140000851500F5E885F98581E090E00A8802C03D
:10141000880F991F0A94E2F7808360E079E08DE3FA
:1014200090E0A40193010E94830C21503040404081
:101430005040CA01B90122E030E040E050E00E9493
:10144000830C04C0E885F98510829501EC81FD814B
:101450003083EE81FF812083EA85FB85208141E096
:1014600050E0CA010E8402C0880F991F0A94E2F767
:10147000282B2083EA85FB852081CA010F8402C0C6
:10148000880F991F0A94E2F7282B2083EA85FB85B1
:101490008081088802C0440F551F0A94E2F7842B0C
:1014A0008083DF91CF911F910F91FF90EF90DF909C
:1014B000CF90BF90AF909F908F907F906F905F90F4
:1014C0000895FC01A085B18521898C9190E0022EC0
:1014D00002C0959587950A94E2F780FFF6CF0484C1
:1014E000F585E02D6083089581EA91E090935302A1
:1014F000809352028EEC91E09093550280935402B7
:1015000085EC90E0909357028093560284EC90E033
:10151000909359028093580280EC90E090935B0284
:1015200080935A0281EC90E090935D0280935C027C
:1015300086EC90E090935F0280935E0284E080935B
:10154000600283E08093610287E08093620285E01D
:101550008093630281E08093640208950F931F9348
:10156000CF93DF938C01EB0109C02196D801ED9157
:10157000FC910190F081E02DC801099568816623F6
:10158000A1F7DF91CF911F910F910895EF92FF92F4
:101590000F931F93CF93DF938C017B01EA010CC063
:1015A000D7016D917D01D801ED91FC910190F08101
:1015B000E02DC80109952197209791F7DF91CF91F0
:1015C0001F910F91FF90EF900895DC01ED91FC9138
:1015D0000280F381E02D099508950F931F938C01EC
:1015E000DC01ED91FC910190F081E02D6DE0099519
:1015F000D801ED91FC910190F081E02DC8016AE0E5
:1016000009951F910F9108950F931F938C010E94CC
:10161000E50AC8010E94ED0A1F910F9108952F92CB
:101620003F924F925F926F927F928F929F92AF9272
:10163000BF92CF92DF92EF92FF920F931F93DF93AF
:10164000CF93CDB7DEB7A0970FB6F894DEBF0FBE2D
:10165000CDBF1C016A017B01411551056105710572
:1016600049F4DC01ED91FC910190F081E02D60E303
:10167000099554C0882499245401422E5524662487
:10168000772401E010E00C0F1D1F080D191DC70184
:10169000B601A30192010E94610CF80160830894D5
:1016A000811C911CA11CB11CC701B601A3019201B0
:1016B0000E94610CC901DA016C017D01C114D104E1
:1016C000E104F104F1F681E0E82EF12CEC0EFD1EB0
:1016D000E80CF91C3E010894611C711CD501C40181
:1016E0000197A109B1096C01C818D90814C0F60105
:1016F000EE0DFF1D60816A3010F4605D01C0695C11
:10170000D101ED91FC910190F081E02DC10109958D
:101710000894E108F1086E147F0449F7A0960FB60B
:10172000F894DEBF0FBECDBFCF91DF911F910F9117
:10173000FF90EF90DF90CF90BF90AF909F908F90F1
:101740007F906F905F904F903F902F900895EF9211
:10175000FF920F931F93CF93DF93EC017A018B01DC
:1017600077FF0FC0E881F9810190F081E02D6DE2F3
:10177000099510950095F094E094E11CF11C011D71
:10178000111DCE01B801A7012AE00E940F0BDF91C5
:10179000CF911F910F91FF90EF900895AB016627B5
:1017A00057FD6095762F0E94A70B08950F931F9306
:1017B0008C01AB01662757FD6095762F0E94A70B21
:1017C000C8010E94ED0A1F910F9108952F923F9238
:1017D0004F925F926F927F928F929F92AF92BF9241
:1017E000CF92DF92EF92FF920F931F93DF93CF93ED
:1017F000CDB7DEB73B014C0119012A016D897E8905
:101800008F89988D6A197B098C099D09621A730A60
:10181000840A950AA40193010E942F0CE218F30890
:1018200004091509A80197010E94830C2A0D3B1D8C
:101830004C1D5D1DB901CA01CF91DF911F910F9120
:10184000FF90EF90DF90CF90BF90AF909F908F90E0
:101850007F906F905F904F903F902F900895629F80
:10186000D001739FF001829FE00DF11D649FE00D98
:10187000F11D929FF00D839FF00D749FF00D659FF9
:10188000F00D9927729FB00DE11DF91F639FB00DF8
:10189000E11DF91FBD01CF011124089597FB092E09
:1018A00007260AD077FD04D049D006D000201AF4CC
:1018B000709561957F4F0895F6F7909581959F4FAC
:1018C0000895A1E21A2EAA1BBB1BFD010DC0AA1F81
:1018D000BB1FEE1FFF1FA217B307E407F50720F099
:1018E000A21BB30BE40BF50B661F771F881F991F14
:1018F0001A9469F760957095809590959B01AC015D
:10190000BD01CF01089597FB092E05260ED057FD86
:1019100004D0D7DF0AD0001C38F45095409530959C
:1019200021953F4F4F4F5F4F0895F6F79095809563
:10193000709561957F4F8F4F9F4F0895AA1BBB1BDA
:1019400051E107C0AA1FBB1FA617B70710F0A61BBF
:10195000B70B881F991F5A95A9F780959095BC01E0
:10196000CD010895EE0FFF1F0590F491E02D09942D
:04197000F894FFCF19
:10197400524553455400706F7430496E5573650079
:10198400706F7431496E55736500706F7432496EAF
:1019940055736500706F7433496E55736500504F0D
:1019A4005430203D200020504F5431203D20002051
:1019B400504F5432203D200020504F5433203D20BE
:1019C4000020415647203D2000504F54305354418D
:1019D4005254203D200020504F543153544152540E
:1019E400203D200020504F54325354415254203D46
:1019F400200020504F54335354415254203D200072
:101A040001000200040003000900040001000000BA
:081A140000610AAE0AC60A00D7
:00000001FF
