:100000000C94AB000C94D3000C94D3000C942C01F2
:100010000C9456010C9480010C94D3000C94D300E2
:100020000C94D3000C94D3000C94D3000C94D30004
:100030000C94D3000C94D3000C94D3000C94D300F4
:100040000C94A3030C94D3000C94BC040C94D30024
:100050000C94D3000C94D3000C94D3000C94D300D4
:100060000C94D3000C94D30000C2010001001100D5
:1000700011000D0000E100000A002500250022000B
:10008000009600001900390039003600127A00008D
:100090001F004600460044008070000022004D0012
:1000A0004D004A00004B00003600750075007200DC
:1000B000403800004A009C009C0099008025000008
:1000C0007200EC00EC00E900C0120000E900DA0167
:1000D000DA01D70160090000D701B603B603B30304
:1000E000B0040000B3036E076E076B072C0100001D
:1000F000DC0EC11DC11DBE1D000000002400270034
:100100002A0000000000250028002B00000000004D
:100110002300260029000404040404040404020249
:100120000202020203030303030301020408102076
:100130004080010204081020010204081020000081
:100140000007000201000003040600000000000098
:1001500000005B03410611241FBECFEFD8E0DEBFD5
:10016000CDBF11E0A0E0B1E0EAE8FEE002C00590FA
:100170000D92A431B107D9F712E0A4E1B1E001C0BA
:100180001D92AA30B107E1F711E0C6E5D1E004C045
:100190002297FE010E943F07C235D107C9F70E948E
:1001A0009C030C9443070C9400001F93CF93DF93A0
:1001B000FC01A481B5812C917381272309F048C0EB
:1001C0008185928501972FEF8F3F9207D9F7C385DD
:1001D000D48560E031E040E050E010E0CE01212F16
:1001E00001972FEF8F3F9207D9F78C91872311F05A
:1001F000632B03C0832F80956823330F4F5F5F4FBE
:100200004830510559F78585968520E001972FEFF5
:100210008F3F9207D9F7809156012091570190E0C6
:1002200001968F73907030E08217930779F0E09118
:100230005601F0E0EA5EFE4F60838091560190E047
:1002400001968F7390708093560102C081E0818B7C
:10025000DF91CF911F9108951F920F920FB60F92C9
:1002600011242F933F934F935F936F937F938F93BB
:100270009F93AF93BF93EF93FF938091140190915D
:100280001501009711F00E94D500FF91EF91BF91E9
:10029000AF919F918F917F916F915F914F913F911E
:1002A0002F910F900FBE0F901F9018951F920F92D5
:1002B0000FB60F9211242F933F934F935F936F9339
:1002C0007F938F939F93AF93BF93EF93FF9380910F
:1002D000140190911501009711F00E94D500FF9133
:1002E000EF91BF91AF919F918F917F916F915F91AE
:1002F0004F913F912F910F900FBE0F901F90189527
:100300001F920F920FB60F9211242F933F934F938A
:100310005F936F937F938F939F93AF93BF93EF936D
:10032000FF938091140190911501009711F00E94A4
:10033000D500FF91EF91BF91AF919F918F917F91E8
:100340006F915F914F913F912F910F900FBE0F9042
:100350001F901895CF92DF92EF92FF920F931F9309
:10036000CF93DF93EC017A018B01188A1F861E86DA
:100370001D861C861B861A86198620E030E06901DE
:10038000CC0CDD1CC20ED31EB601660F771F660FA4
:10039000771FAB0148595F4FFA0185919591A5915F
:1003A000B4918E159F05A007B107E9F4FB01E4594C
:1003B000FF4F859194919A878987FB01E259FF4FFE
:1003C000859194919C878B87FB01E059FF4F859124
:1003D00094919E878D87FB01EE58FF4F85919491F4
:1003E000988B8F8706C02F5F3F4F2C30310509F067
:1003F000C6CF8D859E85892B09F44CC03A81383053
:1004000090F48091680084608093680020916D0072
:1004100081E090E002C0880F991F3A95E2F7282BFF
:1004200020936D002FC03E30B0F480916800816051
:100430008093680040916B00232F30E028503040BB
:1004400081E090E002C0880F991F2A95E2F7482BBF
:1004500040936B0017C03631A8F480916800826029
:100460008093680040916C00232F30E02E50304084
:1004700081E090E002C0880F991F2A95E2F7482B8F
:1004800040936C008F85988920E001972FEF8F3F74
:100490009207D9F780911401909115018C179D074F
:1004A00071F0198A9FB7F894109256018091560105
:1004B00080935701D0931501C09314019FBFDF9122
:1004C000CF911F910F91FF90EF90DF90CF90089503
:1004D0000F931F93DC011F968D919C915097892B50
:1004E00009F46EC080911401909115018A179B0741
:1004F00081F051961C9251979FB7F8941092560133
:100500008091560180935701B0931501A093140177
:100510009FBF1FB7F8941796ED91FC9118979081A3
:1005200016968C9116978095892380831F968D91BE
:100530009C915097059620E001972FEF8F3F9207EF
:10054000D9F731E040E050E070E000E0832F90E028
:10055000862397231796ED91FC91189716962C9168
:100560001697892B21F08081822B808304C08081A3
:100570002095282320831F968D919C915097202FA2
:1005800001972FEF8F3F9207D9F7330F4F5F5F4FE0
:1005900048305105D9F61796ED91FC911897808156
:1005A00016969C911697892B80831FBF1F968D915D
:1005B0009C91509720E001972FEF8F3F9207D9F73A
:1005C0001F910F910895FF920F931F938C01F62EA8
:1005D000862F60E00E944F048F2D61E00E946F041F
:1005E000D8011296FC9212978F2D90E0FC01E65DE7
:1005F000FE4FE4911396EC9313978A5E9E4FFC0195
:100600006491E62FF0E0EE0FFF1FE45FFE4F85914F
:10061000949115969C938E9314971F910F91FF9030
:100620000895FF920F931F938C01F62E862F61E0A1
:100630000E944F048F2D61E00E946F048F2D90E087
:10064000FC01E65DFE4FE491D8011696EC931697F7
:100650008A5E9E4FFC016491E62FF0E0EE0FFF1FD3
:10066000EE5FFE4F8591949118969C938E93179709
:100670001F910F91FF900895FF920F931F938C018C
:10068000F62E84E091E0F801918380831286118632
:100690001486138616861586108A1786118AC80155
:1006A000642F0E941103C8016F2D0E94E3021F9165
:1006B0000F91FF90089588E591E060E041E00E948D
:1006C0003C0308951F9387EF91E00E94F205882371
:1006D000D1F087EF91E00E940606182F88E591E09F
:1006E000612F0E94B206183371F48DE061E00E9420
:1006F0006F0464E170E080E090E00E94EB038DE025
:1007000060E00E946F0464E670E080E090E00E9488
:10071000EB031F91089587EF91E040E855E260E018
:1007200070E00E94F90488E591E040E855E260E05D
:1007300070E00E94AA0108950E9415040E948B0394
:100740000E946203FDCF1F920F920FB60F921124E9
:100750002F933F938F939F93AF93BF9380916E019D
:1007600090916F01A0917001B0917101309172016F
:100770000196A11DB11D232F2D5F2D3720F02D5780
:100780000196A11DB11D2093720180936E0190937B
:100790006F01A0937001B093710180916A019091F3
:1007A0006B01A0916C01B0916D010196A11DB11D6D
:1007B00080936A0190936B01A0936C01B0936D01DB
:1007C000BF91AF919F918F913F912F910F900FBE4D
:1007D0000F901F901895EF92FF920F931F937B013C
:1007E0008C018FB7F89440916E0150916F01609128
:1007F0007001709171018FBF2FB7F89480916E01D5
:1008000090916F01A0917001B09171012FBF841B75
:10081000950BA60BB70BE816F9060A071B0760F73E
:100820001F910F91FF90EF900895789484B58260A6
:1008300084BD84B5816084BD85B5826085BD85B584
:10084000816085BDEEE6F0E0808181608083E1E833
:10085000F0E0808182608083808181608083E0E835
:10086000F0E0808181608083E1EBF0E08081846052
:100870008083E0EBF0E0808181608083EAE7F0E054
:1008800080818460808380818260808380818160B8
:1008900080838081806880831092C1000895282F12
:1008A00030E0C901865D9E4FFC0194912A5E3E4F67
:1008B000F9018491882391F0E82FF0E0EE0FFF1FFB
:1008C000E850FF4FA591B491662329F48C9190953F
:1008D00089238C9308958C91892B8C930895482FAC
:1008E00050E0CA01825C9E4FFC012491CA01865DE2
:1008F0009E4FFC0194914A5E5E4FFA01349133237E
:10090000D1F1222331F1233021F4809180008F77BF
:1009100005C0243031F4809180008F7D8093800069
:1009200018C0213019F484B58F7704C0223021F427
:1009300084B58F7D84BD0DC0263021F48091B00038
:100940008F7705C0273029F48091B0008F7D809388
:10095000B000E32FF0E0EE0FFF1FEE5FFE4FA5911A
:10096000B491662329F48C91909589238C930895F2
:100970008C91892B8C9308951F920F920FB60F9232
:1009800011242F933F934F935F936F937F938F9394
:100990009F93AF93BF93EF93FF934091C600E09175
:1009A000F301F091F401CF01019660E870E00E943C
:1009B000D9069C018091F5019091F601281739071D
:1009C00039F0ED58FE4F40833093F4012093F3014A
:1009D000FF91EF91BF91AF919F918F917F916F9117
:1009E0005F914F913F912F910F900FBE0F901F90ED
:1009F00018955F926F927F928F929F92AF92BF9263
:100A0000CF92DF92EF92FF920F931F93CF93DF93DA
:100A1000EC013A014B01413482E458078FE068074A
:100A200080E078070CF07FC060E874E88EE190E029
:100A3000A40193010E940E072150304040405040D5
:100A4000CA01B90122E030E040E050E00E940E0708
:100A500059016A01A6019501209530954095509560
:100A600094E0220F331F441F551F9A95D1F760E081
:100A700074E284EF90E00E940E07CA01B9012FEFE3
:100A800030E040E050E00E94BA06A40193010E94C9
:100A90000E07C90181509F4F181619061CF4522EDB
:100AA0005A9403C055245394521A60E079E08DE3C0
:100AB00090E0A40193010E940E0721503040404075
:100AC0005040CA01B90122E030E040E050E00E940D
:100AD0000E07209530954095509583E0220F331FE7
:100AE000441F551F8A95D1F760E074E284EF90E0CF
:100AF0000E940E07CA01B9012FEF30E040E050E03C
:100B00000E94BA06A40193010E940E07C9018150F8
:100B10009F4F181619061CF4822F815002C081E0E5
:100B2000821B851500F5E885F98581E090E00A884B
:100B300002C0880F991F0A94E2F7808360E079E091
:100B40008DE390E0A40193010E940E0721503040F4
:100B500040405040CA01B90122E030E040E050E09E
:100B60000E940E0704C0E885F98510829501EC818A
:100B7000FD813083EE81FF812083EA85FB85208122
:100B800041E050E0CA010E8402C0880F991F0A9408
:100B9000E2F7282B2083EA85FB852081CA010F8498
:100BA00002C0880F991F0A94E2F7282B2083EA8558
:100BB000FB858081088802C0440F551F0A94E2F724
:100BC000842B8083DF91CF911F910F91FF90EF9045
:100BD000DF90CF90BF90AF909F908F907F906F905D
:100BE0005F900895DC011296ED91FC911397E05807
:100BF000FF4F8191919180589F4F20813181821BBD
:100C0000930B60E870E00E94D9060895CF93DF93BC
:100C1000DC011296ED91FC911397EF01CE57DF4F57
:100C200048815981E058FF4F80819181E058F04020
:100C30008417950719F42FEF3FEF0CC0E40FF51F51
:100C40002081CA01019660E870E00E94D90699836C
:100C5000888330E0C901DF91CF910895FC01A08520
:100C6000B18521898C9190E0022E02C095958795DF
:100C70000A94E2F780FFF6CF0484F585E02D6083C7
:100C800008958EE091E09093F8018093F70183E757
:100C900091E09093FA018093F90185EC90E09093B4
:100CA000FC018093FB0184EC90E09093FE01809323
:100CB000FD0180EC90E0909300028093FF0181ECB5
:100CC00090E0909302028093010286EC90E0909372
:100CD00004028093030284E08093050283E0809302
:100CE000060287E08093070285E08093080281E096
:100CF0008093090208950F931F93CF93DF938C0184
:100D0000EB0109C02196D801ED91FC910190F08191
:100D1000E02DC801099568816623A1F7DF91CF9185
:100D20001F910F910895EF92FF920F931F93CF930E
:100D3000DF938C017B01EA010CC0D7016D917D012D
:100D4000D801ED91FC910190F081E02DC801099549
:100D50002197209791F7DF91CF911F910F91FF90ED
:100D6000EF900895DC01ED91FC910190F081E02D70
:100D700009950895629FD001739FF001829FE00D55
:100D8000F11D649FE00DF11D929FF00D839FF00D0A
:100D9000749FF00D659FF00D9927729FB00DE11DB6
:100DA000F91F639FB00DE11DF91FBD01CF01112493
:100DB000089597FB092E07260AD077FD04D049D065
:100DC00006D000201AF4709561957F4F0895F6F7CC
:100DD000909581959F4F0895A1E21A2EAA1BBB1BE7
:100DE000FD010DC0AA1FBB1FEE1FFF1FA217B307F7
:100DF000E407F50720F0A21BB30BE40BF50B661F0D
:100E0000771F881F991F1A9469F7609570958095D0
:100E100090959B01AC01BD01CF01089597FB092E70
:100E200005260ED057FD04D0D7DF0AD0001C38F4B9
:100E300050954095309521953F4F4F4F5F4F089506
:100E4000F6F790958095709561957F4F8F4F9F4FE6
:100E50000895AA1BBB1B51E107C0AA1FBB1FA61701
:100E6000B70710F0A61BB70B881F991F5A95A9F753
:100E700080959095BC01CD010895EE0FFF1F059060
:0A0E8000F491E02D0994F894FFCFDF
:100E8A000000000068027B069306000000002E06A0
:040E9A007B0693063A
:00000001FF
