:100000000C9463000C948B000C948B000C948B006C
:100010000C948B000C948B000C948B000C948B0034
:100020000C948B000C948B000C948B000C94D201DC
:100030000C948B000C948B000C948B000C948B0014
:100040000C941C040C948B000C94A2050C948B0053
:100050000C948B000C948B000C948B000C948B00F4
:100060000C948B000C948B000000000024002700EF
:100070002A0000000000250028002B0000000000DE
:1000800023002600290004040404040404040202DA
:100090000202020203030303030301020408102007
:1000A0004080010204081020010204081020000012
:1000B0000007000201000003040600000000000029
:1000C00000008F02EB0611241FBECFEFD8E0DEBF89
:1000D000CDBF11E0A0E0B1E0EAE6F2E102C0059098
:1000E0000D92A635B107D9F712E0A6E5B1E001C03F
:1000F0001D92A133B107E1F710E0C6ECD0E004C0D7
:100100002297FE010E942F09C23CD107C9F70E9425
:1001100015040C9433090C940000FC0180915601E5
:100120008C3090F480838F5F80935601815090E0F3
:10013000FC01EE0FFF1FE80FF91FE95AFE4F88EB95
:100140009BE09283818308958FEF80830895FC0163
:1001500020812C30C0F58181992787FD909548E852
:1001600050E0481B590B440F551F440F551F64178F
:10017000750784F08281992787FD909548E552E0C4
:10018000481B590B440F551F440F551F6417750723
:100190000CF4AB01CA01AA2797FDA095BA2F0697C8
:1001A000A109B109880F991FAA1FBB1F4FB7F89467
:1001B00030E0F901EE0FFF1FE20FF31FE95AFE4F87
:1001C000928381834FBF0895AF92BF92CF92DF9207
:1001D000EF92FF920F931F93CF93DF93EC019B015C
:1001E00082E0603278070CF048C077FF03C020E05F
:1001F00030E005C0653B710514F024EB30E000D021
:1002000000D0B901882777FD8095982F2981332761
:1002100027FD3095B8E8AB2EB12CA21AB30AAA0C70
:10022000BB1CAA0CBB1CCC24B7FCC094DC2CEA8100
:10023000FF27E7FDF09528E532E02E1B3F0B220F4C
:10024000331F220F331F442737FD4095542FEDB73E
:10025000FEB7218332834383548320E030E040E0C3
:1002600050E0E4EBEE2EF12C012D112D0E945508EB
:100270009B010F900F900F900F90CE01B9010E943B
:10028000A700DF91CF911F910F91FF90EF90DF902A
:10029000CF90BF90AF900895CF92DF92EF92FF92F0
:1002A0001F93CF93DF93EC01162F7A0169018881A8
:1002B0008C3008F064C0862F61E00E94E6048881DB
:1002C00090E0FC01EE0FFF1FE80FF91FE95AFE4F07
:1002D0001F738081807C812B808380E292E08E1965
:1002E0009F0964E070E00E94C908698380E699E094
:1002F0008C199D0964E070E00E94C9086A83A88196
:100300008A2F6CE00E94BD08682F70E0AB01440F9B
:10031000551F460F571F440F551F440F551F20E010
:1003200030E0C901840F951FFC01EE0FFF1FE80F9D
:10033000F91FE95AFE4F808186FD15C02F5F3F4FA0
:100340002C30310571F724C01092800082E0809338
:1003500081001092850010928400B19A80916F0004
:10036000826080936F008A2F90E0FC01EE0FFF1FE8
:10037000E80FF91FE95AFE4F8081806480838881ED
:10038000DF91CF911F91FF90EF90DF90CF90089574
:10039000672BD1F2E8CF40E252E020E639E00E943C
:1003A0004C0108951F920F920FB60F9211242F93B4
:1003B0003F934F935F936F937F938F939F93AF93ED
:1003C000BF93EF93FF9380917B0187FF05C010924D
:1003D0008500109284002BC020917B01332727FDDC
:1003E00030958091560190E02817390704F58091E7
:1003F0007B01992787FD9095FC01EE0FFF1FE80F09
:10040000F91FE95AFE4F808186FF11C080917B0160
:10041000992787FD9095FC01EE0FFF1FE80FF91F4C
:10042000E95AFE4F80818F7360E00E94060580913B
:100430007B018F5F80937B0120917B01332727FD18
:1004400030958091560190E0281739070CF04EC086
:1004500080917B018C300CF049C020918400309158
:10046000850080917B01992787FD9095FC01EE0F17
:10047000FF1FE80FF91FE95AFE4F81819281280F73
:10048000391F309389002093880080917B01992740
:1004900087FD9095FC01EE0FFF1FE80FF91FE95A49
:1004A000FE4F808186FF2AC080917B01992787FDBE
:1004B0009095FC01EE0FFF1FE80FF91FE95AFE4F60
:1004C00080818F7361E00E94060518C080E49CE97A
:1004D00005C08091840090918500049690938900D6
:1004E000809388008FEF80937B0108C08091840007
:1004F0009091850084549C4948F3EBCFFF91EF9194
:10050000BF91AF919F918F917F916F915F914F912B
:100510003F912F910F900FBE0F901F9018958CE771
:1005200091E00E948D000895AF92BF92CF92DF922A
:10053000EF92FF920F931F93809141010E94C80494
:100540009093800180937F0180918101909182013D
:100550009093840180938301809149010E94530507
:100560009C019093820180938101809183019091FD
:10057000840128173907D1F021303105B9F4809171
:100580008501909186010196909386018093850163
:10059000049724F0109286011092850160918501E4
:1005A000709186018EE192E00E94450820918501BC
:1005B0003091860180918701909188012817390731
:1005C00009F496C0309388012093870121303105CA
:1005D000C1F0223031051CF4232B49F089C02230B0
:1005E0003105C1F12330310509F082C076C0809118
:1005F000470160E00E9406058EE192E060E071E054
:1006000075C0809143019091440120917F01309108
:100610008001821B930B90938A01809389018091C2
:10062000470161E00E94060564EF71E080E090E020
:100630000E9464048091470160E00E9406058EE1FB
:1006400092E066E171E00E945C076091890170911F
:100650008A013EC0809143019091440120917F0125
:1006600030918001821B930B90938C0180938B01BE
:100670008091470161E00E94060564EF71E080E02F
:1006800090E00E9464048091470160E00E940605AA
:1006900064EF71E080E090E00E9464048091470183
:1006A00061E00E94060564EF71E080E090E00E9446
:1006B00064048091470160E00E9406058EE192E0AB
:1006C00062E271E00E945C0760918B0170918C0185
:1006D0008EE192E00E9445080BC08091470161E0E5
:1006E0000E9406058EE192E06EE271E00E947B07B7
:1006F0008091850190918601039709F072C000D026
:1007000000D0609143017091440120917F013091AC
:100710008001621B730B882777FD8095982F2091AD
:10072000890130918A01442737FD4095542FE0908C
:100730008B01F0908C010027F7FC0095102FEAE563
:10074000AE2EB12CC12CD12CEDB7FEB7A182B28256
:10075000C382D482AA24BB2465010E9455087093E9
:100760008E0160938D010F900F900F900F9077FF87
:1007700004C010928E0110928D0180918D01909194
:100780008E018B35910534F08AE590E090938E01CF
:1007900080938D0160918D0170918E0180918F0108
:1007A0009091900168177907E1F070939001609340
:1007B0008F018CE791E00E94E4008EE192E069E312
:1007C00071E00E945C0760918D0170918E018EE155
:1007D00092E00E9445086EE170E080E090E00E94A7
:1007E00064041F910F91FF90EF90DF90CF90BF9026
:1007F000AF9008958091490160E00E94E6048091E5
:10080000470161E00E94E6048EE192E040E855E293
:1008100060E070E00E94DF05609145017091460143
:100820008CE791E00E94CB0108950E948E040E9403
:10083000FA030E949402FDCF1F920F920FB60F92FF
:1008400011242F933F938F939F93AF93BF938091E6
:10085000950190919601A0919701B09198013091E6
:1008600099010196A11DB11D232F2D5F2D3720F079
:100870002D570196A11DB11D2093990180939501DB
:1008800090939601A0939701B09398018091910164
:1008900090919201A0919301B09194010196A11DB4
:1008A000B11D8093910190939201A0939301B09315
:1008B0009401BF91AF919F918F913F912F910F9094
:1008C0000FBE0F901F901895EF92FF920F931F93FA
:1008D0007B018C018FB7F89440919501509196015E
:1008E00060919701709198018FBF2FB7F894809114
:1008F000950190919601A0919701B09198012FBF19
:10090000841B950BA60BB70BE816F9060A071B0705
:1009100060F71F910F91FF90EF900895789484B540
:10092000826084BD84B5816084BD85B5826085BDEB
:1009300085B5816085BDEEE6F0E0808181608083D1
:10094000E1E8F0E080818260808380818160808343
:10095000E0E8F0E0808181608083E1EBF0E080817D
:1009600084608083E0EBF0E0808181608083EAE74F
:10097000F0E08081846080838081826080838081D8
:10098000816080838081806880831092C100089597
:100990008F7090914B019295990F990F907C982BA5
:1009A00090937C0080917A00806480937A0080919B
:1009B0007A0086FDFCCF2091780040917900942F39
:1009C00080E030E0282B392BC9010895282F30E032
:1009D000C90186569F4FFC0194912A573F4FF90158
:1009E0008491882391F0E82FF0E0EE0FFF1FE85983
:1009F000FF4FA591B491662329F48C91909589239A
:100A00008C9308958C91892B8C930895482F50E0F6
:100A1000CA0182559F4FFC012491CA0186569F4FFF
:100A2000FC0194914A575F4FFA0134913323D1F17D
:100A3000222331F1233021F4809180008F7705C08B
:100A4000243031F4809180008F7D8093800018C025
:100A5000213019F484B58F7704C0223021F484B595
:100A60008F7D84BD0DC0263021F48091B0008F773A
:100A700005C0273029F48091B0008F7D8093B000AD
:100A8000E32FF0E0EE0FFF1FEE58FF4FA591B4915A
:100A9000662329F48C91909589238C9308958C91E9
:100AA000892B8C930895682F70E0CB0182559F4F5E
:100AB000FC012491CB0186569F4FFC0144916A575B
:100AC0007F4FFB019491992319F420E030E038C066
:100AD000222331F1233021F4809180008F7705C0EB
:100AE000243031F4809180008F7D8093800018C085
:100AF000213019F484B58F7704C0223021F484B5F5
:100B00008F7D84BD0DC0263021F48091B0008F7799
:100B100005C0273029F48091B0008F7D8093B0000C
:100B2000892F90E0880F991F84589F4FFC01A59151
:100B3000B4918C9120E030E0842311F021E030E08A
:100B4000C90108951F920F920FB60F9211242F938F
:100B50003F934F935F936F937F938F939F93AF9345
:100B6000BF93EF93FF934091C600E0911A02F0917A
:100B70001B02CF01019660E870E00E94C9089C0149
:100B800080911C0290911D022817390739F0E65612
:100B9000FE4F408330931B0220931A02FF91EF9186
:100BA000BF91AF919F918F917F916F915F914F9185
:100BB0003F912F910F900FBE0F901F9018955F924D
:100BC0006F927F928F929F92AF92BF92CF92DF925D
:100BD000EF92FF920F931F93CF93DF93EC013A01B3
:100BE0004B01413482E458078FE0680780E07807C2
:100BF0000CF07FC060E874E88EE190E0A4019301FE
:100C00000E94FE082150304040405040CA01B901C6
:100C100022E030E040E050E00E94FE0859016A0105
:100C2000A6019501209530954095509594E0220FAE
:100C3000331F441F551F9A95D1F760E074E284EF8B
:100C400090E00E94FE08CA01B9012FEF30E040E0B9
:100C500050E00E949E08A40193010E94FE08C90171
:100C600081509F4F181619061CF4522E5A9403C037
:100C700055245394521A60E079E08DE390E0A4018A
:100C800093010E94FE082150304040405040CA016C
:100C9000B90122E030E040E050E00E94FE082095DB
:100CA00030954095509583E0220F331F441F551F08
:100CB0008A95D1F760E074E284EF90E00E94FE082C
:100CC000CA01B9012FEF30E040E050E00E949E08D9
:100CD000A40193010E94FE08C90181509F4F18167C
:100CE00019061CF4822F815002C081E0821B8515F9
:100CF00000F5E885F98581E090E00A8802C0880F58
:100D0000991F0A94E2F7808360E079E08DE390E038
:100D1000A40193010E94FE08215030404040504001
:100D2000CA01B90122E030E040E050E00E94FE0834
:100D300004C0E885F98510829501EC81FD8130833E
:100D4000EE81FF812083EA85FB85208141E050E030
:100D5000CA010E8402C0880F991F0A94E2F7282B5B
:100D60002083EA85FB852081CA010F8402C0880F99
:100D7000991F0A94E2F7282B2083EA85FB8580815E
:100D8000088802C0440F551F0A94E2F7842B808321
:100D9000DF91CF911F910F91FF90EF90DF90CF9057
:100DA000BF90AF909F908F907F906F905F900895CD
:100DB000FC01A085B18521898C9190E0022E02C0B2
:100DC000959587950A94E2F780FFF6CF0484F58520
:100DD000E02D6083089580E591E090931F02809359
:100DE0001E028AE991E0909321028093200285EC13
:100DF00090E0909323028093220284EC90E0909301
:100E000025028093240280EC90E090932702809347
:100E1000260281EC90E0909329028093280286ECD0
:100E200090E090932B0280932A0284E080932C021E
:100E300083E080932D0287E080932E0285E08093EB
:100E40002F0281E08093300208950F931F93CF9378
:100E5000DF938C01EB0109C02196D801ED91FC9143
:100E60000190F081E02DC801099568816623A1F702
:100E7000DF91CF911F910F910895EF92FF920F9301
:100E80001F93CF93DF938C017B01EA010CC0D70144
:100E90006D917D01D801ED91FC910190F081E02DE3
:100EA000C80109952197209791F7DF91CF911F9164
:100EB0000F91FF90EF900895DC01ED91FC9102807D
:100EC000F381E02D099508950F931F938C01DC01A8
:100ED000ED91FC910190F081E02D6DE00995D80134
:100EE000ED91FC910190F081E02DC8016AE0099537
:100EF0001F910F9108950F931F938C010E945C071F
:100F0000C8010E9464071F910F9108952F923F928C
:100F10004F925F926F927F928F929F92AF92BF9209
:100F2000CF92DF92EF92FF920F931F93DF93CF93B5
:100F3000CDB7DEB7A0970FB6F894DEBF0FBECDBF1A
:100F40001C016A017B01411551056105710549F4D8
:100F5000DC01ED91FC910190F081E02D60E30995B9
:100F600054C0882499245401422E552466247724A1
:100F700001E010E00C0F1D1F080D191DC701B6017F
:100F8000A30192010E94DC08F80160830894811C8F
:100F9000911CA11CB11CC701B601A30192010E94C2
:100FA000DC08C901DA016C017D01C114D104E1043E
:100FB000F104F1F681E0E82EF12CEC0EFD1EE80CB8
:100FC000F91C3E010894611C711CD501C4010197F4
:100FD000A109B1096C01C818D90814C0F601EE0DB9
:100FE000FF1D60816A3010F4605D01C0695CD10151
:100FF000ED91FC910190F081E02DC10109950894DB
:10100000E108F1086E147F0449F7A0960FB6F89432
:10101000DEBF0FBECDBFCF91DF911F910F91FF902B
:10102000EF90DF90CF90BF90AF909F908F907F9088
:101030006F905F904F903F902F900895EF92FF92A6
:101040000F931F93CF93DF93EC017A018B0177FF0E
:101050000FC0E881F9810190F081E02D6DE20995E2
:1010600010950095F094E094E11CF11C011D111DF8
:10107000CE01B801A7012AE00E948607DF91CF9137
:101080001F910F91FF90EF9008950F931F938C0184
:10109000AB01662757FD6095762F0E941E08C80198
:1010A0000E9464071F910F9108952F923F924F92D3
:1010B0005F926F927F928F929F92AF92BF92CF92E8
:1010C000DF92EF92FF920F931F93DF93CF93CDB7F1
:1010D000DEB73B014C0119012A016D897E898F8998
:1010E000988D6A197B098C099D09621A730A840A12
:1010F000950AA40193010E949E08E218F3080409CE
:101100001509A80197010E94FE082A0D3B1D4C1DE0
:101110005D1DB901CA01CF91DF911F910F91FF9021
:10112000EF90DF90CF90BF90AF909F908F907F9087
:101130006F905F904F903F902F900895629FD001E5
:10114000739FF001829FE00DF11D649FE00DF11D82
:10115000929FF00D839FF00D749FF00D659FF00D31
:101160009927729FB00DE11DF91F639FB00DE11D1E
:10117000F91FBD01CF0111240895991B79E004C026
:10118000991F961708F0961B881F7A95C9F78095C6
:10119000089597FB092E07260AD077FD04D049D081
:1011A00006D000201AF4709561957F4F0895F6F7E8
:1011B000909581959F4F0895A1E21A2EAA1BBB1B03
:1011C000FD010DC0AA1FBB1FEE1FFF1FA217B30713
:1011D000E407F50720F0A21BB30BE40BF50B661F29
:1011E000771F881F991F1A9469F7609570958095ED
:1011F00090959B01AC01BD01CF01089597FB092E8D
:1012000005260ED057FD04D0D7DF0AD0001C38F4D5
:1012100050954095309521953F4F4F4F5F4F089522
:10122000F6F790958095709561957F4F8F4F9F4F02
:101230000895AA1BBB1B51E107C0AA1FBB1FA6171D
:10124000B70710F0A61BB70B881F991F5A95A9F76F
:1012500080959095BC01CD010895EE0FFF1F05907C
:0A126000F491E02D0994F894FFCFFB
:10126A00726561647920666F722063616C6962726B
:10127A006174696F6E006D696E536D696C65203DAE
:10128A0020006D6178536D696C65203D20006361B3
:10129A006C69627261746564007061696E203D20D8
:1012AA0000010058020500020006000100000000CB
:0612BA00D80625073D07E0
:00000001FF
