:100000000C9462000C948A000C948A000C948A0070
:100010000C948A000C948A000C948A000C948A0038
:100020000C948A000C948A000C948A000C948A0028
:100030000C948A000C948A000C948A000C948A0018
:100040000C94E3000C948A000C9473020C948A00C4
:100050000C948A000C948A000C948A000C948A00F8
:100060000C948A000C948A000000000024002700F1
:100070002A0000000000250028002B0000000000DE
:1000800023002600290004040404040404040202DA
:100090000202020203030303030301020408102007
:1000A0004080010204081020010204081020000012
:1000B0000007000201000003040600000000000029
:1000C0000000BC0311241FBECFEFD8E0DEBFCDBFC0
:1000D00011E0A0E0B1E0ECE3FBE002C005900D927E
:1000E000A031B107D9F711E0A0E1B1E001C01D9244
:1000F000A33BB107E1F710E0C4ECD0E004C02297C5
:10010000FE010E949805C23CD107C9F70E94DC009D
:100110000C949C050C940000809100010E948F01BA
:1001200064E070E00E943205609310017093110149
:1001300080EA91E00E940305609110017091110125
:100140006E3171054CF0809102010E94AD0164E1B5
:1001500070E080E090E01AC080911201882349F09D
:10016000809102016FEF70E00E94AD0110921201C8
:1001700009C08091020160E070E00E94AD0181E061
:100180008093120168EC70E080E090E00E942B0107
:10019000089580EA91E040E855E260E070E00E9456
:1001A000B0028091000160E00E940602809102018D
:1001B00061E00E94060208950E9455010E94C90054
:1001C0000E948C00FDCF1F920F920FB60F92112448
:1001D0002F933F938F939F93AF93BF93809117017A
:1001E00090911801A0911901B0911A0130911B0151
:1001F0000196A11DB11D232F2D5F2D3720F02D5706
:100200000196A11DB11D20931B01809317019093AE
:100210001801A0931901B0931A01809113019091D4
:100220001401A0911501B09116010196A11DB11DF7
:100230008093130190931401A0931501B0931601BC
:10024000BF91AF919F918F913F912F910F900FBED2
:100250000F901F901895EF92FF920F931F937B01C1
:100260008C018FB7F894409117015091180160915B
:10027000190170911A018FBF2FB7F894809117015F
:1002800090911801A0911901B0911A012FBF841B00
:10029000950BA60BB70BE816F9060A071B0760F7C4
:1002A0001F910F91FF90EF900895789484B582602C
:1002B00084BD84B5816084BD85B5826085BD85B50A
:1002C000816085BDEEE6F0E0808181608083E1E8B9
:1002D000F0E0808182608083808181608083E0E8BB
:1002E000F0E0808181608083E1EBF0E080818460D8
:1002F0008083E0EBF0E0808181608083EAE7F0E0DA
:10030000808184608083808182608083808181603D
:1003100080838081806880831092C10008958F70EF
:10032000909104019295990F990F907C982B90933E
:100330007C0080917A00806480937A0080917A00BA
:1003400086FDFCCF2091780040917900942F80E0C9
:1003500030E0282B392BC90108951F93CF93DF93E9
:10036000182FEB0161E00E940602E12FF0E0E25558
:10037000FF4F8491833051F4809180008068809396
:100380008000D0938900C09388003CC0843051F431
:1003900080918000806280938000D0938B00C09316
:1003A0008A0030C0813039F4209729F184B5806803
:1003B00084BDC7BD27C0823039F42097E1F084B5F1
:1003C000806284BDC8BD1EC0863041F48091B000FB
:1003D00080688093B000C093B30014C0873041F4AC
:1003E0008091B00080628093B000C093B4000AC0D6
:1003F000C038D1051CF4812F60E002C0812F61E07C
:100400000E942602DF91CF911F910895282F30E09E
:10041000C90186569F4FFC0194912A573F4FF9011D
:100420008491882391F0E82FF0E0EE0FFF1FE85948
:10043000FF4FA591B491662329F48C91909589235F
:100440008C9308958C91892B8C930895482F50E0BC
:10045000CA0182559F4FFC012491CA0186569F4FC5
:10046000FC0194914A575F4FFA0134913323D1F143
:10047000222331F1233021F4809180008F7705C051
:10048000243031F4809180008F7D8093800018C0EB
:10049000213019F484B58F7704C0223021F484B55B
:1004A0008F7D84BD0DC0263021F48091B0008F7700
:1004B00005C0273029F48091B0008F7D8093B00073
:1004C000E32FF0E0EE0FFF1FEE58FF4FA591B49120
:1004D000662329F48C91909589238C9308958C91AF
:1004E000892B8C9308951F920F920FB60F921124AF
:1004F0002F933F934F935F936F937F938F939F932C
:10050000AF93BF93EF93FF934091C600E0919C019E
:10051000F0919D01CF01019660E870E00E943205E4
:100520009C0180919E0190919F012817390739F015
:10053000E45EFE4F408330939D0120939C01FF9128
:10054000EF91BF91AF919F918F917F916F915F914B
:100550004F913F912F910F900FBE0F901F901895C4
:100560005F926F927F928F929F92AF92BF92CF9243
:10057000DF92EF92FF920F931F93CF93DF93EC01E3
:100580003A014B01413482E458078FE0680780E06C
:1005900078070CF07FC060E874E88EE190E0A40179
:1005A00093010E9467052150304040405040CA01ED
:1005B000B90122E030E040E050E00E9467055901B7
:1005C0006A01A6019501209530954095509594E0DB
:1005D000220F331F441F551F9A95D1F760E074E234
:1005E00084EF90E00E946705CA01B9012FEF30E067
:1005F00040E050E00E941305A40193010E946705AA
:10060000C90181509F4F181619061CF4522E5A9496
:1006100003C055245394521A60E079E08DE390E0D2
:10062000A40193010E946705215030404040504092
:10063000CA01B90122E030E040E050E00E946705C5
:10064000209530954095509583E0220F331F441F2D
:10065000551F8A95D1F760E074E284EF90E00E9424
:100660006705CA01B9012FEF30E040E050E00E9479
:100670001305A40193010E946705C90181509F4F92
:10068000181619061CF4822F815002C081E0821BCB
:10069000851500F5E885F98581E090E00A8802C0BB
:1006A000880F991F0A94E2F7808360E079E08DE378
:1006B00090E0A40193010E94670521503040404022
:1006C0005040CA01B90122E030E040E050E00E9411
:1006D000670504C0E885F98510829501EC81FD81EC
:1006E0003083EE81FF812083EA85FB85208141E014
:1006F00050E0CA010E8402C0880F991F0A94E2F7E5
:10070000282B2083EA85FB852081CA010F8402C043
:10071000880F991F0A94E2F7282B2083EA85FB852E
:100720008081088802C0440F551F0A94E2F7842B89
:100730008083DF91CF911F910F91FF90EF90DF9019
:10074000CF90BF90AF909F908F907F906F905F9071
:100750000895FC01A085B18521898C9190E0022E3D
:1007600002C0959587950A94E2F780FFF6CF04843E
:10077000F585E02D6083089589E091E09093A101D3
:100780008093A0018CE191E09093A3018093A2015A
:1007900085EC90E09093A5018093A40184EC90E017
:1007A0009093A7018093A60180EC90E09093A9011B
:1007B0008093A80181EC90E09093AB018093AA0113
:1007C00086EC90E09093AD018093AC0184E080933F
:1007D000AE0183E08093AF0187E08093B00185E0B4
:1007E0008093B10181E08093B20108950F931F932C
:1007F000CF93DF938C01EB0109C02196D801ED91D5
:10080000FC910190F081E02DC80109956881662373
:10081000A1F7DF91CF911F910F910895EF92FF9271
:100820000F931F93CF93DF938C017B01EA010CC0E0
:10083000D7016D917D01D801ED91FC910190F0817E
:10084000E02DC80109952197209791F7DF91CF916D
:100850001F910F91FF90EF9008950F931F938C01BC
:10086000DC01ED91FC910190F081E02D6DE00995A6
:10087000D801ED91FC910190F081E02DC8016AE072
:1008800009951F910F9108952F923F924F925F9279
:100890006F927F928F929F92AF92BF92CF92DF9290
:1008A000EF92FF920F931F93DF93CF93CDB7DEB7F5
:1008B000A0970FB6F894DEBF0FBECDBF1C016A0132
:1008C0007B01411551056105710549F4DC01ED918C
:1008D000FC910190F081E02D60E3099554C08824DB
:1008E00099245401422E55246624772401E010E017
:1008F0000C0F1D1F080D191DC701B601A3019201A0
:100900000E944505F80160830894811C911CA11C7C
:10091000B11CC701B601A30192010E944505C9019E
:10092000DA016C017D01C114D104E104F104F1F696
:1009300081E0E82EF12CEC0EFD1EE80CF91C3E01C6
:100940000894611C711CD501C4010197A109B1096A
:100950006C01C818D90814C0F601EE0DFF1D6081A6
:100960006A3010F4605D01C0695CD101ED91FC91C9
:100970000190F081E02DC10109950894E108F1088A
:100980006E147F0449F7A0960FB6F894DEBF0FBE31
:10099000CDBFCF91DF911F910F91FF90EF90DF902E
:1009A000CF90BF90AF909F908F907F906F905F900F
:1009B0004F903F902F900895EF92FF920F931F93C7
:1009C000CF93DF93EC017A018B0177FF0FC0E881B1
:1009D000F9810190F081E02D6DE209951095009567
:1009E000F094E094E11CF11C011D111DCE01B80131
:1009F000A7012AE00E944404DF91CF911F910F913B
:100A0000FF90EF9008950F931F938C01AB01662721
:100A100057FD6095762F0E94DC04C8010E942D04CA
:100A20001F910F910895629FD001739FF001829FE3
:100A3000E00DF11D649FE00DF11D929FF00D839F6D
:100A4000F00D749FF00D659FF00D9927729FB00D0A
:100A5000E11DF91F639FB00DE11DF91FBD01CF011D
:100A60001124089597FB092E07260AD077FD04D09C
:100A700049D006D000201AF4709561957F4F0895F3
:100A8000F6F7909581959F4F0895A1E21A2EAA1B23
:100A9000BB1BFD010DC0AA1FBB1FEE1FFF1FA2172E
:100AA000B307E407F50720F0A21BB30BE40BF50B2B
:100AB000661F771F881F991F1A9469F760957095B4
:100AC000809590959B01AC01BD01CF01089597FBE6
:100AD000092E05260ED057FD04D0D7DF0AD0001C02
:100AE00038F450954095309521953F4F4F4F5F4FCB
:100AF0000895F6F790958095709561957F4F8F4F8B
:100B00009F4F0895AA1BBB1B51E107C0AA1FBB1F23
:100B1000A617B70710F0A61BB70B881F991F5A9589
:100B2000A9F780959095BC01CD010895EE0FFF1FA8
:0C0B30000590F491E02D0994F894FFCF9B
:100B3C00040009000100000000A903F6030E0400E4
:00000001FF
