:100000000C9403010C942E010C942E010C942E01DF
:100010000C942E010C942E010C942E010C942E01A4
:100020000C942E010C942E010C942E010C942E0194
:100030000C942E010C942E010C942E010C942E0184
:100040000C942E010C942E010C942E010C942E0174
:100050000C942E010C942E010C942E010C94B401DE
:100060000C942E010C94A7020C942E010C942E01DA
:100070000C942E010C942E010C942E010C942E0144
:100080000C942E010C942E010C942E010C942E0134
:100090000C94E8020C942E010C942E010C942E0169
:1000A0000C942E010C942E010C942E010C942E0114
:1000B0000C942E010C942E010C942E010C942E0104
:1000C0000C942E010C942E010C942E010C942903F7
:1000D0000C942E010C942E010C946A030C942E01A6
:1000E0000C942E0100002100240027002A002D007E
:1000F0003000330001010000040107010A01000083
:100100002200250028002B002E00310034000201BF
:100110000000050108010B0100002000230026005B
:1001200029002C002F00320000010000030106010D
:10013000090105050505070508080808020202026D
:100140000A0A080804040404010101010101010173
:100150000303030303030303040707070C0C0C0C3E
:100160000C0C0C0C02020202060606060606060627
:100170000B0B0B0B0B0B0B0B0102102020080810B4
:100180002040102040800201020108040201010207
:1001900004081020408080402010080402018004E0
:1001A000020180402010080402010804020101023B
:1001B0000408102040800102040810204080000044
:1001C000090A02080B0C0D070603040100000000D9
:1001D000000000000000000000000000000000001F
:1001E00000000000000000000000100F0E000000E2
:1001F00000000000000000000000000000000000FF
:1002000000000000B70411241FBECFEFD1E2DEBF13
:10021000CDBF12E0A0E0B2E0EAE4FEE000E00BBFF8
:1002200002C007900D92A033B107D9F71BBE14E0AE
:10023000A0E3B2E001C01D92A539B107E1F712E0D9
:10024000C6E0D2E004C02297FE010E941F07C4301E
:10025000D107C9F70E94AD010C9423070C9400004C
:100260000F931F9309E414E0C80160E072E00E945C
:10027000BE05C80147E050E060E070E020E030E0FB
:100280000E948506C80140E050E060E070E020E098
:1002900030E00E94850668EE73E080E090E00E9406
:1002A000FC011F910F91089581E061E00E94870297
:1002B00082E161E00E94870280E161E00E948702A2
:1002C0008EE061E00E9487028091160260E00E9449
:1002D00087028091180260E00E94870280911A02D2
:1002E00060E00E94870280911C0260E00E94870209
:1002F00080911E0260E00E9487028091200260E0EF
:100300000E9487028091220260E00E948702809111
:10031000240260E00E94870289E494E040E052EC0D
:1003200061E070E00E94AB038CE594E040E052ECA9
:1003300061E070E00E94AB038FE694E040E052EC95
:1003400061E070E00E94AB0382E894E040E052EC90
:1003500061E070E00E94AB0308950E9426020E94B3
:1003600054010E943001FDCF1F920F920FB60F92E1
:1003700011242F933F938F939F93AF93BF938091BB
:10038000340290913502A0913602B091370230913B
:1003900038020196A11DB11D232F2D5F2D3720F0AE
:1003A0002D570196A11DB11D209338028093340270
:1003B00090933502A0933602B093370280913002B9
:1003C00090913102A0913202B09133020196A11DA9
:1003D000B11D8093300290933102A0933202B0930A
:1003E0003302BF91AF919F918F913F912F910F90C9
:1003F0000FBE0F901F901895EF92FF920F931F93CF
:100400007B018C018FB7F8944091340250913502F2
:1004100060913602709137028FBF2FB7F8948091A8
:10042000340290913502A0913602B09137022FBF6D
:10043000841B950BA60BB70BE816F9060A071B07DA
:1004400060F71F910F91FF90EF900895789484B515
:10045000826084BD84B5816084BD85B5826085BDC0
:1004600085B5816085BDEEE6F0E0808181608083A6
:10047000E1E8F0E080818260808380818160808318
:10048000E0E8F0E0808181608083E1EBF0E0808152
:1004900084608083E0EBF0E0808181608083E1E92B
:1004A000F0E0808182608083808181608083E1EAE6
:1004B000F0E0808182608083808181608083E1E2DE
:1004C000F1E0808182608083808181608083E0E9C7
:1004D000F0E0808181608083E0EAF0E080818160EB
:1004E0008083E0E2F1E0808181608083EAE7F0E0F0
:1004F000808184608083808182608083808181604C
:1005000080838081806880831092C1000895282FA5
:1005100030E0C90188589E4FFC0194912E5C3E4FFB
:10052000F9018491882391F0E82FF0E0EE0FFF1F8E
:10053000EC51FF4FA591B491662329F48C919095CD
:1005400089238C9308958C91892B8C9308951F9205
:100550000F920FB60F920BB60F9211242F933F9369
:100560004F935F936F937F938F939F93AF93BF93BB
:10057000EF93FF934091C600E091B902F091BA0267
:10058000CF01019660E870E00E94B9069C0180915D
:10059000BB029091BC022817390739F0E75CFD4F88
:1005A00040833093BA022093B902FF91EF91BF913B
:1005B000AF919F918F917F916F915F914F913F91FB
:1005C0002F910F900BBE0F900FBE0F901F9018959C
:1005D0001F920F920FB60F920BB60F9211242F930A
:1005E0003F934F935F936F937F938F939F93AF93BB
:1005F000BF93EF93FF934091CE00E0913D03F091C4
:100600003E03CF01019660E870E00E94B9069C01AC
:1006100080913F03909140032817390739F0E35444
:10062000FD4F408330933E0320933D03FF91EF91B4
:10063000BF91AF919F918F917F916F915F914F91FA
:100640003F912F910F900BBE0F900FBE0F901F90F8
:1006500018951F920F920FB60F920BB60F9211249E
:100660002F933F934F935F936F937F938F939F93BA
:10067000AF93BF93EF93FF934091D600E091C103F6
:10068000F091C203CF01019660E870E00E94B906C4
:100690009C018091C3039091C4032817390739F056
:1006A000EF5BFC4F40833093C2032093C103FF9163
:1006B000EF91BF91AF919F918F917F916F915F91DA
:1006C0004F913F912F910F900BBE0F900FBE0F9047
:1006D0001F9018951F920F920FB60F920BB60F92A4
:1006E00011242F933F934F935F936F937F938F9337
:1006F0009F93AF93BF93EF93FF9340913601E091A7
:100700004504F0914604CF01019660E870E00E9434
:10071000B9069C0180914704909148042817390735
:1007200039F0EB53FC4F408330934604209345044B
:10073000FF91EF91BF91AF919F918F917F916F91B9
:100740005F914F913F912F910F900BBE0F900FBE75
:100750000F901F9018955F926F927F928F929F9249
:10076000AF92BF92CF92DF92EF92FF920F931F93BF
:10077000CF93DF93EC013A014B01413482E45807F7
:100780008FE0680780E078070CF07FC060E874E8CD
:100790008EE190E0A40193010E94EE0621503040CA
:1007A00040405040CA01B90122E030E040E050E052
:1007B0000E94EE0659016A01A60195012095309527
:1007C0004095509594E0220F331F441F551F9A9572
:1007D000D1F760E074E284EF90E00E94EE06CA0177
:1007E000B9012FEF30E040E050E00E949A06A401EA
:1007F00093010E94EE06C90181509F4F18161906F9
:100800001CF4522E5A9403C055245394521A60E09B
:1008100079E08DE390E0A40193010E94EE0621505F
:10082000304040405040CA01B90122E030E040E091
:1008300050E00E94EE06209530954095509583E05B
:10084000220F331F441F551F8A95D1F760E074E2D1
:1008500084EF90E00E94EE06CA01B9012FEF30E06C
:1008600040E050E00E949A06A40193010E94EE0627
:10087000C90181509F4F181619061CF4822F815010
:1008800002C081E0821B851500F5E885F98581E0CD
:1008900090E00A8802C0880F991F0A94E2F78083CB
:1008A00060E079E08DE390E0A40193010E94EE0600
:1008B0002150304040405040CA01B90122E030E0B0
:1008C00040E050E00E94EE0604C0E885F985108201
:1008D0009501EC81FD813083EE81FF812083EA85E3
:1008E000FB85208141E050E0CA010E8402C0880FE0
:1008F000991F0A94E2F7282B2083EA85FB85208143
:10090000CA010F8402C0880F991F0A94E2F7282BAE
:100910002083EA85FB858081088802C0440F551F2B
:100920000A94E2F7842B8083DF91CF911F910F917E
:10093000FF90EF90DF90CF90BF90AF909F908F90FF
:100940007F906F905F900895FC01A085B18521890B
:100950008C9190E0022E02C0959587950A94E2F75B
:1009600080FFF6CF0484F585E02D608308952AE2A8
:1009700032E030934A042093490489E392E0909353
:100980004C0480934B0485EC90E090934E0480934C
:100990004D0484EC90E09093500480934F0480ECDD
:1009A00090E0909352048093510481EC90E09093F6
:1009B00054048093530486EC90E090935604809303
:1009C0005504E4E0E093570473E07093580467E043
:1009D0006093590455E050935A0441E040935B04FE
:1009E00030935D0420935C048DEB92E090935F0460
:1009F00080935E048DEC90E090936104809360049A
:100A00008CEC90E0909363048093620488EC90E017
:100A1000909365048093640489EC90E0909367045C
:100A2000809366048EEC90E0909369048093680450
:100A3000E0936A0470936B0460936C0450936D04AC
:100A400040936E043093700420936F0481E493E02C
:100A5000909372048093710485ED90E090937404F8
:100A60008093730484ED90E09093760480937504F2
:100A700080ED90E0909378048093770481ED90E08E
:100A800090937A048093790486ED90E090937C04AF
:100A900080937B04E0937D0470937E0460937F04D5
:100AA0005093800440938104309383042093820404
:100AB00085EC93E0909385048093840485E391E032
:100AC000909387048093860484E391E09093890453
:100AD0008093880480E391E090938B0480938A0450
:100AE00081E391E090938D0480938C0486E391E000
:100AF00090938F0480938E04E093900470939104FC
:100B000060939204509393044093940408950F9338
:100B10001F93CF93DF938C01EB0109C02196D8017D
:100B2000ED91FC910190F081E02DC801099568815B
:100B30006623A1F7DF91CF911F910F910895EF9256
:100B4000FF920F931F93CF93DF938C017B01EA01F8
:100B50000CC0D7016D917D01D801ED91FC91019000
:100B6000F081E02DC80109952197209791F7DF9139
:100B7000CF911F910F91FF90EF900895DC01ED91BF
:100B8000FC910280F381E02D099508952F923F9208
:100B90004F925F926F927F928F929F92AF92BF928D
:100BA000CF92DF92EF92FF920F931F93DF93CF9339
:100BB000CDB7DEB7A0970FB6F894DEBF0FBECDBF9E
:100BC0001C016A017B01411551056105710549F45C
:100BD000DC01ED91FC910190F081E02D60E309953D
:100BE00054C0882499245401422E55246624772425
:100BF00001E010E00C0F1D1F080D191DC701B60103
:100C0000A30192010E94CC06F80160830894811C24
:100C1000911CA11CB11CC701B601A30192010E9445
:100C2000CC06C901DA016C017D01C114D104E104D3
:100C3000F104F1F681E0E82EF12CEC0EFD1EE80C3B
:100C4000F91C3E010894611C711CD501C401019777
:100C5000A109B1096C01C818D90814C0F601EE0D3C
:100C6000FF1D60816A3010F4605D01C0695CD101D4
:100C7000ED91FC910190F081E02DC101099508945E
:100C8000E108F1086E147F0449F7A0960FB6F894B6
:100C9000DEBF0FBECDBFCF91DF911F910F91FF90AF
:100CA000EF90DF90CF90BF90AF909F908F907F900C
:100CB0006F905F904F903F902F900895EF92FF922A
:100CC0000F931F93CF93DF93EC017A018B0177FF92
:100CD0000FC0E881F9810190F081E02D6DE2099566
:100CE00010950095F094E094E11CF11C011D111D7C
:100CF000CE01B801A7012AE00E94C605DF91CF917D
:100D00001F910F91FF90EF900895DC01211531059F
:100D100041F4ED91FC910190F081E02D642F099553
:100D200008952A30310519F40E945E0608950E9444
:100D3000C6050895629FD001739FF001829FE00D68
:100D4000F11D649FE00DF11D929FF00D839FF00D4A
:100D5000749FF00D659FF00D9927729FB00DE11DF6
:100D6000F91F639FB00DE11DF91FBD01CF011124D3
:100D7000089597FB092E07260AD077FD04D049D0A5
:100D800006D000201AF4709561957F4F0895F6F70C
:100D9000909581959F4F0895A1E21A2EAA1BBB1B27
:100DA000FD010DC0AA1FBB1FEE1FFF1FA217B30737
:100DB000E407F50720F0A21BB30BE40BF50B661F4D
:100DC000771F881F991F1A9469F760957095809511
:100DD00090959B01AC01BD01CF01089597FB092EB1
:100DE00005260ED057FD04D0D7DF0AD0001C38F4FA
:100DF00050954095309521953F4F4F4F5F4F089547
:100E0000F6F790958095709561957F4F8F4F9F4F26
:100E10000895AA1BBB1B51E107C0AA1FBB1FA61741
:100E2000B70710F0A61BB70B881F991F5A95A9F793
:100E300080959095BC01CD010895EE0FFF1F0590A0
:0A0E4000F491E02D0994F894FFCF1F
:100E4A00636F6D6D69736572617465636F6D706CE4
:100E5A00696D656E74000B000A000900080007003E
:100E6A0006000500040000000000A40487059F0591
:00000001FF
