:100000000C9463000C948B000C948B000C948B006C
:100010000C948B000C948B000C948B000C948B0034
:100020000C948B000C948B000C948B000C94D201DC
:100030000C948B000C948B000C948B000C948B0014
:100040000C94B9040C948B000C943F060C948B0018
:100050000C948B000C948B000C948B000C948B00F4
:100060000C948B000C948B000000000024002700EF
:100070002A0000000000250028002B0000000000DE
:1000800023002600290004040404040404040202DA
:100090000202020203030303030301020408102007
:1000A0004080010204081020010204081020000012
:1000B0000007000201000003040600000000000029
:1000C00000008F02880711241FBECFEFD8E0DEBFEB
:1000D000CDBF11E0A0E0B1E0E8E0F9E102C0059099
:1000E0000D92AA37B107D9F712E0AAE7B1E001C033
:1000F0001D92AF35B107E1F710E0C6ECD0E004C0C7
:100100002297FE010E947E0CC23CD107C9F70E94D3
:10011000B2040C94820C0C940000FC0180917A01D2
:100120008C3090F480838F5F80937A01815090E0CF
:10013000FC01EE0FFF1FE80FF91FE558FE4F88EB9B
:100140009BE09283818308958FEF80830895FC0163
:1001500020812C30C0F58181992787FD909548E852
:1001600050E0481B590B440F551F440F551F64178F
:10017000750784F08281992787FD909548E552E0C4
:10018000481B590B440F551F440F551F6417750723
:100190000CF4AB01CA01AA2797FDA095BA2F0697C8
:1001A000A109B109880F991FAA1FBB1F4FB7F89467
:1001B00030E0F901EE0FFF1FE20FF31FE558FE4F8D
:1001C000928381834FBF0895AF92BF92CF92DF9207
:1001D000EF92FF920F931F93CF93DF93EC019B015C
:1001E00082E0603278070CF048C077FF03C020E05F
:1001F00030E005C0653B710514F024EB30E000D021
:1002000000D0B901882777FD8095982F2981332761
:1002100027FD3095B8E8AB2EB12CA21AB30AAA0C70
:10022000BB1CAA0CBB1CCC24B7FCC094DC2CEA8100
:10023000FF27E7FDF09528E532E02E1B3F0B220F4C
:10024000331F220F331F442737FD4095542FEDB73E
:10025000FEB7218332834383548320E030E040E0C3
:1002600050E0E4EBEE2EF12C012D112D0E948909B6
:100270009B010F900F900F900F90CE01B9010E943B
:10028000A700DF91CF911F910F91FF90EF90DF902A
:10029000CF90BF90AF900895CF92DF92EF92FF92F0
:1002A0001F93CF93DF93EC01162F7A0169018881A8
:1002B0008C3008F064C0862F61E00E94830588813D
:1002C00090E0FC01EE0FFF1FE80FF91FE558FE4F0D
:1002D0001F738081807C812B808380E292E08E1965
:1002E0009F0964E070E00E94180C698380E699E041
:1002F0008C199D0964E070E00E94180C6A83A88143
:100300008A2F6CE00E940C0C682F70E0AB01440F48
:10031000551F460F571F440F551F440F551F20E010
:1003200030E0C901840F951FFC01EE0FFF1FE80F9D
:10033000F91FE558FE4F808186FD15C02F5F3F4FA6
:100340002C30310571F724C01092800082E0809338
:1003500081001092850010928400B19A80916F0004
:10036000826080936F008A2F90E0FC01EE0FFF1FE8
:10037000E80FF91FE558FE4F8081806480838881F3
:10038000DF91CF911F91FF90EF90DF90CF90089574
:10039000672BD1F2E8CF40E252E020E639E00E943C
:1003A0004C0108951F920F920FB60F9211242F93B4
:1003B0003F934F935F936F937F938F939F93AF93ED
:1003C000BF93EF93FF9380919F0187FF05C0109229
:1003D0008500109284002BC020919F01332727FDB8
:1003E000309580917A0190E02817390704F58091C3
:1003F0009F01992787FD9095FC01EE0FFF1FE80FE5
:10040000F91FE558FE4F808186FF11C080919F0142
:10041000992787FD9095FC01EE0FFF1FE80FF91F4C
:10042000E558FE4F80818F7360E00E94A3058091A4
:100430009F018F5F80939F0120919F01332727FDAC
:10044000309580917A0190E0281739070CF04EC062
:1004500080919F018C300CF049C020918400309134
:10046000850080919F01992787FD9095FC01EE0FF3
:10047000FF1FE80FF91FE558FE4F81819281280F79
:10048000391F309389002093880080919F0199271C
:1004900087FD9095FC01EE0FFF1FE80FF91FE5584F
:1004A000FE4F808186FF2AC080919F01992787FD9A
:1004B0009095FC01EE0FFF1FE80FF91FE558FE4F66
:1004C00080818F7361E00E94A30518C080E49CE9DD
:1004D00005C08091840090918500049690938900D6
:1004E000809388008FEF80939F0108C080918400E3
:1004F0009091850084549C4948F3EBCFFF91EF9194
:10050000BF91AF919F918F917F916F915F914F912B
:100510003F912F910F900FBE0F901F90189580EA7A
:1005200091E00E948D000895AF92BF92CF92DF922A
:10053000EF92FF920F931F93009165011091660156
:10054000809163010E946505081B190B1093A4019B
:100550000093A3018091A5019091A6019093A80119
:100560008093A70180916B010E94F0059C019093FC
:10057000A6018093A5018091A7019091A801281759
:100580003907D1F021303105B9F48091A90190915A
:10059000AA0101969093AA018093A901049724F0DF
:1005A0001092AA011092A9016091A9017091AA016B
:1005B0008CE492E00E94EE082091A9013091AA01FA
:1005C0008091AB019091AC012817390709F48AC0DA
:1005D0003093AC012093AB0121303105C1F02230C2
:1005E00031051CF4232B49F07DC02230310591F1F7
:1005F0002330310509F076C06AC08091690160E05E
:100600000E94A3058CE492E060E071E069C08091F3
:10061000A3019091A4019093AE018093AD018091CC
:10062000690161E00E94A30564EF71E080E090E061
:100630000E9401058091690160E00E94A3058CE49D
:1006400092E066E171E00E94F9076091AD0170915E
:10065000AE0138C08091A3019091A4019093B001A4
:100660008093AF018091690161E00E94A30564EF6E
:1006700071E080E090E00E9401058091690160E0F6
:100680000E94A30564EF71E080E090E00E94010504
:100690008091690161E00E94A30564EF71E080E050
:1006A00090E00E9401058091690160E00E94A3052D
:1006B0008CE492E062E271E00E94F9076091AF0180
:1006C0007091B0018CE492E00E94EE080BC0809122
:1006D000690161E00E94A3058CE492E06EE271E0A2
:1006E0000E9418088091A9019091AA01039709F02E
:1006F00015C100D000D06091A3017091A40188279A
:1007000077FD8095982F2091AD013091AE0144275F
:1007100037FD4095542FE090AF01F090B0010027D5
:10072000F7FC0095102FE4E6AE2EB12CC12CD12C95
:10073000EDB7FEB7A182B282C382D482AA24BB24C1
:1007400065010E9489090F900F900F900F906233FE
:100750007105810591052CF480E090E0A0E0B0E007
:1007600004C080E090E0A0E8BFE38093BB019093D9
:10077000BC01A093BD01B093BE018CE492E069E39B
:1007800071E00E94F9074091BB015091BC0160915A
:10079000BD017091BE018CE492E00E9485096091D8
:1007A000B5017091B601882777FD8095982F0E943A
:1007B000D60A5B016C012091B7013091B8014091DC
:1007C000B9015091BA010E948A0B2091BB0130916E
:1007D000BC014091BD015091BE010E94D3097B0133
:1007E0008C01C601B50120E030E040E85FE30E94E3
:1007F000D3099B01AC01C801B7010E943B0A609379
:10080000B7017093B8018093B9019093BA018CE459
:1008100092E062E471E00E94F9074091B7015091C3
:10082000B8016091B9017091BA018CE492E00E9424
:1008300085092091B5013091B60180916D019091AB
:100840006E012817390734F42F5F3F4F3093B601FC
:100850002093B5018CE492E06EE471E00E94F90708
:100860006091B5017091B6018CE492E00E94E608B7
:100870006091BB017091BC018091BD019091BE015E
:1008800020E030E040E85FE30E94370A882381F0EF
:100890006091B7017091B8018091B9019091BA014E
:1008A00020E030E040E05FE30E94860B18163CF445
:1008B0008AE590E09093B2018093B10104C0109258
:1008C000B2011092B1016091B1017091B2018091B9
:1008D000B3019091B4016817790721F080EA91E0A3
:1008E0000E94E4008CE492E068E571E00E94F90760
:1008F0006091B1017091B2018CE492E00E94EE0827
:100900008091B1019091B2019093B4018093B301B1
:100910006EE170E080E090E00E9401051F910F9170
:10092000FF90EF90DF90CF90BF90AF9008958091AF
:100930006B0160E00E9483058091690161E00E9483
:1009400083058CE492E040E855E260E070E00E94AC
:100950007C06609167017091680180EA91E00E94D5
:10096000CB0108950E942B050E9497040E949402D7
:10097000FDCF1F920F920FB60F9211242F933F932A
:100980008F939F93AF93BF938091C3019091C401C4
:10099000A091C501B091C6013091C7010196A11D7A
:1009A000B11D232F2D5F2D3720F02D570196A11D4E
:1009B000B11D2093C7018093C3019093C401A093FC
:1009C000C501B093C6018091BF019091C001A09173
:1009D000C101B091C2010196A11DB11D8093BF015B
:1009E0009093C001A093C101B093C201BF91AF9198
:1009F0009F918F913F912F910F900FBE0F901F905D
:100A00001895EF92FF920F931F937B018C018FB784
:100A1000F8944091C3015091C4016091C501709157
:100A2000C6018FBF2FB7F8948091C3019091C40184
:100A3000A091C501B091C6012FBF841B950BA60BD9
:100A4000B70BE816F9060A071B0760F71F910F910D
:100A5000FF90EF900895789484B5826084BD84B54A
:100A6000816084BD85B5826085BD85B5816085BDA9
:100A7000EEE6F0E0808181608083E1E8F0E0808153
:100A800082608083808181608083E0E8F0E0808103
:100A900081608083E1EBF0E0808184608083E0EB23
:100AA000F0E0808181608083EAE7F0E0808184600B
:100AB0008083808182608083808181608083808167
:100AC000806880831092C10008958F7090916F01AB
:100AD0009295990F990F907C982B90937C00809120
:100AE0007A00806480937A0080917A0086FDFCCF42
:100AF0002091780040917900942F80E030E0282BFD
:100B0000392BC9010895282F30E0C90186569F4F1F
:100B1000FC0194912A573F4FF9018491882391F069
:100B2000E82FF0E0EE0FFF1FE859FF4FA591B491B9
:100B3000662329F48C91909589238C9308958C9148
:100B4000892B8C930895482F50E0CA0182559F4FFE
:100B5000FC012491CA0186569F4FFC0194914A578B
:100B60005F4FFA0134913323D1F1222331F1233045
:100B700021F4809180008F7705C0243031F480917A
:100B800080008F7D8093800018C0213019F484B5D7
:100B90008F7704C0223021F484B58F7D84BD0DC0D1
:100BA000263021F48091B0008F7705C0273029F4DA
:100BB0008091B0008F7D8093B000E32FF0E0EE0FC6
:100BC000FF1FEE58FF4FA591B491662329F48C9135
:100BD000909589238C9308958C91892B8C930895FB
:100BE000682F70E0CB0182559F4FFC012491CB010F
:100BF00086569F4FFC0144916A577F4FFB019491A9
:100C0000992319F420E030E038C0222331F1233059
:100C100021F4809180008F7705C0243031F48091D9
:100C200080008F7D8093800018C0213019F484B536
:100C30008F7704C0223021F484B58F7D84BD0DC030
:100C4000263021F48091B0008F7705C0273029F439
:100C50008091B0008F7D8093B000892F90E0880F45
:100C6000991F84589F4FFC01A591B4918C9120E06D
:100C700030E0842311F021E030E0C90108951F9293
:100C80000F920FB60F9211242F933F934F935F93C0
:100C90006F937F938F939F93AF93BF93EF93FF9344
:100CA0004091C600E0914802F0914902CF010196BF
:100CB00060E870E00E94180C9C0180914A029091BB
:100CC0004B022817390739F0E853FE4F4083309321
:100CD000490220934802FF91EF91BF91AF919F91FC
:100CE0008F917F916F915F914F913F912F910F90D5
:100CF0000FBE0F901F9018955F926F927F928F9208
:100D00009F92AF92BF92CF92DF92EF92FF920F939A
:100D10001F93CF93DF93EC013A014B01413482E4FE
:100D200058078FE0680780E078070CF07FC060E824
:100D300074E88EE190E0A40193010E944D0C2150D3
:100D4000304040405040CA01B90122E030E040E06C
:100D500050E00E944D0C59016A01A60195012095B1
:100D600030954095509594E0220F331F441F551F36
:100D70009A95D1F760E074E284EF90E00E944D0C08
:100D8000CA01B9012FEF30E040E050E00E94ED0BC6
:100D9000A40193010E944D0CC90181509F4F181668
:100DA00019061CF4522E5A9403C055245394521A17
:100DB00060E079E08DE390E0A40193010E944D0C86
:100DC0002150304040405040CA01B90122E030E09B
:100DD00040E050E00E944D0C209530954095509594
:100DE00083E0220F331F441F551F8A95D1F760E01F
:100DF00074E284EF90E00E944D0CCA01B9012FEF1C
:100E000030E040E050E00E94ED0BA40193010E940D
:100E10004D0CC90181509F4F181619061CF4822FE2
:100E2000815002C081E0821B851500F5E885F985B7
:100E300081E090E00A8802C0880F991F0A94E2F7C7
:100E4000808360E079E08DE390E0A40193010E944B
:100E50004D0C2150304040405040CA01B90122E0C1
:100E600030E040E050E00E944D0C04C0E885F98578
:100E700010829501EC81FD813083EE81FF8120831A
:100E8000EA85FB85208141E050E0CA010E8402C062
:100E9000880F991F0A94E2F7282B2083EA85FB85A7
:100EA0002081CA010F8402C0880F991F0A94E2F7BB
:100EB000282B2083EA85FB858081088802C0440FA7
:100EC000551F0A94E2F7842B8083DF91CF911F9105
:100ED0000F91FF90EF90DF90CF90BF90AF909F90D9
:100EE0008F907F906F905F900895FC01A085B185F1
:100EF00021898C9190E0022E02C0959587950A94E5
:100F0000E2F780FFF6CF0484F585E02D6083089535
:100F100084E791E090934D0280934C0288EC91E03D
:100F200090934F0280934E0285EC90E09093510293
:100F30008093500284EC90E090935302809352028D
:100F400080EC90E0909355028093540281EC90E005
:100F5000909357028093560286EC90E0909359024A
:100F60008093580284E080935A0283E080935B026E
:100F700087E080935C0285E080935D0281E080934E
:100F80005E0208950F931F93CF93DF938C01EB01C3
:100F900009C02196D801ED91FC910190F081E02DDE
:100FA000C801099568816623A1F7DF91CF911F9150
:100FB0000F910895EF92FF920F931F93CF93DF93BA
:100FC0008C017B01EA010CC0D7016D917D01D80134
:100FD000ED91FC910190F081E02DC80109952197D8
:100FE000209791F7DF91CF911F910F91FF90EF9094
:100FF0000895DC01ED91FC910280F381E02D0995CB
:1010000008950F931F938C01DC01ED91FC910190E9
:10101000F081E02D6DE00995D801ED91FC910190F2
:10102000F081E02DC8016AE009951F910F910895A4
:101030000F931F938C010E94F907C8010E940108B9
:101040001F910F9108952F923F924F925F926F924E
:101050007F928F929F92AF92BF92CF92DF92EF9248
:10106000FF920F931F93DF93CF93CDB7DEB7A09777
:101070000FB6F894DEBF0FBECDBF1C016A017B0125
:10108000411551056105710549F4DC01ED91FC91B3
:101090000190F081E02D60E3099554C088249924E3
:1010A0005401422E55246624772401E010E00C0FF1
:1010B0001D1F080D191DC701B601A30192010E9451
:1010C0002B0CF80160830894811C911CA11CB11C9D
:1010D000C701B601A30192010E942B0CC901DA01DC
:1010E0006C017D01C114D104E104F104F1F681E049
:1010F000E82EF12CEC0EFD1EE80CF91C3E010894C4
:10110000611C711CD501C4010197A109B1096C01D1
:10111000C818D90814C0F601EE0DFF1D60816A30B1
:1011200010F4605D01C0695CD101ED91FC9101900A
:10113000F081E02DC10109950894E108F1086E14D1
:101140007F0449F7A0960FB6F894DEBF0FBECDBF5F
:10115000CF91DF911F910F91FF90EF90DF90CF9093
:10116000BF90AF909F908F907F906F905F904F90C7
:101170003F902F9008952AE00E9423080895EF924F
:10118000FF920F931F93CF93DF93EC017A018B01B2
:1011900077FF0FC0E881F9810190F081E02D6DE2C9
:1011A000099510950095F094E094E11CF11C011D47
:1011B000111DCE01B801A7012AE00E942308DF918A
:1011C000CF911F910F91FF90EF900895AB0166278B
:1011D00057FD6095762F0E94BF0808950F931F93C7
:1011E0008C01AB01662757FD6095762F0E94BF08E2
:1011F000C8010E9401081F910F9108959F92AF921C
:10120000BF92CF92DF92EF92FF920F931F93CF93F3
:10121000DF93EC017A018B01922ECB01BA0120E021
:1012200030E040E050E00E94370A882364F4E8810F
:10123000F9810190F081E02DCE016DE2099517FB57
:10124000109517F9109520E030E040E05FE3AA2404
:101250000BC0CA01B90120E030E040E251E40E9435
:101260003B0A9B01AC01A394A91498F3C801B701F0
:101270000E94D3095B016C010E94A80A7B018C01CA
:10128000CE01B801A7010E94BB08992029F0CE0128
:1012900061E671E00E94F907C801B7010E94D40A13
:1012A0009B01AC01C601B5010E94D20920C020E01B
:1012B00030E040E251E40E948A0B7B018C010E94E5
:1012C000A30A5B016C01CC24B7FCC094DC2CCE01DA
:1012D000B601A5010E94BF08C601B5010E94D60A49
:1012E0009B01AC01C801B7010E94D2099A949920D0
:1012F000F1F6DF91CF911F910F91FF90EF90DF906A
:10130000CF90BF90AF909F90089522E00E94FE087A
:1013100008952F923F924F925F926F927F928F9299
:101320009F92AF92BF92CF92DF92EF92FF920F9374
:101330001F93DF93CF93CDB7DEB73B014C0119016B
:101340002A016D897E898F89988D6A197B098C099C
:101350009D09621A730A840A950AA40193010E94E6
:10136000ED0BE218F30804091509A80197010E9482
:101370004D0C2A0D3B1D4C1D5D1DB901CA01CF91BD
:10138000DF911F910F91FF90EF90DF90CF90BF9072
:10139000AF909F908F907F906F905F904F903F9015
:1013A0002F9008955058BB27AA270ED075C166D13B
:1013B00030F06BD120F031F49F3F11F41EF45BC18B
:1013C0000EF4E095E7FB51C1E92F77D180F3BA170E
:1013D000620773078407950718F071F49EF58FC1B3
:1013E0000EF4E0950B2EBA2FA02D0B01B901900140
:1013F0000C01CA01A0011124FF27591B99F0593F84
:1014000050F4503E68F11A16F040A22F232F342FCB
:101410004427585FF3CF469537952795A795F04019
:101420005395C9F77EF41F16BA0B620B730B840B2E
:10143000BAF09150A1F0FF0FBB1F661F771F881FE6
:10144000C2F70EC0BA0F621F731F841F48F487953E
:1014500077956795B795F7959E3F08F0B3CF93952D
:10146000880F08F09927EE0F979587950895D9D0A2
:1014700008F481E008950CD00FC107D140F0FED0F0
:1014800030F021F45F3F19F0F0C0511139C1F3C0C1
:1014900014D198F39923C9F35523B1F3951B550B38
:1014A000BB27AA2762177307840738F09F5F5F4F37
:1014B000220F331F441FAA1FA9F333D00E2E3AF078
:1014C000E0E830D091505040E695001CCAF729D092
:1014D000FE2F27D0660F771F881FBB1F26173707E1
:1014E0004807AB07B0E809F0BB0B802DBF01FF2711
:1014F00093585F4F2AF09E3F510568F0B6C000C177
:101500005F3FECF3983EDCF3869577956795B7954A
:10151000F7959F5FC9F7880F911D9695879597F965
:101520000895E1E0660F771F881FBB1F62177307DE
:101530008407BA0720F0621B730B840BBA0BEE1FF3
:1015400088F7E095089504D06894B111D9C0089542
:10155000BCD088F09F5790F0B92F9927B751A0F0D1
:10156000D1F0660F771F881F991F1AF0BA95C9F737
:1015700012C0B13081F0C3D0B1E00895C0C0672F70
:10158000782F8827B85F39F0B93FCCF386957795E7
:101590006795B395D9F73EF49095809570956195D0
:1015A0007F4F8F4F9F4F0895E89409C097FB3EF4FB
:1015B00090958095709561957F4F8F4F9F4F9923A0
:1015C000A9F0F92F96E9BB279395F695879577951E
:1015D0006795B795F111F8CFFAF4BB0F11F460FFDE
:1015E0001BC06F5F7F4F8F4F9F4F16C0882311F036
:1015F00096E911C0772321F09EE8872F762F05C04A
:10160000662371F096E8862F70E060E02AF09A95E4
:10161000660F771F881FDAF7880F9695879597F9D9
:101620000895990F0008550FAA0BE0E8FEEF161673
:101630001706E807F907C0F012161306E407F507C6
:1016400098F0621B730B840B950B39F40A2661F03A
:10165000232B242B252B21F408950A2609F4A140DD
:10166000A6958FEF811D811D089597F99F6780E8EA
:1016700070E060E008959FEF80EC089500240A94E4
:101680001616170618060906089500240A9412165D
:101690001306140605060895092E0394000C11F490
:1016A000882352F0BB0F40F4BF2B11F460FF04C03D
:1016B0006F5F7F4F8F4F9F4F089557FD9058440F96
:1016C000551F59F05F3F71F04795880F97FB991FA1
:1016D00061F09F3F79F0879508951216130614065E
:1016E000551FF2CF4695F1DF08C0161617061806EB
:1016F000991FF1CF86957105610508940895E894C6
:10170000BB2766277727CB0197F908958ADF08F46E
:101710008FEF08950BD0C0CFB1DF28F0B6DF18F0FF
:10172000952309F0A2CFA7CF1124EACFC6DFA0F3FB
:10173000959FD1F3950F50E0551F629FF001729F66
:10174000BB27F00DB11D639FAA27F00DB11DAA1F85
:10175000649F6627B00DA11D661F829F2227B00DD2
:10176000A11D621F739FB00DA11D621F839FA00D5D
:10177000611D221F749F3327A00D611D231F849FAD
:10178000600D211D822F762F6A2F11249F57504004
:101790008AF0E1F088234AF0EE0FFF1FBB1F661F9F
:1017A000771F881F91505040A9F79E3F510570F058
:1017B0005CCFA6CF5F3FECF3983EDCF38695779540
:1017C0006795B795F795E7959F5FC1F7FE2B880F53
:1017D000911D9695879597F90895629FD001739F03
:1017E000F001829FE00DF11D649FE00DF11D929FBD
:1017F000F00D839FF00D749FF00D659FF00D9927FC
:10180000729FB00DE11DF91F639FB00DE11DF91F1F
:10181000BD01CF0111240895991B79E004C0991FDF
:10182000961708F0961B881F7A95C9F7809508953A
:1018300097FB092E07260AD077FD04D049D006D0A1
:1018400000201AF4709561957F4F0895F6F79095F2
:1018500081959F4F0895A1E21A2EAA1BBB1BFD0183
:101860000DC0AA1FBB1FEE1FFF1FA217B307E4077F
:10187000F50720F0A21BB30BE40BF50B661F771FD7
:10188000881F991F1A9469F76095709580959095B7
:101890009B01AC01BD01CF01089597FB092E0526E0
:1018A0000ED057FD04D0D7DF0AD0001C38F4509575
:1018B0004095309521953F4F4F4F5F4F0895F6F774
:1018C00090958095709561957F4F8F4F9F4F0895AC
:1018D000AA1BBB1B51E107C0AA1FBB1FA617B70756
:1018E00010F0A61BB70B881F991F5A95A9F7809572
:1018F0009095BC01CD010895EE0FFF1F0590F49166
:08190000E02D0994F894FFCFDB
:10190800726561647920666F722063616C696272C6
:101918006174696F6E006D696E536D696C65203D09
:1019280020006D6178536D696C65203D200063610E
:101938006C6962726174656400736D696C65203DE1
:1019480020002061766572616765203D2000206374
:101958006F756E74203D2000207061696E203D20F7
:10196800002E00010058020500020006008813013D
:0A197800000000007507C207DA073F
:00000001FF
